:04000000ADEF37F039
:08000800046ED8CF05F0E0CF33
:1000100006F00001E9CF0CF0EACF07F0E1CF08F0DD
:10002000E2CF09F0D9CF0AF0DACF0BF0F3CF12F01C
:10003000F4CF13F0FACF14F0F5CF15F0F6CF16F099
:10004000F7CF17F000C00EF001C00FF002C010F0A3
:1000500003C011F0F2AA30EF00F0F2B402EF01F0A9
:100060009DA036EF00F09EB0FAEF04F0F0A83CEF50
:1000700000F0F0B27DEF00F0F2A642EF00F0F2B037
:10008000B6EF00F00EC000F00FC001F010C002F09B
:1000900011C003F00CC0E9FF07C0EAFF078E08C0DB
:1000A000E1FF09C0E2FF0AC0D9FF0BC0DAFF12C0AE
:1000B000F3FF13C0F4FF14C0FAFF15C0F5FF16C01C
:1000C000F6FF17C0F7FF045006C0E0FF05C0D8FFD9
:1000D0001000020EEA6E220EE96EEF500DE0020EE5
:1000E000016E006A002EFED7012EFBD7970E006E20
:1000F000002EFED7EF2EF3D71200010E0201226F61
:100100000001E7DF81B413D082B003D00A0E1B6E6A
:100110000ED082B203D0070E1B6E09D081BC03D073
:10012000040E1B6E04D081BE02D0010E1B6EF09235
:1001300042EF00F0020122530CE01C50200B20087B
:1001400005E12351200B02E1010E01D0000E016EEA
:100150000BD01C50100B100805E12351100B02E1CD
:10016000010E01D0000E016E00011200030E02010B
:10017000226F0001AEDF8150300B0201206F226B35
:1001800020C223F20001D6DF0201219101B02181BA
:10019000010E226F20C223F20001CCDF0201219365
:1001A00001B0218320C21CF021A113D082B002D063
:1001B0001B6A24D082B203D0080E1B6E1FD081BCF4
:1001C00003D0050E1B6E1AD081BE03D0020E1B6E2B
:1001D00015D021A313D082B003D00B0E1B6E0ED00E
:1001E00082B203D0090E1B6E09D081BC03D0060E6B
:1001F0001B6E04D081BE02D0030E1B6EF290000174
:1002000042EF00F082CF20F281CF21F20201205193
:10021000030B226F2151C00B006E0038236F0F0EAD
:1002200023172151300B006E0030246F2433243308
:100230001F0E24172151040B006E0030256F25334B
:100240003F0E251725512411266F22512311276FA8
:10025000265107081BE127510E0A000107E0030A97
:1002600009E0060A0BE00C0A0DE00FD094928B9285
:1002700094800BD0939C8A9C948207D0939E8A9EF4
:10028000938C03D094908B90938E0201F294000192
:1002900042EF00F020200A20202000002020202013
:1002A0002000564143494F00454D5054590056498E
:1002B00044450000CF5943544F5D00002000455293
:1002C000524F520041424E4F524D414C00000C449F
:1002D0004953504C4159205446543A2000000A4991
:1002E0004E494349414E444F205445434C41444FAD
:1002F00000000A5445434C41444F3A2000000A494B
:100300004E494349414E444F2054433737000A5425
:10031000454D503A25660A4D5F49443A25780A4DC5
:10032000414E5546414354555245523A20004D499D
:1003300043524F4348495000554E4B4E4F574E0085
:100340000A544337373A2000484F524E4F204C4909
:1003500053544F00544337372041424F4E4F524D74
:10036000414C000054433737204552524F52000051
:100370005445434C41444F2041424F4E4F524D4112
:100380004C005445434C41444F204552524F52007B
:10039000444953504C4159205446542041424F4EF9
:1003A0004F524D414C00444953504C415920544602
:1003B00054204552524F52004F43555252494552D4
:1003C0004F4E204552524F5245530A5052455349C1
:1003D0004F4E45204355414C5155494552205445B7
:1003E000434C412050415241205245494E494349D6
:1003F00041520A204F204150414745205920505238
:10040000454E444120454C2045515549504F000030
:10041000444953504F53495449564F5320434F4E2C
:100420002041424E4F524D414C4944414445530AAC
:1004300050524553494F4E453A205349205041525E
:100440004120434F4E54494E5541520A4F204E4F82
:100450002050415241205245494E49434941520A98
:100460004F2041504147452059205052454E44416C
:1004700020454C2045515549504F000050455246AB
:10048000494C4553000050524F46494C45530000DB
:1004900050524F46494C5300CF504FD45CCB5C0078
:1004A000434F4E4649475552414349D34E00534569
:1004B0005454494E47530000504152414DC8545284
:1004C00045530000CF4150414D4554500000544920
:1004D000454D504F000054494D45000054454D5086
:1004E0005300CF4FC34FC441000054454D504552B7
:1004F00041545552410054494D45000054454D501A
:100500005300CF4FC34FC44100004944494F4D41B0
:1005100000004C414E475541474500004C414E4775
:10052000414745005CC45C4F4D410000464F524D71
:1005300041544F00464F524D41540000464F524DDA
:1005400041540000D44F524D415400004F5249478E
:10055000454E00005245464552454E4345004F52D8
:100560004947494E45005C43544FD7485C4B000017
:10057000564F4C564552200052455455524E20007D
:10058000524556454E4952200000424F5B42504171
:10059000D94154DC43DF20000C0A20003A004D45CD
:1005A0004E55205052494E434950414C00004D4158
:1005B000494E204D454E55004D454E55205052490F
:1005C0004E434950414C0000C3CB4142484F452067
:1005D0004D4548DE00004341524741522056414CB0
:1005E0004F52455300004C4F41442056414C554515
:1005F0005300434841524745522056414C455552BD
:1006000053005B4841D745485CDF204841C35059FF
:100610005B4B5C002020312020322020332020340E
:1006200020203520200043434343000053535353BD
:1006300000004D4D3A0052454C415449564F000080
:1006400052454C4154495645000052454C4154498D
:100650004600504FC44354424548485C4B00414219
:10066000534F4C55544F00004142534F4C5554008A
:100670004142534F4C55000041C1434FCBDE5448DB
:10068000DB5D000045535041D14F4C00454E474C77
:10069000495348004652414EC74149530000505902
:1006A00043434B5C5D00534F4C44414E444F00006C
:1006B0005245464C4F57494E4700534F4C445552B4
:1006C0004500CF415D4B41002E2E2E00BF43414ED1
:1006D00043454C41520043414E43454C0000414E7E
:1006E0004E554C4552004F544D45485C54DC00007B
:1006F0003F005445524D494E41444F00454E4445FC
:10070000440046494E414C49534500005B414B4F24
:1007100048D7454848DB5D00BF494E4943494152EF
:100720000000535441525400434F4D4D454E4345F4
:1007300052004841D75C484154DC00003F00BF4FA5
:1007400054524F2050554E544F00414E4F5448453F
:100750005220504F494E5400415554524520504F5D
:10076000494E5400C45059C341DF20544FD74B4128
:1007700000003F004D4158004D494E00800ED8A268
:1007800002D00201251B02012A6B2B6B21C229F228
:100790002551291B2051D8B4DFD0286F006E245179
:1007A000D8B4E3D0285FD8B483D03EE325C22EF27C
:1007B0002E8F26C22DF227C22CF22B6BD8902E330F
:1007C0002D332C332B33282FF8D729AF03D02A8190
:1007D000E0D02A9128912A89020EEA6E230EE96E52
:1007E000EBD02A9929BF0AD028A113D02E332D335C
:1007F0002C332B33002AD8B4C7D00BD02EBF0CD04B
:10080000D8902B372C372D372E370006D8B4BCD0D4
:10081000F5D72A8D6DD02A9D21C229F221AF02D0B1
:100820002E8FABD02E9FA9D024C228F224C200F074
:100830002051285F21C22EF22E8F22C22DF223C218
:100840002CF22B6BD8902E332D332C332B33282FB7
:10085000F8D729AF03D02A839CD02A9328912A8BDA
:10086000020EEA6E270EE96EA7D02A9B29BF0AD096
:1008700028A113D02E332D332C332B33002AD8B498
:1008800083D00BD02EBF0CD0D8902B372C372D37E0
:100890002E370006D8B478D0F5D72A8F29D02A9FD2
:1008A00025C229F225AF02D02E8F67D02E9F65D0AA
:1008B00025C22EF22E8F26C22DF227C22CF229AF8E
:1008C00004D02E9F2A8565D02A952B6B2891020E85
:1008D000EA6E230EE96E70D029BF1CD021C229F226
:1008E00028A106D02E332D332C332B33002A4CE095
:1008F0002BAF0BD02C2B09E12D2B07E12E2B05E183
:100900002E332D332C33002A3FE02ABD84D72ABF53
:10091000C6D71CD0800E2E1B2EAF04D03AD025C2D5
:1009200029F20AD021C229F22E5306E12D5304E107
:100930002C5302E1006A21D02EBF08D0D8902B376B
:100940002C372D372E37002EF7D71ED029AF02D0E7
:100950002E8F13D02E9F11D024C200F025C22EF26C
:1009600026C22DF227C22CF208D020C200F021C2EC
:100970002EF222C22DF223C22CF22EC201F02DC281
:1009800002F02CC203F034D0006A016A026A036AE2
:100990002FD02B6B2C1F2D1F2E1F2B1F2B2B05E158
:1009A0002C2B03E12D2B01E12E2B2AB112D72AB3D8
:1009B00054D72AB589D7B3D7EF502C2705E32D2B71
:1009C00003E12E2BD8B42881ED52EF502D2703E3FD
:1009D0002E2BD8B42881ED52EF50EFBE01D0800A03
:1009E0002E27D8B028812AB9FCD62ABB3ED774D787
:1009F00000011200D89224C023F223C022F222C0A8
:100A000021F221C020F220C027F21FC026F21EC012
:100A100025F21DC024F2B2DE03C024F002C023F090
:100A200001C022F000C021F0010E2526D8B0262AF0
:100A3000D8B4272AD8B4282A9E9042EF00F0504517
:100A40005246494C000050524F46494C45005052C6
:100A50004F46494C0000CF504FD45CCB000043526E
:100A60004541520043524541544500004352C94557
:100A70005200434F5BC441424154DC004341524762
:100A8000415200004C4F4144000043484152474509
:100A900052004841C350595B4B4100004544495402
:100AA00041520000454449540000C944495445524C
:100AB00000005045C4414B545C504F424154DC004F
:100AC0000C4341524741522056414C4F5245533AF4
:100AD000000050554E544F00504F494E5400504F57
:100AE000494E5400544FD74B410050554E544F205F
:100AF0004E4F2056414C49444F00504F494E5420D0
:100B00004E4F542056414C494400504F494E5420BA
:100B10004E4F4E2056414C4944450000544FD74B50
:100B2000412048450AC4455D4354425C5445CBDCF2
:100B300048410000929A899A1200D4C101F0D3C1B1
:100B400000F00066012A0900F5CFEEFF002EFBD76A
:100B5000012EF9D7F86A1200C9501CC2C9FFC7306C
:100B6000FEE3C9CF00F01200949C8B9C1BC21CF2C8
:100B7000F3DF949C8B8C1200929A898A1200DADF40
:100B80000101CD51036ECC51CC2BD8B4CD2BF66ED8
:100B900003C0F7FFF86A010EEA6ED20EE96ED46B5D
:100BA000010ED36F0001C9DFD2C1CEF10101CE51D8
:100BB000CE07000AD8B490D0CD51036ECC51CC2BC7
:100BC000D8B4CD2BF66E03C0F7FFF86A010EEA6EBB
:100BD000D20EE96ED46B010ED36F0001AEDFD2C12D
:100BE0001BF2C2DF0101CD51036ECC51CC2BD8B426
:100BF000CD2BF66E03C0F7FFF86A010EEA6ED20E37
:100C0000E96ED46B010ED36F000197DFD2C1CFF133
:100C10000101CF51800BD06FD16BCF9FCF51CF0748
:100C2000000A18E0CD51036ECC51CC2BD8B4CD2B9B
:100C3000F66E03C0F7FFF86A010EEA6ED20EE96E97
:100C4000D46B010ED36F000178DFD2C11CF284DFB8
:100C50000101E4D7D051D1113EE0CD51036ECC510A
:100C6000CC2BD8B4CD2BF66E03C0F7FFF86A010E7B
:100C7000EA6ED20EE96ED46B010ED36F00015DDF18
:100C80000101D16BD2C1D0F1D03D06D0D15304E1E6
:100C9000010ED16FF40ED06FD1C1D2F1D22BD20799
:100CA000D8B40DD0196AF2BE198EF29E02012269E3
:100CB000000169EC00F019BEF28E0101F0D7196A4B
:100CC000F2BE198EF29ED0C122F2000169EC00F052
:100CD00019BEF28E01016BD700014EDF47EF08F01D
:100CE0000101F951016AF85D03E2F8C100F00CD08E
:100CF000006A080EFA6FF8370036F951005CD8B078
:100D0000006E0136FA2FF7D7000112000101CD6BFA
:100D1000CC51030B786F7851FC0F2FE2040F0001C8
:100D2000F1EF06F0C00E0101CD6F76C174F177C10D
:100D300075F1F00E726F736F20D0A00E0101CD6FB0
:100D400077C174F176C175F1F00E726F736F15D0C3
:100D50000101CD6B746B756BF00E726F736F0DD0FC
:100D6000600E0101CD6F77C174F176C175F1F00E9F
:100D7000726F870E736F01D0010172C1F8F1060E18
:100D8000F96F0001ADDF020E015C0101796F72C1E4
:100D9000F8F179C1F9F10001A3DFD8900130010128
:100DA0007A6F7331006E003200321F0E0016005051
:100DB000FF0F7B6F73C1F8F17BC1F9F1000190DF88
:100DC000010E012401017C6F0001B4DE360E020128
:100DD0001B6F0001C9DECDC11CF2BEDECDDE5CEFB3
:100DE00008F0E824F76AF736FD0FF66E0D0EF722CD
:100DF0000A00F550FA6E0800F550F96E240D3A0D10
:100E0000500D600D0101745102011227000E1323D1
:100E100013C217F212C218F2010E155D1227000E4E
:100E2000132313C219F212C21AF201017551020101
:100E300014272A0E1B6F000197DE17C21CF28CDEEE
:100E400018C21CF289DE19C21CF286DE1AC21CF21C
:100E500083DE2B0E02011B6F000186DE02011C6B7C
:100E600000017ADE14C21CF277DE02011C6B000165
:100E700073DE020116511425FF0F1B6F1C6F00015A
:100E80006BDE2C0E02011B6F00016EDE12000201F0
:100E90001A6B1B6B010E1C6FDA6AD96A020E1F6F88
:100EA000120E1E6F020EEA6E160EE96E1FC2E2FFF0
:100EB0001EC2E1FF1CC21DF2D890E550EE02F350B5
:100EC0001A23F4501B231D2FF7D71AC2DEFF1BC2B3
:100ED0001AF21B6BD8B01B2B1E2BD8B41F2B1C2B4C
:100EE0001C510508DFE10001D3EF07F002010453B4
:100EF000D8B486D00553D8B483D007C208F206C24E
:100F000009F202530AE1010172510201015D05E299
:100F1000010173510201035D01E372D00451012507
:100F20000E6F000E02210F6F010E0E5F000E0F5BA1
:100F300005E10101725102010E5D05E3015101015C
:100F4000725D0201046F05510325FF0F0101735DFE
:100F500001E007E2020103510101735D0201056F27
:100F600001010001E7DD02C213F201C212F203C265
:100F700014F204C215F205C216F244DF0201116B2D
:100F8000106B0F6B04C20EF211C215F210C214F2F4
:100F90000FC213F204C212F2196B186B176B05C261
:100FA00016F2000174D703C00DF202C00CF201C0AA
:100FB0000BF200C00AF202010DC203F00CC202F0F3
:100FC0000BC201F00AC200F0FF0E0A27D8A00B27BF
:100FD000D8A00C27D8A00D27005206E1015204E149
:100FE000025202E1035209E008C21CF20001B4DD22
:100FF00009C21CF2B1DDDFD702010001BDDD020133
:10100000000112000201026B016B036B72C104F25A
:1010100073C105F2CDC107F2CCC106F2000166DF53
:10102000120094948B849494196AF2BE198EF29EE5
:10103000640E0201226F000169EC00F019BEF28E0D
:1010400094948B94196AF2BE198EF29E640E02017A
:10105000226F000169EC00F019BEF28E94948B842B
:10106000196AF2BE198EF29EC80E0201226F0001AB
:1010700069EC00F019BEF28E929A898A929A949C39
:101080007F0E0101CD6FDC0ECC6F000178D5350EDF
:101090000101766F280E776F870E736FF00E726FF7
:1010A0007AC17DF17CC17EF17DC17FF17EC180F18D
:1010B000030ECC6F00012AD6196AF2BE198EF29E79
:1010C000010E0201226F000169EC00F019BEF28EE0
:1010D00071C1CDF170C1CCF195DFD7EF0DF00101F9
:1010E000F651060DF3507A257D6FF751080DF35038
:1010F0007C257E6F00011200020106510803F3CF28
:1011000001F0F4CF00F00903F35000260751080363
:10111000F3500020026E00011200020105532AE183
:10112000010172510201045D25E2010173510201C6
:10113000065D20E20001FEDC05C213F204C212F2D9
:1011400006C214F2010E0201156F166F00015ADE7D
:1011500008C209F202010A6B08C21CF20001FCDCA1
:10116000020107C209F20A6B07C21CF20001F4DC9B
:1011700003DD0201000112000201006B00510408AE
:1011800049E3016B0151070843E300510101FE25CA
:10119000E96E000EFF21EA6EEFCF00F0020101516F
:1011A000016E04E0D8900032012EFCD70050010BF4
:1011B00017E000510101F8250201026F070E01013D
:1011C000F95D02010125036F056B02C204F2066F8F
:1011D000FBC108F2FAC107F200019FDF16D002013D
:1011E00000510101F8250201026F070E0101F95DAE
:1011F00002010125036F056B02C204F2066FFDC1F7
:1012000008F2FCC107F2000188DF0201012BBAD706
:10121000002BB4D70001A0EF09F00101F5510C0833
:1012200019E10201026B016B036B7FC104F280C103
:1012300005F271C107F270C106F2000157DE7AC1F2
:101240007FF17CC180F10101F66BF76B000147DF94
:10125000A2D00101F5510A0805E1080E7E277AC1E6
:101260007DF198D0F5517A0843E2F551CD081FE29F
:10127000F551D3080BE3F5C1F8F1030EF96F000146
:101280002FDD3B0E00240101F56F11D0F551D70879
:1012900009E3F551010B006ED890003600505E0F47
:1012A000F56F05D0F551D90802E1280EF56FF5511B
:1012B000DB080DE3F5517A080AE2F5C1F8F10B0EEF
:1012C000F96F00010DDD210E00240101F56FF551CC
:1012D000DC0803E12D0EF56F0BD0F551DE0803E1BC
:1012E0002F0EF56F05D0F551DF0802E1400EF56FC6
:1012F000200EF55DF76F0201076B066F096B050E97
:10130000086F0001F9DE02C003F00150290F016EE1
:10131000000E032201C0F6F103C0F7F17DC1F8F120
:101320007EC1F9F16FC1FBF16EC1FAF171C1FDF13E
:1013300070C1FCF103C0FFF101C0FEF100011CD738
:10134000060E01017D277D517F5DD8A07DC17FF113
:101350007E51805DD8A07EC180F17A517D5DF76FAE
:10136000F86F060EF96F0001BBDC01500101795DD9
:1013700004E27AC17DF1080E7E277C517E5D006E0D
:101380000032003200321F0E001600507B5DD8A0E4
:101390007CC17EF1000112000900F5520CE0F6CF8D
:1013A000F3F1F7CFF4F1F5CFF5F137DFF3C1F6FF45
:1013B000F4C1F7FFF1D712000101F251010A000157
:1013C00005E0FE0A12E0FF0A1BE024D0070E01012F
:1013D0006F6FE00E6E6F4F0EF56F00011EDF4B0E4C
:1013E0000101F56F000119DF15D0F80E01016F6FD3
:1013F0006E6BBE0EF66E020EF76E0001CDDF0AD0E8
:1014000001016F69E00E6E6FC40EF66E020EF76E8C
:101410000001C2DF01016F696E6900011200010164
:10142000DA530DE0C00ED56EF28AF088F198F2869C
:101430008688F286868AF286FF0E861206D0F29A97
:10144000938E938C948294908B9000011200F50EF1
:10145000936E856EF19E030E946E0101DA6B0001AE
:10146000DEDF00D0F2868688F286868AF286FF0E5C
:101470008612F088F1980C0E1B6EF9EF0DF08E0EAF
:10148000006E06C201F005C202F0036A015209E1D2
:1014900002C001F0026A080E005E015202E1006A19
:1014A00008D0D89001BE04D0023601360006F9D724
:1014B000019E120002010351D8B4A5D00F6F07514D
:1014C000D8B4A1D00F5F05E37F0E0F27D8B09BD013
:1014D00006D0810E0F5FD8A096D0D8B494D00FC29A
:1014E00000F0016A026A036A0E6B04C20DF20D8FEE
:1014F00005C20CF206C20BF2190E0F6F0A510B5FF8
:101500000DE2010E0C5F0AE20D5F08E20E5F06E2DB
:101510000E2B0D2B0C2B0A510B2728D009510C5FD9
:1015200012E2010E0D5F0FE20E5F0DE20E2B0D2B8E
:1015300009510C270A510B2719E30C2B17E10D2B2E
:1015400015E10E2B13D0085180090D5F0EE2010E3C
:101550000E5F0BE20E2B085180090D2709510C2755
:10156000E9E30D2BE7E10E2BE5D703800F2F01D028
:101570000BD0D8900B370C370D370E37D890033679
:10158000023601361037BAD710A106D0D8900132F2
:1015900002320332103302D0000635E010BF1ED0F5
:1015A000D8900B370C370D370E370A510B5F07E217
:1015B000010E0C5F04E20D5F02E20E5F1AE30951B7
:1015C0000C5F05E2010E0D5F02E20E5F12E30851AF
:1015D00080090D5F03E2010E0E5F0BE3032A09E1B0
:1015E000022A07E1012A05E1002A0DE00132023258
:1015F000033204C20FF208510F1B0FAF02D0018E4D
:1016000006D0019E04D0006A016A026A036A0001E2
:1016100012009298899802011C6B0001ACEC05F055
:10162000015000C0CEF102011C6B0001ACEC05F0D2
:10163000015000C0CFF102011C690001ACEC05F0C3
:1016400002011C690001ACEC05F002011C6B0001F9
:10165000ACEC05F0015000C0D0F102011C6B0001A0
:10166000ACEC05F002011C6B0001ACEC05F00201D2
:101670001C6B0001ACEC05F092988988CDC103F099
:101680000101CCC1E9FFCDC1EAFFCF51040B040831
:101690003AE1D46BCEC1D3F1D337D437D337D43773
:1016A000D337D437D337D437D337D437E00ED31723
:1016B000CF31006E003200321F0E00160050D311E1
:1016C000006ED4C103F0E8CF05F2D4C106F20001E8
:1016D000D6DE03C0D6F102C0D5F101C0D4F100C0FE
:1016E000D3F103C006F202C005F201C004F200C04B
:1016F00003F202010A6B096B086B830E076F00018E
:10170000D9DE08D00101850E006EC80E016E026A96
:10171000036A000100C0EFFF01C0ECFF02C0ECFF54
:1017200003C0ECFF0101D0C101F000012EEF0EF06B
:101730000900F6CFCDF1F7CFCEF1F5CFF5F16DDDA4
:10174000CDC1F6FFCEC1F7FF0101CC2F01D002D0F1
:101750000001EED70001120002010551D8B471D08A
:10176000006E0951D8B46DD0002604E3810E002626
:1017700068E204D07F0E005E64E363E006C20DF20F
:101780000A510D1B068F0A8F08510C03F4CF0FF27C
:1017900007510B03F4CF03F0F3CF0EF20C03F35019
:1017A0000F27F4500E23000E032208510B03F350B1
:1017B0000F27F4500E23000E026A03220222065164
:1017C0000C03F3500E27F4500322000E02220651A0
:1017D0000B03F3500326F4500222000E016A01228B
:1017E00008510A03F3500E27F4500322000E022280
:1017F000012207510A03F3500326F4500222000E7F
:10180000012206510A03F3500226F4500122002A55
:1018100001BE05D00E370336023601360006000E33
:101820000EAF0AD0032A02220122015005E1025024
:1018300003E1035001E1002A0DBF018E0DAF019EAF
:1018400004D0006A016A026A036A00011200010101
:10185000D951B608D96F036ADAC1DDF1DA8FD890B1
:10186000DA33DB33DC330332023201320032D92F78
:10187000F6D7DDAF0BD0001E011E021E031E002A8C
:10188000D8B4012AD8B4022AD8B4032A0001BFEF81
:101890000CF0D8B204D0010EEA6EE10EE96E006AD7
:1018A000016A026A036A0101E16BE26BE36BE46BBC
:1018B000E051DF11DE11DD112CE0200EE56FD89034
:1018C000D937DA37DB37DC37E137E237E337E4376C
:1018D000E051E45D08E1DF51E35D05E1DE51E25DE9
:1018E00002E1DD51E15D0FE3DD51E15FDE51D8A0A2
:1018F000DE3DE25FDF51D8A0DF3DE35FE051D8A0DD
:10190000E03DE45FD8800036013602360336E52F2D
:10191000D6D7E1C1EFFFE2C1ECFFE3C1ECFFE4C1C8
:10192000ECFF00011200E9500101D16FD051D36FDB
:101930001CE0CFC108F2CEC107F2CDC106F2CCC186
:1019400005F202010C6B0B6B200E0A6F820E096F01
:10195000000102DF03C0CFF102C0CEF101C0CDF122
:1019600000C0CCF10101D32FE4D7CFC1DCF1CEC14F
:10197000DBF1CDC1DAF1CCC1D9F1000168D703C0E8
:10198000CFF102C0CEF101C0CDF100C0CCF1010118
:10199000CFAF0DD0D107D18BCC1FCD1FCE1FCF1F06
:1019A000CC2BD8B4CD2BD8B4CE2BD8B4CF2B3B0E68
:1019B000D86F9A0ED76FCA0ED66FD56B0A0ED36F3B
:1019C000D051D8B4D12BD882010EEA6ECC0EE96E7C
:1019D000CFC1DCF1CEC1DBF1CDC1DAF1CCC1D9F19F
:1019E000D8C1E0F1D7C1DFF1D6C1DEF1D5C1DDF15B
:1019F00000014FDF0150005213E10101D029D35DF6
:101A0000D8A402D000010CD0D1510DE00F0BD35D52
:101A100001E044E2D1BF42D0D1BD05D0200E37D085
:101A2000200E0101D117D1AB0FD0D19BD051D8A43A
:101A3000D1070050D16F2D0EF56F00010DEC09F0AC
:101A40000101D151006ED16BD051D35D0DE1005039
:101A5000D16F2E0EF56F00010DEC09F00101D1518F
:101A6000006E200ED117000E300ED1AB10D0D19BDE
:101A7000D051D8A4D1070050D16F2D0EF56F0001C1
:101A80000DEC09F00101D151006ED16B300E002632
:101A900000C0F5F100010DEC09F00101D892D8C1A8
:101AA000DCF1D7C1DBF1D6C1DAF1D5C1D9F1E06BF8
:101AB000DF6BDE6B0A0EDD6F0001EBDE03C0D8F1D9
:101AC00002C0D7F101C0D6F100C0D5F10101D32F7A
:101AD0007AD7000112000101CDBF12D00F0E006EA7
:101AE000CC3900160A0E005C03E2300E002602D04C
:101AF000CD51002600C0F5F100010DEC09F0010107
:101B00000F0ECC170A0ECC5D02E2300E02D0CD9F34
:101B1000CD51CC27CCC1F5F100010DEC09F058EF07
:101B20000EF002C209F202010651091B09AF05D0ED
:101B3000D894D89002BFD8802FD002C209F205C233
:101B40000AF201510A5F06E009AF26D0D850010A17
:101B5000D86E22D006C20AF202510A5F06E009AF2F
:101B60001BD0D850010AD86E17D007C20AF2035111
:101B70000A5F06E009AF10D0D850010AD86E0CD029
:101B800008C20AF204510A5F06E009AF05D0D85036
:101B9000010AD86E01D0D890000112000101C46B77
:101BA000010EC56F92988988000111EF08F0196A3B
:101BB000F2BE198EF29E010E0201226F000169EC45
:101BC00000F019BEF28ECE0EF66E020EF76ECCEC61
:101BD00009F0C5C1F2F1DCEC09F0010E0101C525E7
:101BE000C46FDE0EF66E020EF76E0001CCEC09F04B
:101BF0002ED4F20EF66E020EF76ECCEC09F0C5C1D3
:101C0000F2F1DCEC09F00101C437C437FC0EC41753
:101C1000010EC525C427FE0EF66E020EF76E0001FA
:101C2000CCEC09F0020E0101CC6F196AF2BE198EDC
:101C3000F29EC80E0201226F000169EC00F019BE8D
:101C4000F28E0101CC2FF1D7C96BC86BC76BC66B85
:101C5000010ECD6FC60ECC6F0001DBD401C0CAF1FE
:101C60000E0EF66E030EF76E060E0101CC6F00012C
:101C70005FDD890EE96EC9C1CFF1C8C1CEF1C7C120
:101C8000CDF1C6C1CCF1020E0101D06F00014BDED7
:101C9000160EF66E030EF76E060E0101CC6F0001F4
:101CA00047DDCAC1CCF1570E0101CD6F000113D73A
:101CB0001E0EF66E030EF76E0F0E0101CC6F0001C3
:101CC00037DD0101CA51540809E12E0EF66E030EEC
:101CD000F76E0001CCEC09F008D00101380EF66E69
:101CE000030EF76E0001CCEC09F0400EF66E030E09
:101CF000F76ECCEC09F00101CA51540801E0C56B44
:101D0000C9C104F2C8C103F2C7C102F2C6C101F2DF
:101D10000201086B076BC60E066F850E056F00018A
:101D200000DF01E203E10101C5690001C5C1F2F173
:101D3000DCEC09F00101C437C437FC0EC417010EF6
:101D4000C525C427CB91CB930A0EF56F00010DEC8E
:101D500009F00A0E0101F56F00010DEC09F0010117
:101D6000C4512A080DE1070E6F6FE00E6E6F480E2A
:101D7000F66E030EF76E0001CCEC09F093D0010172
:101D8000000B0DE0CB836F69E00E6E6F540EF66EA4
:101D9000030EF76E0001CCEC09F00ED00101000B30
:101DA0000CE0CB81F80E6F6F6E6B640EF66E030E57
:101DB000F76E0001CCEC09F00101C433C4333F0ECF
:101DC000C417000B0DE0CB836F69E00E6E6F700ED1
:101DD000F66E030EF76E0001CCEC09F00ED0010197
:101DE000000B0CE0CB81F80E6F6F6E6B820EF66EFF
:101DF000030EF76E0001CCEC09F00101C433C433CB
:101E00003F0EC417000B0DE0CB836F69E00E6E6FC1
:101E1000900EF66E030EF76E0001CCEC09F00ED0BA
:101E20000101000B0CE0CB81F80E6F6F6E6BA60EFC
:101E3000F66E030EF76E0001CCEC09F00101C4331D
:101E4000C4333F0EC417CBA113D0010EDA6F0001CB
:101E50000FEC0AF00C0E1B6EB80EF66E030EF76E4A
:101E6000CCEC09F01B500C08FDE0FF001BD0010179
:101E7000DA6B00010FEC0AF00C0E1B6E100EF66E02
:101E8000040EF76ECCEC09F01B500C080BE11B5054
:101E90000B08D8B407D01B500A0801E1FF000C0E54
:101EA0001B6EF2D701016F696E69196AF2BE198E55
:101EB000F29E010E0201226F000169EC00F019BED2
:101EC000F28EA1EF38F0C050C00B0709C06EC08E73
:101ED000C280A00E7D6EC150F00B0809C16E010ECC
:101EE0000F015B6F000E5F6F5C6F5D6F5E6F0001D7
:101EF00012009298899802011C6B0001ACEC05F06D
:101F0000015000C0F6F102011C6B0001ACEC05F0C1
:101F1000015000C0F7F1929889880101F96BF6C170
:101F2000F8F1F837F937F837F937F837F937F8377C
:101F3000F937F837F937E00EF817F731006E00324D
:101F400000321F0E00160050F811006EF9C103F0A8
:101F5000E8CF05F2F9C106F200013FEC0AF003C038
:101F6000FBF102C0FAF101C0F9F100C0F8F103C0C1
:101F700006F202C005F201C004F200C003F2020141
:101F80000A6B096B086B830E076F00015AEC0AF0AD
:101F900003C0F5F102C0F4F101C0F3F100C0F2F1A9
:101FA0000101F751040B040809E1F2C100F0F3C18B
:101FB00001F0F4C102F0F5C103F006D0850E006E09
:101FC000C80E016E026A036A000112000101C86BAB
:101FD000C851100830E30201076BC8C106F2096B53
:101FE000030E086F00017CEC08F00101C6510124CA
:101FF000E96EC7510220EA6EEF6A0201076BC8C1A1
:1020000006F2096B030E086F00017CEC08F001C0BA
:10201000C9F1010E01010124016E000E0220036EC0
:102020000150C625E96EC7510320EA6EEC6AED52F5
:10203000EF6AC82BCDD70C0E1B6E00011200980E54
:10204000F66E050EF76ECCEC09F012000101CB53D1
:1020500008E09C0EF66E050EF76E0001CCEC09F060
:1020600001010A0EF56F00010DEC09F00A0E0101E5
:10207000F56F00010DEC09F012000101CC6BCB51A2
:10208000CC5D0AE2BC0EF66E020EF76E0001CCECDF
:1020900009F00101CC2BF3D7000112001A50030BF9
:1020A000FC0F1EE2040F71EF10F07C0EF66E040EB2
:1020B000F76ECCEC09F014D0860EF66E040EF76EB7
:1020C000CCEC09F00DD0900EF66E040EF76ECCEC51
:1020D00009F006D0980EF66E040EF76ECCEC09F0FF
:1020E0001200E824F76AF736FD0FF66E200EF7228D
:1020F0000A00F550FA6E0800F550F96EAA20B820D3
:10210000C620D4201A50030BFC0F1EE2040FA5EFCB
:1021100010F0A00EF66E040EF76ECCEC09F014D0A1
:10212000AE0EF66E040EF76ECCEC09F00DD0B80EC4
:10213000F66E040EF76ECCEC09F006D0C40EF66E07
:10214000040EF76ECCEC09F01200E824F76AF736BB
:10215000650FF66E210EF7220A00F550FA6E0800A0
:10216000F550F96E122120212E213C2168DF1A50F2
:10217000030BFC0F1EE2040F20EF11F09E0EF66E13
:10218000050EF76ECCEC09F014D0AE0EF66E050E0F
:10219000F76ECCEC09F00DD0B80EF66E050EF76EAA
:1021A000CCEC09F006D0C80EF66E050EF76ECCEC3E
:1021B00009F0010E0101CB6F000148DF030E0101A0
:1021C000CB6F00015ADF6ADF0101CB6B00013EDFFC
:1021D000030E0101CB6F000150DF1A50030BFC0FFF
:1021E0001EE2040F31EF11F0D60EF66E050EF76EFB
:1021F000CCEC09F014D0E60EF66E050EF76ECCECC2
:1022000009F00DD0F20EF66E050EF76ECCEC09F06B
:1022100006D0020EF66E060EF76ECCEC09F0010148
:10222000CB6B000113DF030E0101CB6F000125DF33
:1022300069DF200E0101F56F00010DEC09F01200BD
:10224000E824F76AF7365B0FF66E220EF7220A00D3
:10225000F550FA6E0800F550F96E7C218A2198211C
:10226000A621E824F76AF7367D0FF66E220EF722D4
:102270000A00F550FA6E0800F550F96EE821F621D3
:1022800004221222060E01017D5F200EF56F00016F
:102290000DEC09F0D7C1F6F1D8C1F7F16FEC08F0F9
:1022A0003E0E0101F56F00010DEC09F01200020E67
:1022B0000101D76F030ED86F0001E4DF1B500A083D
:1022C00005E10C0E1B6E060E016E09D01B500B08AB
:1022D00005E10C0E1B6E010E016E01D0EFD78AEFE7
:1022E00039F0F29CF29EF2BEFDD71A50030BFC0FA0
:1022F0001EE2040F9AEF11F0700EF66E050EF76EE7
:10230000CCEC09F014D0780EF66E050EF76ECCEC1E
:1023100009F00DD0800EF66E050EF76ECCEC09F0CC
:1023200006D08A0EF66E050EF76ECCEC09F0C00EE4
:10233000F2121200E824F76AF7364F0FF66E230EFA
:10234000F7220A00F550FA6E0800F550F96EF822EF
:10235000062314232223F29CF29EF2BEFDD70C0E1C
:102360000101F56F00010DEC09F098DE3A0E010154
:10237000F56F00010DEC09F00A0E0101F56F000187
:102380000DEC09F0140EF66E060EF76ECCEC09F0AB
:10239000A8DFC00EF212DDEF1CF00101CE534BE1BD
:1023A0007251CD5D48E27351CF5D45E2D05343E0B9
:1023B000D2C1D3F1D1C1D4F1CE5306E17251CD5D7A
:1023C00003E27351CF5D01E336D0D051CD25D56FF7
:1023D000000ECE21D66F010ED55F000ED65B03E155
:1023E0007251D55D03E3CD51725DD06F00019AEC5F
:1023F00005F0CEC113F2CDC112F2CFC114F2D0C19B
:1024000015F2010E0201166F000102EC07F0010146
:10241000D051D007000A0BE0D3C11CF20001ACEC94
:1024200005F0D4C11CF2ACEC05F0F1D701010001BC
:10243000BCEC05F00101000112000101FF5346E16F
:102440007251FE5D43E273510201005DD8A002D0DB
:1024500001013CD00153D8A402D0010137D003C2FE
:1024600004F202C205F201510025FF0F0101735D64
:1024700001E007E2020100510101735D0201016FF9
:10248000010100019AEC05F0FFC113F2FEC112F246
:1024900000C214F2010E0201156F01C216F2000112
:1024A00002EC07F0020101510107000A0BE004C22F
:1024B0001CF20001ACEC05F005C21CF2ACEC05F01E
:1024C000F1D702010001BCEC05F00101000112008E
:1024D0000C0E0101735DCB6F1B0E725DCC6FCE6B6A
:1024E000130ECD6FCBC1CFF1CCC1D0F16FC1D2F102
:1024F0006EC1D1F1000151DF1D0E0101735DCB6F83
:10250000FF6B150EFE6F140E0201006FCBC101F2BE
:102510006FC103F26EC102F200018FDF0101CE6BC9
:10252000130ECD6F140ECF6F050ED06F6FC1D2F1A9
:102530006EC1D1F1000131DF080E0101725DCB6F78
:102540000E0E735DCC6FFF6BCBC1FEF1E8CF00F2D6
:10255000050E0201016F6FC103F26EC102F20001AC
:102560006CDF12007DC1D3F17EC1D4F1F29CF29EEA
:10257000F2BEFDD71E0E0101725DD56F210E735D97
:10258000D66F0201026B160E016F150E036FD5C1D7
:1025900004F2D6C105F271C107F270C106F2000162
:1025A00076EC07F00101F66B020EF76F00016FEC9D
:1025B00008F0940EF66E020EF76ECCEC09F0050EE4
:1025C0000101795DD56FF66F7BC1F7F100016FEC0A
:1025D00008F09C0EF66E020EF76ECCEC09F00B0EB6
:1025E0000101F66F080EF76F00016FEC08F01A504A
:1025F000030BFC0F1EE2040F20EF13F0A20EF66E89
:10260000020EF76ECCEC09F014D0A80EF66E020E96
:10261000F76ECCEC09F00DD0AE0EF66E020EF76E32
:10262000CCEC09F006D0B40EF66E020EF76ECCECD0
:1026300009F0C00EF212D3C17DF1D4C17EF11200B7
:10264000E824F76AF7365B0FF66E260EF7220A00CB
:10265000F550FA6E0800F550F96EFC250A2618268A
:1026600026260101D451330DF350CE0FD56FF2CF92
:10267000D6F1F29ED5C1A9FFA69CA69EA680A85021
:10268000D6BFF28EFF0A000A28E1D451330DF35071
:10269000CF0FD56FF2CFD7F1F29ED5C1A9FFA69C7F
:1026A000A69EA680A850D7BFF28EFF0A000A15E1A9
:1026B000D451330DF350D00FD56FF2CFD8F1F29E35
:1026C000D5C1A9FFA69CA69EA680A850D8BFF28E11
:1026D000FF0A000A02E1010E01D0000E016E0001A6
:1026E00012008E0E006E0101FF51005E00C202F06A
:1026F00001C201F0028E005209E0D890025202E1BC
:10270000015204E002320132002EF7D7020100AF7D
:1027100005D0011E021E012AD8B4022A00011200AF
:10272000016A026A006A036A02010C5102E10B515C
:1027300018E0100E0D6FD89009370A3700360336AF
:102740000C51035C02E10B51005C07E30B51005E8E
:10275000D8A003060C51035ED880013602360D2F37
:10276000EAD700011200020100510125006ED89045
:1027700000320050025D6BE06AE30251015D036FBD
:102780000051015D006ED89000320050D880035592
:10279000046F076B1F0E066F096B04C208F200017D
:1027A0007CEC08F002C005F201C004F20201005105
:1027B000015D006ED890003200C006F202C00AF23D
:1027C00001C009F20C6B00C00BF20001A9DF02C0CE
:1027D00005F201C004F20201076B3F0E066F096BA0
:1027E00003C208F200017CEC08F002C007F201C04D
:1027F00006F202010051015D006ED890003200C067
:1028000008F202C00AF201C009F20C6B00C00BF220
:10281000000186DF02C007F201C006F202010134A6
:10282000026E0735036E0236033602360336023671
:10283000033602360336E00E021602500411006E13
:1028400003500511036E00C001F0026E74D00051F8
:102850000125006ED89000320050D8800255036FD9
:102860000051015D006ED89000320050D8800355B1
:10287000046F076B3F0E066F096B04C208F200017C
:102880007CEC08F002C005F201C004F20201005124
:10289000015D006ED890003200C006F202C00AF25C
:1028A00001C009F20C6B00C00BF2000139DF02C05D
:1028B00005F201C004F20201043705370437053779
:1028C000043705370437053704370537E00E04179A
:1028D000076B1F0E066F096B03C208F200017CEC48
:1028E00008F002C007F201C006F202010051015DCA
:1028F000006ED890003200C008F202C00AF201C097
:1029000009F20C6B00C00BF200010ADF02C007F2F3
:1029100001C006F2026A02010134036E0336033677
:10292000F80E031602500411006E03500511036ED9
:1029300000C001F0026E000112000101E26B0D0EF9
:10294000735DE46F1E0E725DE56FE86BE76BE66B1F
:10295000E96BDD51E95D4DE20201076BE9C106F269
:10296000096B030E086F00017CEC08F002C0FCF15B
:1029700001C0FBF10101DE510124E96EDF510220AB
:10298000EA6EEF50E65D13E20201076BE9C106F261
:10299000096B030E086F00017CEC08F00101DE51A9
:1029A0000124E96EDF510220EA6EEFCFE6F1020169
:1029B000076BE9C106F2096B030E086F00017CEC9E
:1029C00008F001C0FBF1010E01010124016E000EAF
:1029D0000220036E0150DE25E96EDF510320EA6E0E
:1029E000ECCF03F0ED52EF50E7270350E823E92B3B
:1029F000B0D70201066BE4C105F200013FEC0AF01A
:102A000003C0EDF102C0ECF101C0EBF100C0EAF14E
:102A1000010E0101E55D0201066B056F00013FEC4F
:102A20000AF003C0FEF102C0FDF101C0FCF100C0DC
:102A3000FBF1E8C106F2E7C105F23FEC0AF0FEC186
:102A400006F2FDC105F2FCC104F2FBC103F203C0B2
:102A50000AF202C009F201C008F200C007F25AEC03
:102A60000AF003C0F1F102C0F0F101C0EFF100C0C3
:102A7000EEF10101F56BF46BF36BF26B210E735DFC
:102A8000FB6F0201026B160E016F150E036FE5C19D
:102A900004F2FBC105F271C107F270C106F2000138
:102AA00076EC07F00101FA6BDD51FA5DD8B078EFF2
:102AB00019F00201076BFAC106F2096B030E086FE9
:102AC00000017CEC08F002C0FCF101C0FBF1010147
:102AD000DE510124E96EDF510220EA6EEF5002015F
:102AE000066B056F00013FEC0AF003C000F202C064
:102AF000FFF101C0FEF100C0FDF1EACF02F2E9CF23
:102B000001F2D882196AF2BE198EF29E03C023F236
:102B100002C022F201C021F200C020F2F5C127F26A
:102B2000F4C126F2F3C125F2F2C124F2BEEC03F0A7
:102B300019BEF28E02C2EAFF01C2E9FF03C000F231
:102B400002C0FFF101C0FEF100C0FDF10201076B00
:102B5000FAC106F2096B030E086F00017CEC08F065
:102B600001C003F2010E02010124016E000E0220D9
:102B7000036E01500101DE25E96EDF510320EA6E8C
:102B8000ECCF06F2ED52EFCF05F200013FEC0AF078
:102B900003C008F202C007F201C006F200C005F24D
:102BA000F1C10CF2F0C10BF2EFC10AF2EEC109F271
:102BB000ACEC0BF000C206F2FFC105F2FEC104F25C
:102BC000FDC103F203C00AF202C009F201C008F21B
:102BD00000C007F25AEC0AF003C0F9F102C0F8F1A4
:102BE00001C0F7F100C0F6F10101E181E36BE1A161
:102BF0007CD30201076BFAC106F2096B030E086F62
:102C000000017CEC08F002C0FCF101C0FBF1010EF8
:102C100001010124016E000E0220036E0150DE2529
:102C2000E96EDF510320EA6EECCF03F0ED52EFCFF7
:102C300005F203C006F200013FEC0AF0F1C108F210
:102C4000F0C107F2EFC106F2EEC105F203C00CF2CB
:102C500002C00BF201C00AF200C009F2ACEC0BF0AA
:102C600003C0FEF102C0FDF101C0FCF100C0FBF1A8
:102C7000EACF00F2E9CFFFF1D882196AF2BE198ECD
:102C8000F29E03C023F202C022F201C021F200C072
:102C900020F20201276B266B256B7F0E246F00014B
:102CA000BEEC03F019BEF28E00C2EAFFFFC1E9FFDD
:102CB00003C0FEF102C0FDF101C0FCF100C0FBF158
:102CC0000201066BE3C105F200013FEC0AF0FEC110
:102CD00004F2FDC103F2FCC102F2FBC101F203C028
:102CE00008F202C007F201C006F200C005F291EC42
:102CF0000DF001E203E10101E1910001D892196AAE
:102D0000F2BE198EF29EF5C123F2F4C122F2F3C194
:102D100021F2F2C120F2F9C127F2F8C126F2F7C17F
:102D200025F2F6C124F2BEEC03F019BEF28E03C008
:102D3000F5F102C0F4F101C0F3F100C0F2F1240E8C
:102D40000101735D0201066B056F00013FEC0AF0A3
:102D500003C0FEF102C0FDF101C0FCF100C0FBF1B7
:102D60000201066BE6C105F200013FEC0AF0FEC16C
:102D700006F2FDC105F2FCC104F2FBC103F203C07F
:102D80000AF202C009F201C008F200C007F25AECD0
:102D90000AF003C0FEF102C0FDF101C0FCF100C069
:102DA000FBF103C008F202C007F201C006F200C046
:102DB00005F2F5C10CF2F4C10BF2F3C10AF2F2C153
:102DC00009F2ACEC0BF003C0FEF102C0FDF101C052
:102DD000FCF100C0FBF10201066BE4C105F2000149
:102DE0003FEC0AF0D882196AF2BE198EF29E03C037
:102DF00023F202C022F201C021F200C020F2FEC183
:102E000027F2FDC126F2FCC125F2FBC124F2BEEC83
:102E100003F019BEF28E03C002F202C001F201C03B
:102E200000F200C0FFF15DDC01C07EF10101E05362
:102E3000D8B41DD10201066B7EC105F200013FEC42
:102E40000AF0D882196AF2BE198EF29EEDC123F201
:102E5000ECC122F2EBC121F2EAC120F203C027F259
:102E600002C026F201C025F200C024F2BEEC03F03D
:102E700019BEF28E03C0FEF102C0FDF101C0FCF1EB
:102E800000C0FBF10201046B036B026B016B03C01A
:102E900008F202C007F201C006F200C005F200010C
:102EA00091EC0DF06EE3160E0101E225FB6F010EB1
:102EB0007E25FC6FE251E55DFD6F0201066B7EC170
:102EC00005F200013FEC0AF0D882196AF2BE198EB1
:102ED000F29E03C023F202C022F201C021F200C020
:102EE00020F2EDC127F2ECC126F2EBC125F2EAC1D6
:102EF00024F2BEEC03F019BEF28E03C001F202C050
:102F000000F201C0FFF100C0FEF100C0FFF101C0FE
:102F100001F002C002F003C002F2019E02C001F201
:102F200001C000F271EC13F001C0FEF1F5C102F234
:102F3000F4C101F2F3C100F2F2C1FFF171EC13F040
:102F400001C0FFF10101FF1F0201006B0169FFC118
:102F500002F2000108DC02C000F201C0FFF1020130
:102F6000026BFBC101F2FCC103F2FDC104F2FEC120
:102F700005F202C007F201C006F2000176EC07F08C
:102F800074D0160E0101E225FB6FD892196AF2BEC9
:102F9000198EF29EEDC123F2ECC122F2EBC121F2B7
:102FA000EAC120F20201276B266B256B7F0E246F8E
:102FB0000001BEEC03F019BEF28E03C002F202C0A3
:102FC00001F201C000F200C0FFF171EC13F001C08A
:102FD000FCF10101E251E55DFD6F0201066B7EC16E
:102FE00005F200013FEC0AF0D882196AF2BE198E90
:102FF000F29E03C023F202C022F201C021F200C0FF
:1030000020F2EDC127F2ECC126F2EBC125F2EAC1B4
:1030100024F2BEEC03F019BEF28E03C001F202C02E
:1030200000F201C0FFF100C0FEF100C0FFF101C0DD
:1030300001F002C001F203C002F2019E01C000F2E1
:1030400071EC13F001C0FEF10201026BFBC101F251
:10305000FCC103F2FDC104F201C005F271C107F227
:1030600070C106F2000176EC07F02BD101010201DC
:10307000066B7EC105F200013FEC0AF0D882196AA6
:10308000F2BE198EF29EEDC123F2ECC122F2EBC129
:1030900021F2EAC120F203C027F202C026F201C0E9
:1030A00025F200C024F2BEEC03F019BEF28E03C07C
:1030B000FEF102C0FDF101C0FCF100C0FBF1020114
:1030C000046B036B026B016B03C008F202C007F2D2
:1030D00001C006F200C005F2000191EC0DF001E222
:1030E00072E1160E0101E225FB6F0201066B7EC143
:1030F00005F200013FEC0AF0D882196AF2BE198E7F
:10310000F29E03C023F202C022F201C021F200C0ED
:1031100020F2EDC127F2ECC126F2EBC125F2EAC1A3
:1031200024F2BEEC03F019BEF28E03C0FFF102C020
:10313000FEF101C0FDF100C0FCF100C000F001C0D3
:1031400001F002C002F003C003F0019E03C0FFF1D2
:1031500002C0FEF101C0FDF100C0FCF1D892196A75
:10316000F2BE198EF29E03C023F202C022F201C009
:1031700021F200C020F20201276B266B256B7F0E27
:10318000246F0001BEEC03F019BEF28E03C002F200
:1031900002C001F201C000F200C0FFF171EC13F0B7
:1031A00001C0FCF10101FF6BFBC1FEF17EC100F229
:1031B00001C001F2A50E0201036F340E026F00017F
:1031C0001DEC12F07ED0160E0101E225FB6FEDC161
:1031D00002F2ECC101F2EBC100F2EAC1FFF1000121
:1031E00071EC13F001C0FCF10201066B7EC105F227
:1031F00000013FEC0AF0D882196AF2BE198EF29EE5
:1032000003C023F202C022F201C021F200C020F26A
:10321000EDC127F2ECC126F2EBC125F2EAC124F29E
:10322000BEEC03F019BEF28E03C000F202C0FFF143
:1032300001C0FEF100C0FDF100C000F001C001F0CE
:1032400002C002F003C003F0019E03C000F202C0FE
:10325000FFF101C0FEF100C0FDF1D892196AF2BE83
:10326000198EF29E03C023F202C022F201C021F2A5
:1032700000C020F20201276B266B256B7F0E246FA6
:103280000001BEEC03F019BEF28E03C002F202C0D0
:1032900001F201C000F200C0FFF171EC13F001C0B7
:1032A000FDF10101FF6BFBC1FEF1FCC100F201C0A9
:1032B00001F2A50E0201036F340E026F00011DEC36
:1032C00012F00101E32BE22B0201066B7EC105F235
:1032D00000013FEC0AF003C0EDF102C0ECF101C0C7
:1032E000EBF100C0EAF1010182D4FA2B54EF15F0A2
:1032F000E0535DE0170EE225FB6FEDC102F2ECC179
:1033000001F2EBC100F2EAC1FFF1000171EC13F030
:1033100001C0FCF10101E251E55DFD6F0201066BA8
:10332000E4C105F200013FEC0AF0D882196AF2BE4E
:10333000198EF29E03C023F202C022F201C021F2D4
:1033400000C020F2EDC127F2ECC126F2EBC125F25C
:10335000EAC124F2BEEC03F019BEF28E03C001F202
:1033600002C000F201C0FFF100C0FEF100C0FFF199
:1033700001C001F002C001F203C002F2019E01C0CF
:1033800000F271EC13F001C0FEF10201026BFBC10F
:1033900001F2FCC103F2FDC104F201C005F271C1EA
:1033A00007F270C106F2000176EC07F00101E6C1F8
:1033B00001F0E7C102F0E8C103F000011200EACF1A
:1033C000F2F1E9CFF1F10101EB39F009ED6FED27F1
:1033D000E20FEE6F320FF06FEB510F0BEE27EE277F
:1033E000F027E90FEF6FEF27EF27EA390F0BEF27F1
:1033F000F027EF37F037F01FF037EA510F0BF027C7
:10340000ED37070EEC6F0A0EEF07F027FDE3EE072E
:10341000EF27FDE3ED07EE27FDE3EC07ED27FDE3E6
:10342000010EEA6EEC0EE96E070EF115F19DE9262C
:10343000000EEA22E950F00803E1EA2C01D0F18DF8
:10344000EF50006E08E1F1BD06D0F1B916D0F1B72A
:1034500002D0200E03D0F187F199300E0026EACF7A
:10346000EBF1E9CFEAF100C0F5F100010DEC09F054
:10347000EBC1EAFFEAC1E9FF0101EE50F1ADDAD795
:1034800000011200DEC1E0F1DDC1DFF10101E76BF7
:10349000200EDC25E16F000EE721E26F430EE56FA1
:1034A0001A50040B040823E1E2C107F2E1C106F25D
:1034B0000201096B090E086F00017CEC08F002C0E4
:1034C000E7F101C0E6F102C00AF201C009F202010F
:1034D0000C6B050E0B6F000190EC13F0200E010138
:1034E0000124E16F000E0220E26F460EE56FF66BDD
:1034F000020EF76F00016FEC08F0B00E0101F56FDE
:1035000000010DEC09F0E5C1F5F10DEC09F00A0E32
:103510000101F56F00010DEC09F00A0EE96EE2C140
:10352000EBF1E1C1EAF14BDF050E0101795DE66FD8
:10353000F66F7BC1F7F100016FEC08F01A50100B29
:10354000006E003A0F0E0016005035E0E0C10AF29E
:10355000DFC109F202010C6B3C0E0B6F000190EC15
:1035600013F002C0E7F101C0E6F1E0C10AF2DFC1E9
:1035700009F202010C6B3C0E0B6F000190EC13F092
:1035800000C0E8F1010103C0E9F10B0EE96EE7C1EB
:10359000EBF1E6C1EAF1000112DF3A0E0101F56F2D
:1035A00000010DEC09F00B0EE96EE9C1EBF1E8C189
:1035B000EAF105DF1FD01A50030B03080EE1090ED4
:1035C000E96EE0C1EBF1DFC1EAF1F9DE430E010182
:1035D000F56F00010DEC09F00DD0090EE96EE0C1A8
:1035E000EBF1DFC1EAF1EBDE530E0101F56F0001F3
:1035F0000DEC09F0E3C1F6F1E4C1F7F16FEC08F06E
:1036000012000101D3C1E9FFD4C1EAFF110EEF6E30
:10361000D86BD4C103F0D3C1E9FFD4C1EAFFEF50A6
:10362000D85DD8B0FBD00201076BD8C106F2096B98
:10363000030E086F00017CEC08F002C0DDF101C050
:10364000DCF10101D551DC25E96ED651DD21EA6EB0
:10365000D751330DF350CE0FE06FD851030DF35017
:10366000E027F2CFE1F1F29EE0C1A9FFA69CA69E61
:10367000A680A850E1BFF28EFF0AEF6E0201076B31
:10368000D8C106F2096B030E086F00017CEC08F04C
:1036900002C0DDF101C0DCF1010E0101DC25016E8B
:1036A000000EDD21036E0150D525E96ED6510320B1
:1036B000EA6ED751330DF350CF0FDE6FD851030DA3
:1036C000F350DE27F2CFDFF1F29EDEC1A9FFA69C08
:1036D000A69EA680A850DFBFF28EFF0AEC6AED52CC
:1036E000EF6E0201076BD8C106F2096B030E086F7B
:1036F00000017CEC08F001C0DCF1010E01010124A5
:10370000016E000E0220036E0150D525E96ED651E0
:103710000320EA6EEFCF03F0000EEF6E03C0ECFF64
:103720000201076BD8C106F2096B030E086F000196
:103730007CEC08F002C0DDF101C0DCF1010E0101FA
:10374000DC25016E000EDD21036E0150D525E96EEA
:10375000D6510320EA6ED751330DF350D00FE06FEE
:10376000D851030DF350E027F2CFE1F1F29EE0C112
:10377000A9FFA69CA69EA680A850E1BFF28EFF0AD4
:10378000EF10006EEC50036E0050ED52EF6E03C070
:10379000ECFFED520201076BD8C106F2096B030E74
:1037A000086F00017CEC08F002C0DDF101C0DCF123
:1037B0000101D5510124E96ED6510220EA6EEF5283
:1037C0002BE10201076BD8C106F2096B030E086FEB
:1037D00000017CEC08F001C0DEF1010E01010124C2
:1037E000016E000E0220036E0150D525E96ED65100
:1037F0000320EA6EECCFDFF1ED52EFCFDEF1DE53C6
:103800000BE1DF5309E1D4C103F0D3C1E9FF03C0E9
:10381000EAFFD8C1EFFF02D0D82BFBD6D4C103F00A
:10382000D3C1E9FFD4C1EAFFEFCFDDF1D6C1DFF1AB
:10383000D5C1DEF1010EE06F00019DEC14F003C074
:10384000DBF102C0DAF101C0D9F1DBC1DEF1DAC18E
:10385000DDF1D9C1DCF116DE62EF1CF07DC1D0F1E3
:103860007EC1D1F10101D281CF2D01D00BD0010E4B
:10387000CF5DD36FD46F000131EC13F00101D29111
:1038800001B0D281CFC1D4F1000131EC13F001526B
:1038900005E10101CF51060809E100010101D2B1A2
:1038A00004D00001B2EC12F001010DD0CCC1D4F172
:1038B000CBC1D3F1CEC1D6F1CDC1D5F1CFC1D7F1B6
:1038C00000019FD60101D0C17DF1D1C17EF100017F
:1038D0001200200E0101D1A9300ED26FD0C100F02C
:1038E000D0AF08D0001E002A00C0D0F12D0ED26F3C
:1038F000D18FD1810150D0C1F8F1640EF96F000170
:1039000070EC06F000C0D0F1300E01240101D36F3D
:10391000D0C1F8F10A0EF96F000170EC06F0300E1C
:1039200000240101D56F300E0124D46FD2C100F004
:10393000300ED35D04E0D183D1BFD18512D0D2C186
:10394000D3F1200ED26F300ED45D04E0D181D1BF0F
:10395000D18307D0D8A4D18104E1D3C1D4F1200E02
:10396000D36FD1B505D0D1B308D0D1B10BD00FD022
:10397000D2C1F5F100010DEC09F0D3C1F5F1000160
:103980000DEC09F0D4C1F5F100010DEC09F0D5C141
:10399000F5F100010DEC09F012001A50E00B006E79
:1039A00000380101CA6FCA33070ECA17CA5302E1B1
:1039B000010ECA6F0001ABEF11F0010E0101CA5DEB
:1039C000030DF350010FCB6FD76F010ED86F0001BD
:1039D00042EC11F068EC12F0B2EC12F0C7C1CCF17D
:1039E000C6C1CBF1C9C1CEF1C8C1CDF1CAC1CFF1B9
:1039F00035DF1B500A0821E10C0E1B6E0101CA5174
:103A0000050803E2010ECA6F01D0CA2B010ECA5D80
:103A1000030DF350010FCB6FD76F010ED86F00016C
:103A200042EC11F0C7C1CCF1C6C1CBF1C9C1CEF196
:103A3000C8C1CDF1CAC1CFF111DF1B500B08D8A40A
:103A40001FD10C0E1B6E0101CA5105081CE2090EA4
:103A5000725DCB6F0E0E735DCC6F0201026BCBC13A
:103A600001F2036F020E046F050E056F71C107F2BC
:103A700070C106F2000176EC07F0B6EC10F0000E13
:103A8000016EFFD001011A501F0BCB6FCA39006EB7
:103A90000036E00E00160050CB111A6EF66BF76B75
:103AA00000016FEC08F01A50030BFC0F1EE2040F2C
:103AB00043EF1EF03E0EF66E0A0EF76ECCEC09F0E8
:103AC00014D0460EF66E0A0EF76ECCEC09F00DD04F
:103AD0004E0EF66E0A0EF76ECCEC09F006D0560EBE
:103AE000F66E0A0EF76ECCEC09F0200E0101F56FB0
:103AF00000010DEC09F0CAC1D0F1180E0101D16F1F
:103B00000001E7DE3A0E0101F56F00010DEC09F04E
:103B10000A0E0101F56F00010DEC09F0CAC1D4F1E4
:103B200031EC13F0015251E0200E0101F56F00015C
:103B30000DEC09F03E0E0101F56F00010DEC09F0EE
:103B40001A50030BFC0F1EE2040F54EF1EF05E0E22
:103B5000F66E0A0EF76ECCEC09F014D0640EF66E19
:103B60000A0EF76ECCEC09F00DD06C0EF66E0A0E54
:103B7000F76ECCEC09F006D0720EF66E0A0EF76EF8
:103B8000CCEC09F0080E01017E5DCB6F7D51725DBA
:103B9000CC6F0201026B7DC101F2CBC103F2046F55
:103BA000080E056F71C107F270C106F2000176ECD4
:103BB00007F00101C6C1E9FFC7C1EAFF010EEF6EC0
:103BC000020E016E00015DD05BD0020E0101CB6FD1
:103BD00000013DEC10F01A50030BFC0F1EE2040F25
:103BE00065EF1EF07C0EF66E0A0EF76ECCEC09F057
:103BF00014D0840EF66E0A0EF76ECCEC09F00DD0E0
:103C00008A0EF66E0A0EF76ECCEC09F006D0920E14
:103C1000F66E0A0EF76ECCEC09F0020E0101CB6FC6
:103C200000013DEC10F01A50030BFC0F1EE2040FD4
:103C300076EF1EF09C0EF66E0A0EF76ECCEC09F0D5
:103C400014D0A40EF66E0A0EF76ECCEC09F00DD06F
:103C5000AA0EF66E0A0EF76ECCEC09F006D0B20E84
:103C6000F66E0A0EF76ECCEC09F0020E0101CB6F76
:103C700000013DEC10F071EC11F0030E016E01D06B
:103C8000B8D69AEF39F0E824F76AF736A10FF66E46
:103C90003C0EF7220A00F550FA6E0800F550F96E56
:103CA000B43AC23AD03ADE3AE824F76AF736C30F9C
:103CB000F66E3C0EF7220A00F550FA6E0800F55039
:103CC000F96E4E3B5C3B6A3B783BE824F76AF7367B
:103CD000E50FF66E3C0EF7220A00F550FA6E08006A
:103CE000F550F96EE43BF23B003C0E3CE824F76AE9
:103CF000F736070FF66E3D0EF7220A00F550FA6E02
:103D00000800F550F96E343C423C503C5E3C1B5080
:103D10000A0805E10C0E1B6E010E016E09D01B5046
:103D20000B0805E10C0E1B6E1D0E016E01D0EFD7C6
:103D3000A0EF39F0010E0101D76FD86F000142ECFE
:103D400011F01B500A0805E10C0E1B6E040E016EEB
:103D500009D01B500B0805E10C0E1B6E1E0E016EE8
:103D600001D0EFD7A6EF39F0090E0101D76F010E90
:103D7000D86F000142EC11F01B500A0805E10C0E4F
:103D80001B6E050E016E09D01B500B0805E10C0ED1
:103D90001B6E1D0E016E01D0EFD7ACEF39F0110E86
:103DA0000101D76F010ED86F000142EC11F01B50DA
:103DB0000A0805E10C0E1B6E030E016E09D01B50A4
:103DC0000B0805E10C0E1B6E010E016E01D0EFD742
:103DD000B2EF39F0020E0101D76F050ED86F000166
:103DE00042EC11F00101C4C1E9FFC5C1EAFF010EB7
:103DF000EF6E1B500A0805E10C0E1B6E070E016EDC
:103E000015D01B500B0811E10C0E1B6E1F0E1A165D
:103E1000C00EF66E0A0EF76E0001CCEC09F068ECED
:103E200012F01D0E016E010101D0E3D70001BEEFBB
:103E300039F0030E0101CB6F00013DEC10F01A5078
:103E4000030BFC0F1EE2040F42EF1FF0CE0EF66EC6
:103E5000040EF76ECCEC09F014D0D60EF66E040EFC
:103E6000F76ECCEC09F00DD0DC0EF66E040EF76E9A
:103E7000CCEC09F006D0E20EF66E040EF76ECCEC38
:103E800009F01200E824F76AF7369F0FF66E3E0E2F
:103E9000F7220A00F550FA6E0800F550F96E4C3E14
:103EA0005A3E683E763E030E0101CB6F00013DECA9
:103EB00010F01A50030BFC0F1EE2040F7CEF1FF0F2
:103EC000EA0EF66E040EF76ECCEC09F014D0F60E86
:103ED000F66E040EF76ECCEC09F00DD0FC0EF66E0B
:103EE000040EF76ECCEC09F006D0020EF66E050E4D
:103EF000F76ECCEC09F01200E824F76AF736130FDE
:103F0000F66E3F0EF7220A00F550FA6E0800F550E3
:103F1000F96EC03ECE3EDC3EEA3E030E0101CB6FA1
:103F200000013DEC10F01A50030BFC0F1EE2040FD1
:103F3000B6EF1FF00A0EF66E050EF76ECCEC09F028
:103F400014D0120EF66E050EF76ECCEC09F00DD003
:103F50001C0EF66E050EF76ECCEC09F006D0240EA2
:103F6000F66E050EF76ECCEC09F01200E824F76A45
:103F7000F736870FF66E3F0EF7220A00F550FA6EFD
:103F80000800F550F96E343F423F503F5E3F1FEC52
:103F900010F082EC10F0010E0101CB6F000126EC55
:103FA00010F047DF0101CB6B000126EC10F07BDF46
:103FB0000101CB6B000126EC10F0AFDF0101CB6BF0
:103FC000000126EC10F0030E0101CB6F00013DEC67
:103FD00010F071EC11F01200020E0101D76F070E04
:103FE000D86F000142EC11F01B500A0809E10C0ED9
:103FF0001B6E1A501F0B20091A6E000E016E0AD09C
:104000001B500B0806E10C0E1B6EC1DF080E016E83
:1040100001D0EAD7C4EF39F0060E0101CB6F0001E1
:104020003DEC10F01A50030BFC0F1EE2040F35EFAD
:1040300020F02C0EF66E050EF76ECCEC09F014D0C5
:10404000340EF66E050EF76ECCEC09F00DD03C0E7A
:10405000F66E050EF76ECCEC09F006D0440EF66E47
:10406000050EF76ECCEC09F01200E824F76AF7367B
:10407000850FF66E400EF7220A00F550FA6E080022
:10408000F550F96E324040404E405C40060E010152
:10409000CB6F00013DEC10F01A50030BFC0F1EE239
:1040A000040F6FEF20F04C0EF66E050EF76ECCECA1
:1040B00009F014D0540EF66E050EF76ECCEC09F034
:1040C0000DD05E0EF66E050EF76ECCEC09F006D044
:1040D000660EF66E050EF76ECCEC09F01200E824C1
:1040E000F76AF736F90FF66E400EF7220A00F55020
:1040F000FA6E0800F550F96EA640B440C240D040B8
:104100001FEC10F082EC10F0010E0101CB6F0001EA
:1041100026EC10F08EDE010E0101CB6F000126ECC3
:1041200010F07ADF0101CB6B000126EC10F0AEDF5E
:104130000101CB6B000126EC10F0060E0101CB6FE4
:1041400000013DEC10F071EC11F01200020E0101C3
:10415000D76F030ED86F000142EC11F01B500A0814
:1041600005E10C0E1B6E120E016E0AD01B500B08DF
:1041700006E10C0E1B6EC4DF090E016E01D0EED7F6
:10418000CAEF39F01FEC10F082EC10F0010E0101C3
:10419000CB6F000126EC10F04CDE010E0101CB6F5D
:1041A000000126EC10F038DF010E0101CB6F000199
:1041B00026EC10F0090E0101CB6F00013DEC10F070
:1041C0001AA007D0260EF66E060EF76ECCEC09F09C
:1041D00006D02C0EF66E060EF76ECCEC09F001013F
:1041E000CB6B000126EC10F0090E0101CB6F000132
:1041F0003DEC10F0320EF66E060EF76ECCEC09F0C8
:104200001AA00DD0430E0101F56F00010DEC09F06D
:10421000430E0101F56F00010DEC09F00CD0530EB7
:104220000101F56F00010DEC09F0530E0101F56F6E
:1042300000010DEC09F00101CB6B000126EC10F040
:10424000090E0101CB6F00013DEC10F071EC11F093
:104250003FEF21F0050E0101D76FD86F000142EC4E
:1042600011F01B500A0805E10C0E1B6E0D0E016EBD
:104270000AD01B500B0806E10C0E1B6E83D70B0EE9
:10428000016E01D0EED7D0EF39F0080E0101D76FE3
:10429000090ED86F000142EC11F01B500A0804E12E
:1042A0000C0E1B6E016E3BD01B500B0837E10C0E41
:1042B0001B6EF2CFC4F1F29EA96AA69CA69EA680B0
:1042C000A8500101C4BFF28EFF0AEF0B1009FF0ACC
:1042D000C56FF250006EF29EA96AC5C1A8FFA69CE8
:1042E000A69EA6840F01550EA76EAA0EA76EA682E3
:1042F000A6B2FED7A6940050F212F2CFC4F1F29EFD
:10430000A96AA69CA69EA680A8500101C4BFF28EF1
:10431000FF0A1A6E0C0E016E000101D0BED7D6EF57
:1043200039F0080E0101D76F070ED86F000142EC7B
:1043300011F01B500A0805E10C0E1B6E0A0E016EEF
:104340003AD01B500B0836E10C0E1B6EF2CFC4F1B5
:10435000F29EA96AA69CA69EA680A8500101C4BF91
:10436000F28EFF0AEF0BFF0AC56FF250006EF29E4D
:10437000A96AC5C1A8FFA69CA69EA6840F01550EDA
:10438000A76EAA0EA76EA682A6B2FED7A69400506C
:10439000F212F2CFC4F1F29EA96AA69CA69EA68054
:1043A000A8500101C4BFF28EFF0A1A6E0C0E016EF6
:1043B000000101D0BED7DCEF39F0080E0101D76F44
:1043C0000B0ED86F000142EC11F01B500A0805E1FA
:1043D0000C0E1B6E0B0E016E0AD01B500B0806E173
:1043E0000C0E1B6E8DDE090E016E01D0EED7E2EFD2
:1043F00039F01FEC10F082EC10F0010E0101CB6FD0
:10440000000126EC10F015DD010E0101CB6F00015B
:1044100026EC10F03BDE010E0101CB6F000126EC13
:1044200010F0090E0101CB6F00013DEC10F01A50A5
:10443000030BFC0F1EE2040F75EF22F0360EF66E32
:10444000060EF76ECCEC09F014D0400EF66E060E98
:10445000F76ECCEC09F00DD04A0EF66E060EF76E34
:10446000CCEC09F006D0520EF66E060EF76ECCECD0
:1044700009F00101CB6B000126EC10F0090E0101DF
:10448000CB6F00013DEC10F01A50030BFC0F1EE245
:10449000040F86EF22F05E0EF66E060EF76ECCEC81
:1044A00009F014D0680EF66E060EF76ECCEC09F02B
:1044B0000DD0700EF66E060EF76ECCEC09F006D03D
:1044C000780EF66E060EF76ECCEC09F00101CB6BA0
:1044D000000126EC10F0090E0101CB6F00013DEC4C
:1044E00010F071EC11F0ADEF22F0E824F76AF73626
:1044F000050FF66E450EF7220A00F550FA6E080019
:10450000F550F96E3C444A4458446644E824F76A3E
:10451000F736270FF66E450EF7220A00F550FA6EB1
:104520000800F550F96E9644A444B244C044050E08
:104530000101D76F070ED86F000142EC11F01B503C
:104540000A0805E10C0E1B6E110E016E0AD01B50FD
:104550000B0806E10C0E1B6E4CD70F0E016E01D03E
:10456000EED7E8EF39F0080E0101D76F090ED86FCA
:10457000000142EC11F01B500A0805E10C0E1B6E05
:10458000100E016E3BD01B500B0837E10C0E1B6E5A
:10459000F2CFC4F1F29EA96AA69CA69EA680A8505E
:1045A0000101C4BFF28EFF0AF70B0809FF0AC56FAD
:1045B000F250006EF29EA96AC5C1A8FFA69CA69EF5
:1045C000A6840F01550EA76EAA0EA76EA682A6B2EC
:1045D000FED7A6940050F212F2CFC4F1F29EA96A5F
:1045E000A69CA69EA680A8500101C4BFF28EFF0A19
:1045F0001A6E100E016E000101D0BDD7EEEF39F03A
:10460000080E0101D76F070ED86F000142EC11F0C0
:104610001B500A0805E10C0E1B6E0E0E016E3AD0FF
:104620001B500B0836E10C0E1B6EF2CFC4F1F29E4C
:10463000A96AA69CA69EA680A8500101C4BFF28EBE
:10464000FF0AF70BFF0AC56FF250006EF29EA96ACF
:10465000C5C1A8FFA69CA69EA6840F01550EA76EF5
:10466000AA0EA76EA682A6B2FED7A6940050F2129A
:10467000F2CFC4F1F29EA96AA69CA69EA680A8507D
:104680000101C4BFF28EFF0A1A6E100E016E000106
:1046900001D0BED7F4EF39F0080E0101D76F0B0E31
:1046A000D86F000142EC11F01B500A0805E10C0E16
:1046B0001B6E0F0E016E0AD01B500B0806E10C0E8C
:1046C0001B6E1EDD0D0E016E01D0EED7FAEF39F034
:1046D000050E0101D76F090ED86F000142EC11F0F1
:1046E0001B500A0805E10C0E1B6E090E016E0AD064
:1046F0001B500B0806E10C0E1B6E49DC080E016E08
:1047000001D0EED700EF3AF01FEC10F082EC10F081
:10471000010E0101CB6F000126EC10F053EC1FF0ED
:10472000010E0101CB6F000126EC10F0060E010115
:10473000CB6F00013DEC10F0B00E0101F56F0001F0
:104740000DEC09F0430E0101F56F00010DEC09F0CD
:104750000101CB6B000126EC10F0060E0101CB6FBE
:1047600000013DEC10F0B00E0101F56F00010DEC01
:1047700009F0460E0101F56F00010DEC09F0010191
:10478000CB6B000126EC10F0060E0101CB6F00018F
:104790003DEC10F071EC11F0E4EF23F0020E01019A
:1047A000D76F050ED86F000142EC11F01B500A08BC
:1047B00005E10C0E1B6E160E016E0AD01B500B0885
:1047C00006E10C0E1B6EA0D7130E016E01D0EED7C2
:1047D00006EF3AF0050E0101D76FD86F000142ECE9
:1047E00011F01B500A0805E10C0E1B6E140E016E31
:1047F0003AD01B500B0836E10C0E1B6EF2CFC4F101
:10480000F29EA96AA69CA69EA680A8500101C4BFDC
:10481000F28EFF0AFB0BFF0AC56FF250006EF29E8C
:10482000A96AC5C1A8FFA69CA69EA6840F01550E25
:10483000A76EAA0EA76EA682A6B2FED7A6940050B7
:10484000F212F2CFC4F1F29EA96AA69CA69EA6809F
:10485000A8500101C4BFF28EFF0A1A6E150E016E38
:10486000000101D0BED70CEF3AF0050E0101D76F61
:10487000070ED86F000142EC11F01B500A0805E149
:104880000C0E1B6E150E016E3BD01B500B0837E152
:104890000C0E1B6EF2CFC4F1F29EA96AA69CA69ED6
:1048A000A680A8500101C4BFF28EFF0AFB0B0409C9
:1048B000FF0AC56FF250006EF29EA96AC5C1A8FF3B
:1048C000A69CA69EA6840F01550EA76EAA0EA76EE3
:1048D000A682A6B2FED7A6940050F212F2CFC4F17F
:1048E000F29EA96AA69CA69EA680A8500101C4BFFC
:1048F000F28EFF0A1A6E150E016E000101D0BDD7AF
:1049000012EF3AF0050E0101D76F090ED86F0001C2
:1049100042EC11F01B500A0805E10C0E1B6E130E41
:10492000016E0BD01B500B0807E10C0E1B6EC7EC81
:104930001FF0120E016E01D0EDD718EF3AF01FEC08
:1049400010F082EC10F0010E0101CB6F000126EC9B
:1049500010F08DEC1FF0010E0101CB6F000126EC71
:1049600010F0060E0101CB6F00013DEC10F0840E3B
:10497000F66E060EF76ECCEC09F00101CB6B000170
:1049800026EC10F0060E0101CB6F00013DEC10F09B
:104990008C0EF66E060EF76ECCEC09F00101CB6BB7
:1049A000000126EC10F0060E0101CB6F00013DEC7A
:1049B00010F0940EF66E060EF76ECCEC09F00101C5
:1049C000CB6B000126EC10F0060E0101CB6F00014D
:1049D0003DEC10F09E0EF66E060EF76ECCEC09F074
:1049E0000101CB6B000126EC10F0060E0101CB6F2C
:1049F00000013DEC10F071EC11F01200020E01010B
:104A0000D76F070ED86F000142EC11F01B500A0857
:104A100005E10C0E1B6E1C0E016E0AD01B500B081C
:104A200006E10C0E1B6E8BDF170E016E01D0EED768
:104A30001EEF3AF0050E0101D76FD86F000142EC6E
:104A400011F01B500A0805E10C0E1B6E180E016ECA
:104A50003BD01B500B0837E10C0E1B6EF2CFC4F19C
:104A6000F29EA96AA69CA69EA680A8500101C4BF7A
:104A7000F28EFF0AFC0BFF0AC56FF250006EF29E29
:104A8000A96AC5C1A8FFA69CA69EA6840F01550EC3
:104A9000A76EAA0EA76EA682A6B2FED7A694005055
:104AA000F212F2CFC4F1F29EA96AA69CA69EA6803D
:104AB000A8500101C4BFF28EFF0A1A6E00013FDF49
:104AC0001B0E016E01D0BDD724EF3AF0050E010197
:104AD000D76F070ED86F000142EC11F01B500A0887
:104AE00005E10C0E1B6E190E016E3CD01B500B081D
:104AF00038E10C0E1B6EF2CFC4F1F29EA96AA69C9F
:104B0000A69EA680A8500101C4BFF28EFF0AFC0B2E
:104B10000109FF0AC56FF250006EF29EA96AC5C175
:104B2000A8FFA69CA69EA6840F01550EA76EAA0EEE
:104B3000A76EA682A6B2FED7A6940050F212F2CFBC
:104B4000C4F1F29EA96AA69CA69EA680A850010167
:104B5000C4BFF28EFF0A1A6E0001F1DE1B0E016E59
:104B600001D0BCD72AEF3AF0050E0101D76F090E2C
:104B7000D86F000142EC11F01B500A0805E10C0E41
:104B80001B6E1A0E016E3CD01B500B0838E10C0E48
:104B90001B6EF2CFC4F1F29EA96AA69CA69EA680C7
:104BA000A8500101C4BFF28EFF0AFC0B0209FF0AE4
:104BB000C56FF250006EF29EA96AC5C1A8FFA69CFF
:104BC000A69EA6840F01550EA76EAA0EA76EA682FA
:104BD000A6B2FED7A6940050F212F2CFC4F1F29E14
:104BE000A96AA69CA69EA680A8500101C4BFF28E09
:104BF000FF0A1A6E0001A3DE1B0E016E01D0BCD7A6
:104C000030EF3AF0050E0101D76F0B0ED86F00019F
:104C100042EC11F01B500A0805E10C0E1B6E1B0E36
:104C2000016E3CD01B500B0838E10C0E1B6EF2CF0E
:104C3000C4F1F29EA96AA69CA69EA680A850010176
:104C4000C4BFF28EFF0AFC0B0309FF0AC56FF250C6
:104C5000006EF29EA96AC5C1A8FFA69CA69EA68466
:104C60000F01550EA76EAA0EA76EA682A6B2FED79A
:104C7000A6940050F212F2CFC4F1F29EA96AA69C4B
:104C8000A69EA680A8500101C4BFF28EFF0A1A6E2C
:104C9000000155DE1B0E016E01D0BCD736EF3AF095
:104CA000050E0101D76F0D0ED86F000142EC11F017
:104CB0001B500A0805E10C0E1B6E170E016E0BD07F
:104CC0001B500B0807E10C0E1B6EC7EC1FF0160EF5
:104CD000016E01D0EDD73CEF3AF0020E0101D76F23
:104CE000090ED86F000142EC11F01B500A0805E1D3
:104CF0000C0E1B6E080E016E0BD01B500B0807E14B
:104D00000C0E1B6EB6EC10F0070E016E01D0EDD745
:104D100042EF3AF07DC1D8F17EC1D9F1040E010114
:104D2000795DDA6FF66FF76B00016FEC08F0010147
:104D3000D651E80810E1D75103080DE1740EF66E64
:104D4000070EF76E0001CCEC09F0D8C17DF1D9C196
:104D50007EF11FD00101D63D0FD0D73D0DD0780E8A
:104D6000F66E070EF76E0001CCEC09F0D8C17DF1AC
:104D7000D9C17EF10ED001010A0EE96ED7C1EBF167
:104D8000D6C1EAF10001DFEC19F0D8C17DF1D9C13B
:104D90007EF11200200E0101DBA9300EDC6FDAC1BA
:104DA00000F0DAAF08D0001E002A00C0DAF12D0EA4
:104DB000DC6FDB8FDB810150DAC1F8F1640EF96F33
:104DC000000170EC06F000C0DAF1300E01240101A0
:104DD000DD6FDAC1F8F10A0EF96F000170EC06F030
:104DE000300E00240101DF6F300E0124DE6FDCC1C4
:104DF00000F0300EDD5D04E0DB83DBBFDB8512D02D
:104E0000DBB510D0DCC1DDF1DBB304D0300EDE5DEC
:104E100004E0DB81DBBFDB8305D0D8A4DB81D8B421
:104E2000DDC1DEF1DBB505D0DBB308D0DBB10BD0E3
:104E30000FD0DCC1F5F100010DEC09F0DDC1F5F199
:104E400000010DEC09F0DEC1F5F100010DEC09F0F7
:104E5000DFC1F5F100010DEC09F012007DC1D6F1C2
:104E60007EC1D7F1040E0101795DDA6FF66F010E94
:104E7000F76F00016FEC08F01A50100B100842E1B8
:104E8000D5C10AF2D4C109F202010C6B3C0E0B6FC2
:104E9000000190EC13F002C0DBF101C0DAF102C0B6
:104EA0000AF201C009F202010C6B640E0B6F0001E3
:104EB00090EC13F000C0D8F1D5C10AF2D4C109F2C8
:104EC00002010C6B3C0E0B6F000190EC13F000C064
:104ED000D9F10101D8C1DAF1010EDB6F00015ADF0F
:104EE0003A0E0101F56F00010DEC09F0D9C1DAF1BC
:104EF000010E0101DB6F00014DDFD6C17DF1D7C18D
:104F00007EF127D01AA013D0090EE96ED5C1EBF1BE
:104F1000D4C1EAF1DFEC19F0430E0101F56F000195
:104F20000DEC09F0D6C17DF1D7C17EF112D0090E8A
:104F3000E96ED5C1EBF1D4C1EAF1DFEC19F0530E03
:104F40000101F56F00010DEC09F0D6C17DF1D7C16B
:104F50007EF112000101CFC1E9FFD0C1EAFFD46B9D
:104F6000EFCFD3F1050E795DD66FD76FD86B000107
:104F700042EC11F01B500B08D8B4B3D01B500A08F8
:104F8000D8A47ED00C0E1B6E0101D35365E1D4531F
:104F900063E1DA6B00010FEC0AF0D2C103F001010A
:104FA000D1C1E9FFD2C1EAFFEF503F0B01084CE14C
:104FB0001A50E00B006E0038D56FD533070ED517A9
:104FC000D55303E1060E016E02D1D551330DF350D6
:104FD000CE0FD66FF2CFD7F1F29ED6C1A9FFA69C15
:104FE000A69EA680A850D7BFF28EFF0A000A29E12C
:104FF000D551330DF350CF0FD66FF2CFD8F1F29ECB
:10500000D6C1A9FFA69CA69EA680A850D8BFF28EA6
:10501000FF0A000A16E1D551330DF350D00FD66FB9
:10502000F2CFD9F1F29ED6C1A9FFA69CA69EA6807A
:10503000A850D9BFF28EFF0A000A03E1020E016EEA
:10504000C6D0040E016EC3D0D1C1E9FFD2C1EAFFC0
:10505000EF06200E016EBBD0D4C10AF2D3C109F213
:1050600002010C6B0A0E0B6F000190EC13F002C0F2
:10507000D4F101C0D3F1D4C1D7F1D3C1D6F14ADE06
:105080001B5009082DE3D4C107F2D3C106F2020177
:10509000096B0A0E086F00017CEC08F002C0D7F122
:1050A00001C0D6F11B500101D627000ED723D7C16E
:1050B0000AF2D6C109F2030E02010C6FE80E0B6F63
:1050C000000190EC13F000C0D3F1010103C0D4F152
:1050D0000C0E1B6ED4C1D7F1D3C1D6F100011ADE7C
:1050E00049D70C0E1B6E1A50040B04082DE1010168
:1050F000D45306E1D3511F0803E3D46B200ED36FC2
:10510000200ED35DD66F000ED459D76FE8CF07F2CB
:10511000D6C106F20201096B050E086F00017CEC96
:1051200008F002C0D7F101C0D6F102C00AF201C0F6
:1051300009F202010C6B090E0B6F000190EC13F0E9
:1051400002C0D4F101C0D3F10101D4530EE1D35117
:1051500020080BE3CFC1E9FFD0C1EAFFEF6AD769AE
:10516000D6690001D7DD23D00101D451000812E235
:10517000FF0A03E1D3511E080DE2CFC1E9FFD0C100
:10518000EAFFEF68030ED76FE80ED66F0001C2DDAD
:105190000ED00101CFC1E9FFD0C1EAFF200ED35DDF
:1051A000006E000ED459036E00C0EFFF00011A50CC
:1051B000100B006E003A0F0E0016005005E0650E51
:1051C000016E010104D00001670E016E01010001B2
:1051D00021EF2EF0050E0101795DD16FD76F010E21
:1051E000D86F000142EC11F01B500B08D8B4A0D0CE
:1051F0001B500A0847E10C0E1B6ED0C103F00101E1
:10520000CFC1E9FFD0C1EAFFECCFD2F1ED52EFCF31
:10521000D1F1D15305E1D25303E1640E016EA4D064
:10522000D0C103F0CFC1E9FFD0C1EAFFECCF0AF251
:10523000ED52EFCF09F202010C6B0A0E0B6F000169
:1052400090EC13F001C0EFFF02C0ECFFD0C103F0FF
:105250000101CFC1E9FFD0C1EAFFECCF07F2ED5267
:10526000EFCF06F20201096B3C0E086F00017CECE7
:1052700008F002C0D2F101C0D1F102C0D5F101C0E5
:10528000D4F1ECDD1B50090852E30101CFC1D1F18B
:10529000D0C1D2F1D0C103F0CFC1E9FFD0C1EAFF44
:1052A000ECCF07F2ED52EFCF06F20201096B0A0EC6
:1052B000086F00017CEC08F002C0D4F101C0D3F10A
:1052C0001B500101D327000ED423D4C10AF2D3C14D
:1052D00009F202010C6B640E0B6F000190EC13F0ED
:1052E0000101D2C1EAFFD1C1E9FF03C0ECFFED52D9
:1052F00000C0EFFF0C0E1B6ED0C103F0CFC1E9FF61
:10530000D0C1EAFFECCF07F2ED52EFCF06F2020177
:10531000096B3C0E086F00017CEC08F002C0D2F172
:1053200001C0D1F102C0D5F101C0D4F197DD5CD745
:105330000C0E1B6ED0C103F00101CFC1E9FFD0C13B
:10534000EAFFECCF07F2ED52EFCF06F20201096B54
:105350003C0E086F00017CEC08F001C0EFFF02C0BA
:10536000ECFF660E016E010100012CEF2EF0010131
:10537000D16B1B500B085BE01B500A0827E10C0E99
:105380001B6ED15303E1650E016E62D0D1C1F8F1FD
:105390000A0EF96F000170EC06F001C0D1F1D0C126
:1053A00003F00101CFC1E9FFD0C1EAFFECCFD3F197
:1053B000ED52EFCFD2F1D151D227000ED323D3C17A
:1053C000D5F1D2C1D4F1000149DD01011B5009081A
:1053D0002DE3D1C1F8F10A0EF96F000170EC06F06F
:1053E00000500A0DF3501B240101D16F0C0E1B6EEF
:1053F000D0C103F0CFC1E9FFD0C1EAFFECCFD3F1B8
:10540000ED52EFCFD2F1D1C1F8F13C0EF96F0001AE
:1054100070EC06F000500101D227000ED323D3C157
:10542000D5F1D2C1D4F1000119DD0101A2D70C0ED2
:105430001B6ECFC1E9FFD0C1EAFFD151EF24016E4D
:10544000000EEC20ED5201C0EFFFEC6E680E016E15
:10545000000137EF2EF0050E0101795DD16FD76F96
:10546000010ED86F000142EC11F01B500B08D8B4AC
:1054700086D01B500A0839E10C0E1B6ED0C103F018
:105480000101CFC1E9FFD0C1EAFFECCFD2F1ED526B
:10549000EFCFD1F1D15305E1D25303E1640E016E98
:1054A00073D0D0C103F0CFC1E9FFD0C1EAFFECCF88
:1054B0000AF2ED52EFCF09F202010C6B0A0E0B6FEC
:1054C000000190EC13F001C0EFFF02C0ECFFD0C16F
:1054D00003F00101CFC1E9FFD0C1EAFFECCFD5F164
:1054E000ED52EFCFD4F10001B9DC1B50090846E3BF
:1054F0000101CFC1D1F1D0C1D2F1D0C103F0CFC1F0
:10550000E9FFD0C1EAFFECCF0AF2ED52EFCF09F28A
:10551000030E02010C6FE80E0B6F000190EC13F00C
:1055200000C0D3F103C0D4F103C007F200C006F2FB
:105530000201096B0A0E086F00017CEC08F001C043
:10554000D3F11B5001010124016E000E0220D2C1D3
:10555000EAFFD1C1E9FFEC6EED5201C0EFFF0C0E86
:105560001B6ED0C103F0CFC1E9FFD0C1EAFFECCF81
:10557000D5F1ED52EFCFD4F1000170DC76D70C0EEF
:105580001B6E680E016E0101000142EF2EF01A50F1
:10559000080B080861E1DBC1DEF10101DE51010801
:1055A0005AE2010EDE5DE16F0201076B066F096BC7
:1055B000030E086F00017CEC08F001C0E0F1010E61
:1055C00001010124016E000E0220036E0150DC2552
:1055D000016EDD51032201C0E0F103C0E1F103C01F
:1055E000EAFF01C0E9FFECCFE3F1ED52EFCFE2F1CA
:1055F000020EDE5DE56F0201076B066F096B030E9D
:10560000086F00017CEC08F002C0E5F101C0E4F194
:10561000010E01010124016E000E0220036E0150F3
:10562000DC25E96EDD510320EA6EECCF03F0ED528C
:10563000EF50E25D006E0350E359036E00C0E2F1EB
:10564000E36FE1C1EAFFE0C1E9FFEC6EED5200C09B
:10565000EFFFDE07A3D700010101DA53D8B497D1D9
:10566000DF6BDB51DF5DD8B0C2D0DA51330DF350C0
:10567000CE0FE06FDF51030DF350E0270201076BFF
:10568000DFC106F2096B030E086F00017CEC08F025
:1056900002C0E2F101C0E1F10101DC51E125E96E56
:1056A000DD51E221EA6EEF50FF0AE36FF250006E27
:1056B000F29EE0C1A9FFE3C1A8FFA69CA69EA68416
:1056C0000F01550EA76EAA0EA76EA682A6B2FED730
:1056D000A6940050F2120101DA51330DF350CF0FAE
:1056E000E06FDF51030DF350E0270201076BDFC1CC
:1056F00006F2096B030E086F00017CEC08F002C093
:10570000E2F101C0E1F1010E0101E125016E000E9F
:10571000E221036E0150DC25E96EDD510320EA6EC3
:10572000ECCF03F0ED52EF50FF0AE16FFF0E0318CC
:10573000E26FE2C1E1F1E26BF250006EF29EE0C175
:10574000A9FFE1C1A8FFA69CA69EA6840F01550E45
:10575000A76EAA0EA76EA682A6B2FED7A694005088
:10576000F2120101DA51330DF350D00FE06FDF5127
:10577000030DF350E0270201076BDFC106F2096B4E
:10578000030E086F00017CEC08F002C0E2F101C0DA
:10579000E1F1010E0101E125016E000EE221036E2F
:1057A0000150DC25E96EDD510320EA6EECCF03F0F9
:1057B000ED52EF50FF0AE16FFF0E0318E26FF25057
:1057C000006EF29EE0C1A9FFE1C1A8FFA69CA69EC3
:1057D000A6840F01550EA76EAA0EA76EA682A6B2CA
:1057E000FED7A6940050F2120101DF2B3AD7DB510D
:1057F0001008D8A0CCD0DA51330DF350CE0FE06FA3
:10580000010EDB25030DF350E027010EDB25E26FCF
:105810000201076BE2C106F2096B030E086F00017B
:105820007CEC08F002C0E2F101C0E1F10101DC51C1
:10583000E125E96EDD51E221EA6EEF50FF0AE36FE8
:10584000F250006EF29EE0C1A9FFE3C1A8FFA69C42
:10585000A69EA6840F01550EA76EAA0EA76EA6825D
:10586000A6B2FED7A6940050F2120101DA51330D10
:10587000F350CF0FE06F010EDB25030DF350E0274F
:10588000010EDB25E26F0201076BE2C106F2096B34
:10589000030E086F00017CEC08F002C0E2F101C0C9
:1058A000E1F1010E0101E125016E000EE221036E1E
:1058B0000150DC25E96EDD510320EA6EECCF03F0E8
:1058C000ED52EF50FF0AE16FFF0E0318E26FE2C1E5
:1058D000E1F1E26BF250006EF29EE0C1A9FFE1C17E
:1058E000A8FFA69CA69EA6840F01550EA76EAA0E21
:1058F000A76EA682A6B2FED7A6940050F2120101AE
:10590000DA51330DF350D00FE06F010EDB25030D9C
:10591000F350E027010EDB25E26F0201076BE2C1C5
:1059200006F2096B030E086F00017CEC08F002C060
:10593000E2F101C0E1F1010E0101E125016E000E6D
:10594000E221036E0150DC25E96EDD510320EA6E91
:10595000ECCF03F0ED52EF50FF0AE16FFF0E03189A
:10596000E26FF250006EF29EE0C1A9FFE1C1A8FF14
:10597000A69CA69EA6840F01550EA76EAA0EA76E22
:10598000A682A6B2FED7A6940050F21201011E0E06
:10599000016E000112000101DA6B00010FEC0AF048
:1059A0001A50E00B006E00380101D66FD633070E97
:1059B000D617D05302E1D15330E01A50080B080833
:1059C0002FE1D35101082CE2020ED35DDB6F0201FF
:1059D000076B066F096B030E086F00017CEC08F083
:1059E00002C0DBF101C0DAF1010E01010124016EF8
:1059F000000E0220036E0150D425E96ED55103201C
:105A0000EA6EECCF03F0ED52EFCF01F0D151035C21
:105A100007E303E10150D05D03E21F0E016E61D088
:105A2000010ED35DDB6F0201076B066F096B030E7E
:105A3000086F00017CEC08F00101D4510124E96EEB
:105A4000D5510220EA6ED2C1EFFF010ED35DDB6FAC
:105A50000201076B066F096B030E086F00017CECF7
:105A600008F001C0DAF1010E01010124016E000EFF
:105A70000220036E0150D425E96ED5510320EA6E51
:105A8000D1C1ECFFED52D0C1EFFFD35111080DE1B0
:105A9000D6C1DAF1D3C1DBF1D5C1DDF1D4C1DCF17E
:105AA000000175DD015001011CD0D3C1DDF1D5C16C
:105AB000DFF1D4C1DEF1010EE06F00019DEC14F0C6
:105AC00003C0D9F102C0D8F101C0D7F1D9C1DEF1CC
:105AD000D8C1DDF1D7C1DCF142EC1AF0200E016E25
