:04000000E6EF2CF00B
:08000800046ED8CF05F0E0CF33
:1000100006F00001E9CF0CF0EACF07F0E1CF08F0DD
:10002000E2CF09F0D9CF0AF0DACF0BF0F3CF12F01C
:10003000F4CF13F0FACF14F0F5CF15F0F6CF16F099
:10004000F7CF17F000C00EF001C00FF002C010F0A3
:1000500003C011F0F2AA30EF00F0F2B4C8EF00F0E4
:100060009DA036EF00F09EB09BEF02F0F2A83CEFAF
:1000700000F0F2B26FEF00F0F0A642EF00F0F0B047
:100080008DEF00F0F0A848EF00F0F0B2AAEF00F01A
:100090000EC000F00FC001F010C002F011C003F05C
:1000A0000CC0E9FF07C0EAFF078E08C0E1FF09C0E6
:1000B000E2FF0AC0D9FF0BC0DAFF12C0F3FF13C082
:1000C000F4FF14C0FAFF15C0F5FF16C0F6FF17C005
:1000D000F7FF045006C0E0FF05C0D8FF100081B84C
:1000E00005D081B802D00A0E1B6E14D081BA05D09B
:1000F00081BA02D0070E1B6E0DD081BC05D081BC29
:1001000002D0040E1B6E06D081BE04D081BE02D088
:10011000010E1B6EF29248EF00F081B804D081B856
:1001200001D01B6A14D081BA05D081BA02D0080E62
:100130001B6E0DD081BC05D081BC02D0050E1B6E9C
:1001400006D081BE04D081BE02D0020E1B6EF0909C
:1001500048EF00F081B805D081B802D00B0E1B6EBD
:1001600014D081BA05D081BA02D0090E1B6E0DD011
:1001700081BC05D081BC02D0060E1B6E06D081BEAC
:1001800004D081BE02D0030E1B6EF09248EF00F047
:100190008150070B0101436F4351070817E181B8F4
:1001A00004D0939A8A9A938811D081BA04D0939CF0
:1001B0008A9C938A0BD081BC04D0939E8A9E938C98
:1001C00005D081BE03D093988A98938EF294000153
:1001D00048EF00F00C564F4C564552000C52455417
:1001E00055524E000C524556454E495200000C42A5
:1001F0004F256342504125634154256343256300E5
:100200000C534F4C44414E444F2E2E2E00000C52A6
:1002100045464C4F57494E472E2E2E000C534F4CFF
:10022000445552452E2E2E000C2020256341256377
:100230004B412E2E2E000C253032643A2530334CA3
:1002400075256325632C30303A3030000C25303270
:10025000643A2530334C75256325632C30303030BB
:1002600053000C253032643A4D414B256325632CF5
:10027000253032643A25303264000C253032643A3D
:100280004D4158256325632C253032643A253032A0
:1002900064000C253032643A4D414B256325632CB4
:1002A0002530344C754300000C253032643A4D4102
:1002B00058256325632C2530344C75530000800E7F
:1002C000D8A202D00101481B01014D6B4E6B44C105
:1002D0004CF148514C1B4351D8B4DFD04B6F006EEA
:1002E0004751D8B4E3D04B5FD8B483D03EE348C184
:1002F00051F1518F49C150F14AC14FF14E6BD89025
:10030000513350334F334E334B2FF8D74CAF03D0CC
:100310004D81E0D04D914B914D89010EEA6E460E14
:10032000E96EEBD04D994CBF0AD04BA113D051339D
:1003300050334F334E33002AD8B4C7D00BD051BFFF
:100340000CD0D8904E374F37503751370006D8B4BD
:10035000BCD0F5D74D8D6DD04D9D44C14CF144AF0F
:1003600002D0518FABD0519FA9D047C14BF147C1AB
:1003700000F043514B5F44C151F1518F45C150F1E1
:1003800046C14FF14E6BD890513350334F334E33FB
:100390004B2FF8D74CAF03D04D839CD04D934B914E
:1003A0004D8B010EEA6E4A0EE96EA7D04D9B4CBFF5
:1003B0000AD04BA113D0513350334F334E33002A60
:1003C000D8B483D00BD051BF0CD0D8904E374F3714
:1003D000503751370006D8B478D0F5D74D8F29D093
:1003E0004D9F48C14CF148AF02D0518F67D0519F0B
:1003F00065D048C151F1518F49C150F14AC14FF107
:100400004CAF04D0519F4D8565D04D954E6B4B91AF
:10041000010EEA6E460EE96E70D04CBF1CD044C18E
:100420004CF14BA106D0513350334F334E33002A99
:100430004CE04EAF0BD04F2B09E1502B07E1512B75
:1004400005E1513350334F33002A3FE04DBD84D78F
:100450004DBFC6D71CD0800E511B51AF04D03AD02F
:1004600048C14CF10AD044C14CF1515306E15053FC
:1004700004E14F5302E1006A21D051BF08D0D89067
:100480004E374F3750375137002EF7D71ED04CAF6D
:1004900002D0518F13D0519F11D047C100F048C1F5
:1004A00051F149C150F14AC14FF108D043C100F0A8
:1004B00044C151F145C150F146C14FF151C101F064
:1004C00050C102F04FC103F034D0006A016A026AE1
:1004D000036A2FD04E6B4F1F501F511F4E1F4E2BC4
:1004E00005E14F2B03E1502B01E1512B4DB112D708
:1004F0004DB354D74DB589D7B3D7EF504F2705E348
:10050000502B03E1512BD8B44B81ED52EF505027C3
:1005100003E3512BD8B44B81ED52EF50EFBE01D025
:10052000800A5127D8B04B814DB9FCD64DBB3ED780
:1005300074D700011200D89223C046F122C045F1C1
:1005400021C044F120C043F11FC04AF11EC049F14F
:100550001DC048F11CC047F1B2DE03C023F002C049
:1005600022F001C021F000C020F0010E2426D8B0F6
:10057000252AD8B4262AD8B4272A9E9048EF00F01E
:100580000C50455246494C20256400000C50524FF7
:1005900046494C45202564000C50524F46494C209A
:1005A000256400000C4352454152202564000C4351
:1005B000524541544520256400000C4352256345B3
:1005C0005220256400000C434F25632563414241BE
:1005D00054256320256400000C43415247415220BA
:1005E000256400000C4C4F414420256400000C435E
:1005F000484152474552202564000C48412563502C
:100600005925634B4120256400000C454449544161
:100610005220256400000C45444954202564000004
:100620000C25634449544552202564000C5045254F
:1006300063414B542563504F424154256320256448
:1006400000000C4341524741522056414C4F524505
:1006500053000C4C4F41442056414C55455300002B
:100660000C434841524745522056414C4555525340
:1006700000000C2563484125634548256325630A2E
:1006800048412563505925634B2563000C434F4E69
:10069000464947555241434925634E000C53455442
:1006A00054494E4753000C504152414D256354521A
:1006B000455300000C25634150414D455450000006
:1006C0000C5449454D504F000C54494D45000C54B5
:1006D000454D505300000C464F524D41544F0000C1
:1006E0000C464F524D4154000C464F524D41540060
:1006F0000C25634F504D415400000C4D4D3A43437F
:1007000000000C4D4D3A535300000C43434343004B
:100710000C53535353000C4F524947454E000C5253
:1007200045464552454E434500000C4F5249474906
:100730004E4500000C256343544F25634825634B09
:1007400000000C4142534F4C55544F000C41425352
:100750004F4C555400000C4142534F4C55000C5225
:10076000454C415449564F000C52454C4154495652
:1007700045000C52454C4154494600000C504F2551
:100780006343544245484825634B00000C54454D93
:10079000504552415455524100000C54454D50456E
:1007A00052415455524500000C54454D502563525A
:1007B0004154555245000C54454D25634550415414
:1007C000595041000C4944494F4D41000C4C414E99
:1007D0004755414745000C4C414E474147450000B5
:1007E0000C2563256325634F4D4100000C45535094
:1007F0004125634F4C000C454E474C49534800007F
:100800000C4652414E256341495300000C50594358
:10081000434B2563256300000C494E434941520078
:100820000C535441525400000C434F4D4D454E4320
:10083000455200000C484125634125634F000C5090
:10084000554E544F204E4F2056414C49444F0000C6
:100850000C504F494E54204E4F542056414C494461
:1008600000000C504F494E54204E4F4E2056414CE4
:10087000494445000C544F25634B412048450A2507
:1008800063452563435442256354452563256348E6
:1008900041000C25634F54524F2050554E544F3F4A
:1008A00000000C414E4F5448455220504F494E5481
:1008B0003F000C415554524520504F494E543F0083
:1008C0000C25635059256341256320544F25634B04
:1008D000413F00000C256343414E43454C41523F8C
:1008E00000000C5245464C4F57494E472E2E2E00C5
:1008F0000C534F4C445552452E2E2E000C202025D3
:10090000634125634B412E2E2E000C54656D7020E3
:100910002020202025660A536574706F696E74204C
:10092000256600000C5445524D494E41444F00008D
:100930000C454E44454400000C46494E414C495339
:1009400045000C2563414B4F4825634548482563C6
:1009500025630000010122530AE0C00ED56EF28A21
:10096000F288F19CF086F19AF088F19807D0F29A1B
:10097000F096938E938C938A93988A980001120034
:10098000F70E936EF19E0101226B0001E3DF00D0B0
:10099000F288F19CF088F1987EEF2DF0010EEA6E5E
:1009A000360EE96EEF500DE0020E016E006A002E69
:1009B000FED7012EFBD7970E006E002EFED7EF2E2E
:1009C000F3D71200010140B102D0899C01D0898C7B
:1009D000929C40B302D08B9001D08B80949040B514
:1009E00002D08B9201D08B82949240B702D08B942C
:1009F00001D08B8494940000898A929A00D000D010
:100A0000899A929A000112000101416B928C000EAA
:100A100080BC010E41139480000E82B0010E006E66
:100A2000D8900036005041139482000E82B2010E1D
:100A3000006E00360036FC0E001600504113948400
:100A4000000E82B4010E006E003600360036F80E3D
:100A500000160050411341C101F000011200928CB8
:100A6000948094829484898892980000898A929ACA
:100A70000000CADF01C040F1899A929A0000898A79
:100A8000929A00D0C1DF01C03FF1899A929A929C5C
:100A900094909492949401014039006EF00E0016E7
:100AA00000503F11016E00011200929A92929298AA
:100AB00089929292D4DF01C03FF1010101AE02D0D0
:100AC0000001F8D73D5302E1899201D089829292C8
:100AD0000000899892980000899A929A3E393F6F57
:100AE0000F0E3F173FC140F100016CDF01013E5185
:100AF0000F0B3F6F406F000165DF1200280E0101F0
:100B0000106F0C0E116F010E126F060E136F899A83
:100B1000929A8992929289989298929C94909492A7
:100B20009494929A929292980F0E366F000136DF4B
:100B3000010E01010F6F0F5103080CE3030E406F0C
:100B4000000140DF050E0101366F000127DF0101C2
:100B50000F2BF1D7020E406F000134DF050E0101AB
:100B6000366F00011BDF01010F6B0F5103080FE30C
:100B7000036A0F51100FE96E010E0320EA6EEFCFEA
:100B80003EF13D6B000191DF01010F2BEED700011B
:100B900086EF2DF001012E513003F3CF01F0F4CF99
:100BA00000F03103F35000262F513003F3500020A2
:100BB000026E000112000101136B135110082CE3A7
:100BC0002F6B13C12EF1316B030E306F0001E2DF8A
:100BD000010111510124E96E12510220EA6EEF6AFF
:100BE0002F6B13C12EF1316B030E306F0001D2DF7A
:100BF00001C014F1010E01010124016E000E02205A
:100C0000036E01501125E96E12510320EA6EEC6A61
:100C1000ED52EF6A132BD1D70C0E1B6E00011200A0
:100C20000101372D01D003D0400E386F01D0386B51
:100C3000010E365D382738518009396F3D6B3E6FA4
:100C4000000133DF120001013551070A000107E0FE
:100C50000B0A0CE0060A16E0020A1CE022D0010E84
:100C60000101366F376F0001DBDF22D001013D6BE0
:100C7000010E3E6F000119DF020E0101366F000107
:100C80008DDE16D0010E0101366F020E376F0001A6
:100C9000C7DF0ED001013D6B100E3E6F000105DF76
:100CA00007D0010E01013D6F35C13EF10001FDDEAF
:100CB00012000900F6CF2BF1F7CF2CF1F5CF35F16B
:100CC000C2DF2BC1F6FF2CC1F7FF01012A2F01D093
:100CD00002D00001EED70001120001013351016A78
:100CE000325D03E232C100F00CD0006A080E346FAE
:100CF000323700363351005CD8B0006E0136342FE5
:100D0000F7D700011200200E010118A9300E196F4B
:100D100017C100F017AF08D0001E002A00C017F15D
:100D20002D0E196F188F1881015017C132F1640E02
:100D3000336F0001D2DF00C017F1300E0124010132
:100D40001A6F17C132F10A0E336F0001C6DF300E81
:100D5000002401011C6F300E01241B6F19C100F02B
:100D6000300E1A5D04E0188318BF188512D019C11F
:100D70001AF1200E196F300E1B5D04E0188118BFA8
:100D8000188307D0D8A4188104E11AC11BF1200EE2
:100D90001A6F18B505D018B307D018B109D00CD008
:100DA00019C135F100014FDF1AC135F100014BDFE8
:100DB0001BC135F1000147DF1CC135F1000143DFE4
:100DC00012000101383738373837F80E3817380E27
:100DD0003817385140093C6F3D6B3E6F000165DEAE
:100DE00001013B6B3B51070812E33AC103F0395153
:100DF000392BD8B43A2BE96E03C0EAFFEFCF3EF1AE
:100E0000010E3D6F000151DE01013B2BEBD70001CC
:100E1000120001012A5302E12B5308E0386B2BC169
:100E20003AF12AC139F10001CCDF01012C5302E172
:100E30002D5309E0010E386F2DC13AF12CC139F163
:100E40000001BFDF01012E5302E12F5309E0020E22
:100E5000386F2FC13AF12EC139F10001B2DF010123
:100E6000305302E1315309E0030E386F31C13AF1DA
:100E700030C139F10001A5DF0101325302E13353E2
:100E800009E0040E386F33C13AF132C139F1000183
:100E900098DF0101345302E1355309E0050E386F44
:100EA00035C13AF134C139F100018BDF010136530C
:100EB00002E1375309E0060E386F37C13AF136C107
:100EC00039F100017EDF0101000112001A50E00B30
:100ED000006E003801010F6F0F33070E0F171A5005
:100EE000030BFC0FD8B09ED0040F000175EF08F083
:100EF000F29CF29EF2BEFDD7800EF66E050EF76EE6
:100F0000080E01012A6F0001D4DE0FC117F1180E7F
:100F10000101186F0001F7DEC00EF212010182D04C
:100F2000F29CF29EF2BEFDD78C0EF66E050EF76EA9
:100F3000090E01012A6F0001BCDE0FC117F1180E66
:100F40000101186F0001DFDEC00EF21201016AD04C
:100F5000F29CF29EF2BEFDD7980EF66E050EF76E6D
:100F6000080E01012A6F0001A4DE0FC117F1180E4F
:100F70000101186F0001C7DEC00EF212010152D04C
:100F800001012B6B600E2A6F2D6B680E2C6F2F6B7F
:100F9000700E2E6F316B780E306F336B800E326FA8
:100FA000356B346B376B366B000133DFF29CF29E8E
:100FB000F2BEFDD70C0E0101356F000144DE0101C8
:100FC000356B000140DE500E0101356F00013BDE44
:100FD0004F0E0101356F000136DE010E0101356F44
:100FE000000131DE020E0101356F00012CDE030E1F
:100FF0000101356F000127DE040E0101356F00018C
:1010000022DE200E0101356F00011DDE0FC117F138
:10101000180E0101186F000176DEC00EF2120101F8
:1010200001D001011B500A080BE10C0E1B6E0F5181
:10103000040804E2050E016E55D002D00F2B51D0EA
:101040001B500B084DE10C0E1B6E1A501F0B106F3E
:101050000F39006E0036E00E0016005010111A6EA7
:101060000F51330DF350CE0F106FF2CF11F1F29EEE
:1010700010C1A9FFA69CA69EA680A85011BFF28E03
:10108000FF0A000A2AE10F51330DF350CF0F106F02
:10109000F2CF12F1F29E10C1A9FFA69CA69EA680D7
:1010A000A85012BFF28EFF0A000A17E10F51330D4C
:1010B000F350D00F106FF2CF13F1F29E10C1A9FFC1
:1010C000A69CA69EA680A85013BFF28EFF0A000A17
:1010D00004E1010E016E06D003D0020E016E02D0B3
:1010E000A1D7FDD60001ACEF2DF0E824F76AF73662
:1010F000050FF66E110EF7220A00F550FA6E080081
:10110000F550F96EF00E200F500F800F1A50E00BC3
:10111000006E003801010F6F0F33070E0F171A50C2
:10112000030BFC0FD8B0B4D0040F00015CEF09F042
:10113000F29CF29EF2BEFDD7A40EF66E050EF76E7F
:10114000070E01012A6F0001B4DD0FC117F1180E5F
:101150000101186F0001D7DDC00EF212010198D015
:10116000F29CF29EF2BEFDD7AE0EF66E050EF76E45
:10117000080E01012A6F00019CDD0FC117F1180E46
:101180000101186F0001BFDDC00EF212010180D015
:1011900001012B6B480E2A6F2D6B2C6B2F6B2E6B66
:1011A000316B306B336B326B356B346B376B366B4B
:1011B00000012FDEF29CF29EF2BEFDD7BA0EF66E53
:1011C000050EF76E030E01012A6F000172DD0101A9
:1011D000356B000138DDBF0EF66E050EF76E030E9F
:1011E00001012A6F000165DD0FC117F1180E010121
:1011F000186F000188DDC00EF212010149D0010113
:101200002B6B880E2A6F2D6B900E2C6F2F6B800E20
:101210002E6F316B306B336B326B356B346B376BDE
:10122000366B0001F6DDF29CF29EF2BEFDD7C60ED3
:10123000F66E050EF76E030E01012A6F000139DD0F
:101240000101356B0001FFDC010E0101356F00016A
:10125000FADCCD0EF66E050EF76E040E01012A6F54
:10126000000127DD020E0101356F0001ECDC200ECC
:101270000101356F0001E7DC0FC117F1180E010104
:10128000186F000140DDC00EF212010101D0010112
:101290001B500A0805E10C0E1B6E000E016E09D0F2
:1012A0001B500B0805E10C0E1B6E1C0E016E01D0CD
:1012B000EFD70001B1EF2DF0E824F76AF736D30F2E
:1012C000F66E120EF7220A00F550FA6E0800F5507D
:1012D000F96E301160119011FE111A50E00B006E82
:1012E00000380101156F1533070E15171A50030B3F
:1012F000FC0FD8B094D0040F00012AEF0BF0F29C41
:10130000F29EF2BEFDD7D80EF66E050EF76E080EF1
:1013100001012A6F0001CDDC15C117F1180E010182
:10132000186F0001F0DCC00EF212010178D0F29CBF
:10133000F29EF2BEFDD7E40EF66E050EF76E060EB7
:1013400001012A6F0001B5DC15C117F1180E01016A
:10135000186F0001D8DCC00EF212010160D0F29CBF
:10136000F29EF2BEFDD7EE0EF66E050EF76E090E7A
:1013700001012A6F00019DDC15C117F1180E010152
:10138000186F0001C0DCC00EF212010148D001014B
:101390002B6B980E2A6F2D6B880E2C6F2F6B2E6B7C
:1013A000316B306B336B326B356B346B376B366B49
:1013B00000012FDDF29CF29EF2BEFDD7FA0EF66E12
:1013C000050EF76E030E01012A6F000172DC0101A8
:1013D000356B000138DC500E0101356F000133DC44
:1013E000590E0101356F00012EDC010E0101356F30
:1013F000000129DC030EF66E060EF76E030E0101E6
:101400002A6F000156DC15C117F1180E0101186F83
:10141000000179DCC00EF212010101D001011B5064
:101420000A0805E10C0E1B6E030E016E10D11B5055
:101430000B08D8A40BD10C0E1B6E11C1E9FF12C111
:10144000EAFF110EEF6E166B12C103F011C1E9FF36
:1014500012C1EAFFEF50165DD8B0F5D02F6B16C160
:101460002EF1316B030E306F0001CAEC05F002C0A3
:1014700018F101C017F1010113511725E96E14513C
:101480001821EA6E1551330DF350CE0F1B6F165114
:10149000030DF3501B27F2CF1CF1F29E1BC1A9FFD5
:1014A000A69CA69EA680A8501CBFF28EFF0AEF6ED7
:1014B0002F6B16C12EF1316B030E306F0001CAEC99
:1014C00005F002C018F101C017F1010E0101172546
:1014D000016E000E1821036E01501325E96E1451A0
:1014E0000320EA6E1551330DF350CF0F196F1651CB
:1014F000030DF3501927F2CF1AF1F29E19C1A9FF7B
:10150000A69CA69EA680A8501ABFF28EFF0AEC6A7F
:10151000ED52EF6E2F6B16C12EF1316B030E306F53
:101520000001CAEC05F001C017F1010E0101012410
:10153000016E000E0220036E01501325E96E145156
:101540000320EA6EEFCF03F0000EEF6E03C0ECFF56
:101550002F6B16C12EF1316B030E306F0001CAECF8
:1015600005F002C018F101C017F1010E01011725A5
:10157000016E000E1821036E01501325E96E1451FF
:101580000320EA6E1551330DF350D00F1B6F165127
:10159000030DF3501B27F2CF1CF1F29E1BC1A9FFD4
:1015A000A69CA69EA680A8501CBFF28EFF0AEF1034
:1015B000006EEC50036E0050ED52EF6E03C0ECFF76
:1015C000ED522F6B16C12EF1316B030E306F0001FF
:1015D000CAEC05F002C018F101C017F10101135166
:1015E0000124E96E14510220EA6EEF522AE12F6BBA
:1015F00016C12EF1316B030E306F0001CAEC05F0FD
:1016000001C019F1010E01010124016E000E02203A
:10161000036E01501325E96E14510320EA6EECCFDE
:101620001AF1ED52EFCF19F119530BE11A5309E1F9
:1016300012C103F011C1E9FF03C0EAFF16C1EFFFB9
:1016400002D0162B01D71D0E016E01D0E8D6000185
:10165000BEEF2DF0E824F76AF7366F0FF66E160E20
:10166000F7220A00F550FA6E0800F550F96EFE12E6
:101670002E135E138E131A50030BFC0FD8B0E4D058
:10168000040F37EF0CF0F29CF29EF2BEFDD71A5019
:10169000E00B006E003801010F6F0F33070E0F17BC
:1016A0000A0EF66E060EF76E080E2A6F000159EC50
:1016B00006F00FC117F1180E0101186F000183EC3D
:1016C00006F0C00EF212C0D0F29CF29EF2BEFDD720
:1016D0001A50E00B006E003801010F6F0F33070E38
:1016E0000F17160EF66E060EF76E060E2A6F000125
:1016F00059EC06F00FC117F1180E0101186F000127
:1017000083EC06F0C00EF2129FD001012B6B480E45
:101710002A6F2D6B2C6B2F6B2E6B316B306B336BF9
:10172000326B356B346B376B366B000109EC07F0AD
:10173000F29CF29EF2BEFDD71A50E00B006E00380C
:1017400001010F6F0F33070E0F170C0E356F0001DD
:1017500023EC06F00101356B000123EC06F0230EAB
:10176000F66E060EF76E060E01012A6F000159ECA7
:1017700006F00FC117F1180E0101186F000183EC7C
:1017800006F0C00EF21260D001012B6B900E2A6F92
:101790002D6B700E2C6F2F6B800E2E6F316B306B9C
:1017A000336B326B356B346B376B366B000109EC86
:1017B00007F0F29CF29EF2BEFDD71A50E00B006ECD
:1017C000003801010F6F0F33070E0F172C0EF66E46
:1017D000060EF76E030E2A6F000159EC06F00101A8
:1017E000356B000123EC06F0310EF66E060EF76E37
:1017F000030E01012A6F000159EC06F0010E0101F0
:10180000356F000123EC06F0360EF66E060EF76E0D
:10181000050E01012A6F000159EC06F0020E0101CC
:10182000356F000123EC06F0200E0101356F000139
:1018300023EC06F00FC117F1180E0101186F00011B
:1018400083EC06F0C00EF2121B500A0805E10C0EE4
:101850001B6E040E016E09D01B500B0805E10C0E27
:101860001B6E1C0E016E01D0EFD7C3EF2DF0E824E4
:10187000F76AF736890FF66E180EF7220A00F55050
:10188000FA6E0800F550F96E8616C8160A17881702
:101890000900F5520DE0F6CF1DF1F7CF1EF1F5CF9F
:1018A00035F123EC06F01DC1F6FF1EC1F7FFF0D79E
:1018B00012001A50030BFC0FD8B080D0040FDFEFDA
:1018C0000CF0F29CF29EF2BEFDD7D40EF66E010E25
:1018D000F76EDEDFC00EF21271D0F29CF29EF2BE05
:1018E000FDD7DC0EF66E010EF76ED2DFC00EF212DF
:1018F00065D0F29CF29EF2BEFDD7E40EF66E010EAC
:10190000F76EC6DFC00EF21259D001012B6B880EA4
:101910002A6F2D6BD00E2C6F2F6B800E2E6F316BBC
:10192000A80E306F336B326B356B346B376B366BA5
:10193000000109EC07F0F29CF29EF2BEFDD7EE0E1C
:10194000F66E010EF76E030E01012A6F000159ECCD
:1019500006F00101356B000123EC06F0F30EF66E84
:10196000010EF76E030E01012A6F000159EC06F01B
:10197000010E0101356F000123EC06F0410E01015B
:10198000356F000123EC06F0540E0101356F0001A4
:1019900023EC06F0020E0101356F000123EC06F086
:1019A000430E0101356F000123EC06F0030E010127
:1019B000356F000123EC06F0C00EF2121200E8248D
:1019C000F76AF736D90FF66E190EF7220A00F550AE
:1019D000FA6E0800F550F96EC218DA18F2180A19F2
:1019E00068DF1B500A0805E10C0E1B6E020E016E2B
:1019F00009D01B500B0805E10C0E1B6E000E016E8A
:101A000001D0EFD7C8EF2DF01A50030BFC0FD8B060
:101A1000A6D0040FC4EF0DF0F29CF29EF2BEFDD7EB
:101A2000420EF66E060EF76E33DFC00EF21297D03E
:101A3000F29CF29EF2BEFDD7520EF66E060EF76EC7
:101A400027DFC00EF2128BD0F29CF29EF2BEFDD7C1
:101A5000600EF66E060EF76E1BDFC00EF2127FD020
:101A600001012B6B880E2A6F2D6BA00E2C6F2F6B34
:101A7000700E2E6F316BA80E306F336B980E326F75
:101A8000356B346B376B366B000109EC07F0F29C59
:101A9000F29EF2BEFDD70C0E0101356F000123EC62
:101AA00006F00101356B000123EC06F0480E010140
:101AB000356F000123EC06F0410E0101356F000186
:101AC00023EC06F0010E0101356F000123EC06F056
:101AD000450E0101356F000123EC06F0480E0101AF
:101AE000356F000123EC06F0020E0101356F000195
:101AF00023EC06F0030E0101356F000123EC06F024
:101B00007F0EF66E060EF76E030E01012A6F0001BE
:101B100059EC06F0040E0101356F000123EC06F0CC
:101B2000500E0101356F000123EC06F0590E010142
:101B3000356F000123EC06F00101356B000123EC49
:101B400006F04B0E0101356F000123EC06F0020E8A
:101B50000101356F000123EC06F0C00EF2121B509C
:101B60000A0805E10C0E1B6E060E016E0BD01B5011
:101B70000B0807E10C0E1B6E1F0E1A161C0E016ED1
:101B800001D0EDD7CDEF2DF0E824F76AF736A30F9B
:101B9000F66E1B0EF7220A00F550FA6E0800F5509B
:101BA000F96E181A301A481A601A1A50030BFC0FF3
:101BB000D8B09FD0040F90EF0EF001012B6B580EA0
:101BC0002A6F2D6B2C6B2F6B2E6B316B306B336B45
:101BD000326B356B346B376B366B000109EC07F0F9
:101BE000F29CF29EF2BEFDD78C0EF66E060EF76EDC
:101BF0000C0E01012A6F000159EC06F00101356B52
:101C0000000123EC06F04E0E0101356F000123ECBC
:101C100006F0C00EF2126DD0F29CF29EF2BEFDD71D
:101C20009C0EF66E060EF76E33DEC00EF21261D019
:101C300001012B6B500E2A6F2D6B2C6B2F6B2E6BB3
:101C4000316B306B336B326B356B346B376B366BA0
:101C5000000109EC07F0F29CF29EF2BEFDD7A60E41
:101C6000F66E060EF76E060E01012A6F000159ECA2
:101C700006F00101356B000123EC06F0AE0EF66EA6
:101C8000060EF76E040E01012A6F000159EC06F0F2
:101C9000C00EF2122ED001012B6B600E2A6F2D6B3D
:101CA0002C6B2F6B2E6B316B306B336B326B356B58
:101CB000346B376B366B000109EC07F0F29CF29E37
:101CC000F2BEFDD70C0E0101356F000123EC06F0CA
:101CD0000101356B000123EC06F0B70EF66E060E1F
:101CE000F76E070E01012A6F000159EC06F0C00ED5
:101CF000F2121B500A0809E10C0E1B6E1A501F0B42
:101D000020091A6E000E016E09D01B500B0805E168
:101D10000C0E1B6E070E016E01D0EBD7D2EF2DF02B
:101D2000E824F76AF7363B0FF66E1D0EF7220A001D
:101D3000F550FA6E0800F550F96EBA1B181C301CED
:101D4000961C1A50030BFC0F6BE2040F23EF0FF0ED
:101D5000F29CF29EF2BEFDD7C00EF66E060EF76E36
:101D600097DDC00EF2125CD0F29CF29EF2BEFDD75F
:101D7000C80EF66E060EF76E8BDDC00EF21250D056
:101D8000F29CF29EF2BEFDD7CE0EF66E060EF76EF8
:101D90007FDDC00EF21244D001012B6B600E2A6F62
:101DA0002D6B980E2C6F2F6B900E2E6F316B306B4E
:101DB000336B326B356B346B376B366B000109EC70
:101DC00007F0F29CF29EF2BEFDD70C0E0101356FBA
:101DD000000123EC06F00101356B000123EC06F055
:101DE0004F0E0101356F000123EC06F0010E0101D9
:101DF000356F000123EC06F04F0E0101356F000135
:101E000023EC06F0020E0101356F000123EC06F011
:101E1000410E0101356F000123EC06F0C00EF212F5
:101E20001B500A0805E10C0E1B6E110E016E09D045
:101E30001B500B0805E10C0E1B6E080E016E01D045
:101E4000EFD7D7EF2DF0E824F76AF736610FF66E7B
:101E50001E0EF7220A00F550FA6E0800F550F96ED2
:101E6000501D681D801D981D1A50030BFC0F55E274
:101E7000040F9FEF0FF0F29CF29EF2BEFDD7D60E3C
:101E8000F66E060EF76E04DDC00EF21246D0F29C1E
:101E9000F29EF2BEFDD7E00EF66E060EF76EF8DC8F
:101EA000C00EF2123AD0F29CF29EF2BEFDD7E80EBE
:101EB000F66E060EF76EECDCC00EF2122ED00101AB
:101EC0002B6B680E2A6F2D6B2C6B2F6B2E6B316B6F
:101ED000306B336B326B356B346B376B366B0001A9
:101EE00009EC07F0F29CF29EF2BEFDD70C0E010148
:101EF000356F000123EC06F00101356B000123EC86
:101F000006F0F30EF66E060EF76E050E01012A6F4F
:101F1000000159EC06F0C00EF2121B500A0804E151
:101F20000C0E1B6E016E09D01B500B0805E10C0E48
:101F30001B6E090E016E01D0F0D7DCEF2DF0E82406
:101F4000F76AF736590FF66E1F0EF7220A00F550A2
:101F5000FA6E0800F550F96E761E8E1EA61EBE1E85
:101F60001A50030B030A01E00CD0F29CF29EF2BE61
:101F7000FDD7FA0EF66E060EF76E8ADCC00EF21270
:101F80000BD0F29CF29EF2BEFDD7020EF66E070E4B
:101F9000F76E7EDCC00EF2121B500A0805E10C0E33
:101FA0001B6E0A0E016E3BD01B500B0837E10C0E66
:101FB0001B6EF2CF0FF1F29EA96AA69CA69EA68088
:101FC000A85001010FBFF28EFF0AEF0B1009FF0AA4
:101FD000106FF250006EF29EA96A10C1A8FFA69C75
:101FE000A69EA6840F01550EA76EAA0EA76EA68206
:101FF000A6B2FED7A6940050F212F2CF0FF1F29ED5
:10200000A96AA69CA69EA680A85001010FBFF28EC9
:10201000FF0A1A6E0B0E016E000101D0BDD7E1EF71
:102020002DF01A50030B030A01E00CD0F29CF29E33
:10203000F2BEFDD70A0EF66E070EF76E29DCC00E53
:10204000F2120BD0F29CF29EF2BEFDD7100EF66E8D
:10205000070EF76E1DDCC00EF2121B500A0805E1D8
:102060000C0E1B6E0B0E016E3AD01B500B0836E1A6
:102070000C0E1B6EF2CF0FF1F29EA96AA69CA69ED3
:10208000A680A85001010FBFF28EFF0AEF0BFF0AD6
:10209000106FF250006EF29EA96A10C1A8FFA69CB4
:1020A000A69EA6840F01550EA76EAA0EA76EA68245
:1020B000A6B2FED7A6940050F212F2CF0FF1F29E14
:1020C000A96AA69CA69EA680A85001010FBFF28E09
:1020D000FF0A1A6E0B0E016E000101D0BED7E6EFAB
:1020E0002DF059EC0CF01B500A0805E10C0E1B6E8C
:1020F000090E016E09D01B500B0805E10C0E1B6E7A
:10210000080E016E01D0EFD7EBEF2DF01A50030B44
:10211000FC0F70E2040F0DEF11F0F29CF29EF2BE84
:10212000FDD7160EF66E070EF76E48EC0CF0C00EDB
:10213000F21260D0F29CF29EF2BEFDD71E0EF66E39
:10214000070EF76E48EC0CF0C00EF21253D0F29C62
:10215000F29EF2BEFDD72A0EF66E070EF76E48EC21
:102160000CF0C00EF21246D001012B6B700E2A6FDC
:102170002D6BA00E2C6F2F6B2E6B316B306B336B76
:10218000326B356B346B376B366B000109EC07F043
:10219000F29CF29EF2BEFDD70C0E0101356F0001DC
:1021A00023EC06F00101356B000123EC06F0370E3D
:1021B000F66E070EF76E030E01012A6F000159EC4F
:1021C00006F0010E0101356F000123EC06F0480E08
:1021D0000101356F000123EC06F00101356B0001B0
:1021E00023EC06F04B0E0101356F000123EC06F0E5
:1021F000C00EF2121B500A0805E10C0E1B6E100EE9
:10220000016E09D01B500B0805E10C0E1B6E0D0E64
:10221000016E01D0EFD7F0EF2DF0E824F76AF73622
:10222000350FF66E220EF7220A00F550FA6E0800FE
:10223000F550F96E1A2134214E2168211A50030BF2
:10224000FC0FD8B088D0040FF0EF11F0F29CF29E92
:10225000F2BEFDD7420EF66E070EF76E48EC0CF09C
:10226000C00EF21278D0F29CF29EF2BEFDD74C0E58
:10227000F66E070EF76E48EC0CF0C00EF2126BD043
:10228000F29CF29EF2BEFDD7560EF66E070EF76E6A
:1022900048EC0CF0C00EF2125ED001012B6BB00EB8
:1022A0002A6F2D6B780E2C6F2F6BB80E2E6F316B43
:1022B000C00E306F336BC80E326F356B346B376BBB
:1022C000366B000109EC07F0F29CF29EF2BEFDD7DE
:1022D0000C0E0101356F000123EC06F0410E0101E7
:1022E000356F000123EC06F00101356B000123EC92
:1022F00006F0430E0101356F000123EC06F04F0E8E
:102300000101356F000123EC06F0010E0101356F6C
:10231000000123EC06F0020E0101356F000123ECF1
:1023200006F0540E0101356F000123EC06F0480E53
:102330000101356F000123EC06F0030E0101356F3A
:10234000000123EC06F0040E0101356F000123ECBF
:1023500006F0C00EF2121B500A0805E10C0E1B6EAF
:102360000E0E016E3BD01B500B0837E10C0E1B6E9E
:10237000F2CF0FF1F29EA96AA69CA69EA680A85055
:1023800001010FBFF28EFF0AF70B0809FF0A106F59
:10239000F250006EF29EA96A10C1A8FFA69CA69EEC
:1023A000A6840F01550EA76EAA0EA76EA682A6B22E
:1023B000FED7A6940050F212F2CF0FF1F29EA96A56
:1023C000A69CA69EA680A85001010FBFF28EFF0A10
:1023D0001A6E0F0E016E000101D0BDD7F5EF2DF082
:1023E000E824F76AF736FB0FF66E230EF7220A0091
:1023F000F550FA6E0800F550F96E4C2266228022E4
:102400009A221A50030BFC0F69E2040FB2EF12F08C
:10241000F29CF29EF2BEFDD75E0EF66E070EF76ED0
:1024200048EC0CF0C00EF21259D0F29CF29EF2BEB3
:10243000FDD7680EF66E070EF76E48EC0CF0C00E76
:10244000F2124CD0F29CF29EF2BEFDD7720EF66EE6
:10245000070EF76E48EC0CF0C00EF2123FD00101EF
:102460002B6B900E2A6F2D6B700E2C6F2F6B2E6BBB
:10247000316B306B336B326B356B346B376B366B68
:10248000000109EC07F0F29CF29EF2BEFDD77C0E33
:10249000F66E070EF76E030E01012A6F000159EC6C
:1024A00006F00101356B000123EC06F0810EF66E9B
:1024B000070EF76E060E01012A6F000159EC06F0B7
:1024C000010E0101356F000123EC06F04B0E0101F6
:1024D000356F000123EC06F0C00EF2121B500A0803
:1024E00005E10C0E1B6E0F0E016E3AD01B500B084F
:1024F00036E10C0E1B6EF2CF0FF1F29EA96AA69C7C
:10250000A69EA680A85001010FBFF28EFF0AF70B0E
:10251000FF0A106FF250006EF29EA96A10C1A8FF68
:10252000A69CA69EA6840F01550EA76EAA0EA76EA6
:10253000A682A6B2FED7A6940050F212F2CF0FF1F7
:10254000F29EA96AA69CA69EA680A85001010FBF74
:10255000F28EFF0A1A6E0F0E016E000101D0BED777
:10256000FAEF2DF0E824F76AF7367F0FF66E250EA6
:10257000F7220A00F550FA6E0800F550F96E1024A3
:102580002A2444245E2459EC0CF01B500A0805E16F
:102590000C0E1B6E0D0E016E08D01B500B0804E1D3
:1025A0000C0E1B6E016E01D0F0D7FFEF2DF059EC31
:1025B0000CF01B500A0805E10C0E1B6E080E016E94
:1025C00009D01B500B0805E10C0E1B6E070E016EA7
:1025D00001D0EFD704EF2EF01A50030BFC0FD8B048
:1025E00082D0040F86EF13F0F29CF29EF2BEFDD76C
:1025F0008C0EF66E070EF76E48EC0CF0C00EF21261
:1026000072D0F29CF29EF2BEFDD79A0EF66E070EC5
:10261000F76E48EC0CF0C00EF21265D001012B6B86
:10262000480E2A6F2D6B2C6B2F6B2E6B316B306B22
:10263000336B326B356B346B376B366B000109ECE7
:1026400007F0F29CF29EF2BEFDD7A80EF66E070EC2
:10265000F76E050E01012A6F000159EC06F0010129
:10266000356B000123EC06F0AF0EF66E070EF76E29
:10267000060E01012A6F000159EC06F0C00EF2129D
:1026800032D001012B6B600E2A6F2D6B2C6B2F6BE0
:102690002E6B316B306B336B326B356B346B376B4E
:1026A000366B000109EC07F0F29CF29EF2BEFDD7FA
:1026B000B60EF66E070EF76E040E01012A6F0001CA
:1026C00059EC06F00101356B000123EC06F0BC0E5D
:1026D000F66E070EF76E070E01012A6F000159EC26
:1026E00006F0C00EF2121B500A0805E10C0E1B6E1C
:1026F000150E016E09D01B500B0805E10C0E1B6E68
:10270000120E016E01D0EFD709EF2EF0E824F76A20
:10271000F736270FF66E270EF7220A00F550FA6EED
:102720000800F550F96EE82502261C2682260101D4
:102730002B6B280E2A6F2D6B2C6B2F6B2E6B316B36
:10274000306B336B326B356B346B376B366B000130
:1027500009EC07F0F29CF29EF2BEFDD70C0E0101CF
:10276000356F000123EC06F00101356B000123EC0D
:1027700006F0430E0101356F000123EC06F0C00E98
:10278000F2121B500A0805E10C0E1B6E130E016EAF
:102790003AD01B500B0836E10C0E1B6EF2CF0FF136
:1027A000F29EA96AA69CA69EA680A85001010FBF12
:1027B000F28EFF0AFB0BFF0A106FF250006EF29EC2
:1027C000A96A10C1A8FFA69CA69EA6840F01550E5B
:1027D000A76EAA0EA76EA682A6B2FED7A694005038
:1027E000F212F2CF0FF1F29EA96AA69CA69EA680D5
:1027F000A85001010FBFF28EFF0A1A6E140E016E6F
:10280000000101D0BED70EEF2EF001012B6B280E78
:102810002A6F2D6B2C6B2F6B2E6B316B306B336BE8
:10282000326B356B346B376B366B000109EC07F09C
:10283000F29CF29EF2BEFDD70C0E0101356F000135
:1028400023EC06F00101356B000123EC06F0460E87
:102850000101356F000123EC06F0C00EF2121B508F
:102860000A0805E10C0E1B6E140E016E3BD01B50C6
:102870000B0837E10C0E1B6EF2CF0FF1F29EA96A26
:10288000A69CA69EA680A85001010FBFF28EFF0A4B
:10289000FB0B0409FF0A106FF250006EF29EA96A4A
:1028A00010C1A8FFA69CA69EA6840F01550EA76E78
:1028B000AA0EA76EA682A6B2FED7A6940050F21268
:1028C000F2CF0FF1F29EA96AA69CA69EA680A85000
:1028D00001010FBFF28EFF0A1A6E140E016E000185
:1028E00001D0BDD713EF2EF059EC0CF01B500A08A5
:1028F00005E10C0E1B6E120E016E09D01B500B0869
:1029000005E10C0E1B6E110E016E01D0EFD718EF12
:102910002EF01A50030BFC0F64E2040F04EF15F0C5
:10292000F29CF29EF2BEFDD7C40EF66E070EF76E55
:1029300048EC0CF0C00EF21254D0F29CF29EF2BEA3
:10294000FDD7CC0EF66E070EF76E48EC0CF0C00EFD
:10295000F21247D0F29CF29EF2BEFDD7D60EF66E72
:10296000070EF76E48EC0CF0C00EF2123AD00101DF
:102970002B6B700E2A6F2D6B900E2C6F2F6B2E6BA6
:10298000316B306B336B326B356B346B376B366B53
:10299000000109EC07F0F29CF29EF2BEFDD70C0E8E
:1029A0000101356F000123EC06F00101356B0001D8
:1029B00023EC06F0010E0101356F000123EC06F057
:1029C0000101356B000123EC06F0E70EF66E070EF1
:1029D000F76E030E01012A6F000159EC06F0C00EDC
:1029E000F2121B500A0805E10C0E1B6E1B0E016E45
:1029F00009D01B500B0805E10C0E1B6E160E016E64
:102A000001D0EFD71DEF2EF0E824F76AF736230F39
:102A1000F66E2A0EF7220A00F550FA6E0800F550FD
:102A2000F96E20293A2954296E2901012B6B400E99
:102A30002A6F2D6B2C6B2F6B2E6B316B306B336BC6
:102A4000326B356B346B376B366B000109EC07F07A
:102A5000F29CF29EF2BEFDD7EC0EF66E070EF76EFC
:102A6000050E01012A6F000159EC06F00101356BDA
:102A7000000123EC06F04F0E0101356F000123EC3D
:102A800006F04C0E0101356F000123EC06F0C00E7C
:102A9000F2121B500A0805E10C0E1B6E170E016E98
:102AA0003AD01B500B0836E10C0E1B6EF2CF0FF123
:102AB000F29EA96AA69CA69EA680A85001010FBFFF
:102AC000F28EFF0AFC0BFF0A106FF250006EF29EAE
:102AD000A96A10C1A8FFA69CA69EA6840F01550E48
:102AE000A76EAA0EA76EA682A6B2FED7A694005025
:102AF000F212F2CF0FF1F29EA96AA69CA69EA680C2
:102B0000A85001010FBFF28EFF0A1A6E1A0E016E55
:102B1000000101D0BED722EF2EF0F29CF29EF2BE51
:102B2000FDD7F60EF66E070EF76E48EC0CF0C00EF1
:102B3000F2121B500A0805E10C0E1B6E180E016EF6
:102B40003BD01B500B0837E10C0E1B6EF2CF0FF180
:102B5000F29EA96AA69CA69EA680A85001010FBF5E
:102B6000F28EFF0AFC0B0109FF0A106FF250006E93
:102B7000F29EA96A10C1A8FFA69CA69EA6840F017A
:102B8000550EA76EAA0EA76EA682A6B2FED7A69471
:102B90000050F212F2CF0FF1F29EA96AA69CA69EF7
:102BA000A680A85001010FBFF28EFF0A1A6E1A0EFE
:102BB000016E000101D0BDD727EF2EF001012B6B74
:102BC000380E2A6F2D6B2C6B2F6B2E6B316B306B8D
:102BD000336B326B356B346B376B366B000109EC42
:102BE00007F0F29CF29EF2BEFDD7000EF66E080EC4
:102BF000F76E050E01012A6F000159EC06F0010184
:102C0000356B000123EC06F0070EF66E080EF76E2A
:102C1000030E01012A6F000159EC06F0C00EF212FA
:102C20001B500A0805E10C0E1B6E190E016E3BD0FD
:102C30001B500B0837E10C0E1B6EF2CF0FF1F29E0A
:102C4000A96AA69CA69EA680A85001010FBFF28E7D
:102C5000FF0AFC0B0209FF0A106FF250006EF29E91
:102C6000A96A10C1A8FFA69CA69EA6840F01550EB6
:102C7000A76EAA0EA76EA682A6B2FED7A694005093
:102C8000F212F2CF0FF1F29EA96AA69CA69EA68030
:102C9000A85001010FBFF28EFF0A1A6E1A0E016EC4
:102CA000000101D0BDD72CEF2EF001012B6B700E6F
:102CB0002A6F2D6BC80E2C6F2F6B2E6B316B306B08
:102CC000336B326B356B346B376B366B000109EC51
:102CD00007F0F29CF29EF2BEFDD70C0EF66E080EC7
:102CE000F76E060E01012A6F000159EC06F0010192
:102CF000356B000123EC06F0010E0101356F000178
:102D000023EC06F0C00EF2121B500A0805E10C0E6F
:102D10001B6E1A0E016E3BD01B500B0837E10C0ED8
:102D20001B6EF2CF0FF1F29EA96AA69CA69EA6800A
:102D3000A85001010FBFF28EFF0AFC0B0309FF0A26
:102D4000106FF250006EF29EA96A10C1A8FFA69CF7
:102D5000A69EA6840F01550EA76EAA0EA76EA68288
:102D6000A6B2FED7A6940050F212F2CF0FF1F29E57
:102D7000A96AA69CA69EA680A85001010FBFF28E4C
:102D8000FF0A1A6E1A0E016E000101D0BDD731EF95
:102D90002EF059EC0CF01B500A0805E10C0E1B6ECE
:102DA000160E016E09D01B500B0805E10C0E1B6EB0
:102DB000150E016E01D0EFD736EF2EF059EC0CF066
:102DC0001B500A0805E10C0E1B6E070E016E09D0A0
:102DD0001B500B0805E10C0E1B6E060E016E01D098
:102DE000EFD73BEF2EF0200E01012DA9300E2E6FF4
:102DF0002CC100F02CAF08D0001E002A00C02CF11E
:102E00002D0E2E6F2D8F2D8101502CC132F1640EAD
:102E1000336F00016DEC06F000C02CF1300E012480
:102E200001012F6F2CC132F10A0E336F00016DECDE
:102E300006F0300E00240101316F300E0124306F96
:102E40002EC100F0300E2F5D04E02D832DBF2D85A7
:102E500012D02DB510D02EC12FF12DB304D0300ECD
:102E6000305D04E02D812DBF2D8305D0D8A42D81A8
:102E7000D8B42FC130F12DB505D02DB308D02DB168
:102E80000BD00FD02EC135F1000123EC06F02FC17D
:102E900035F1000123EC06F030C135F1000123ECDF
:102EA00006F031C135F1000123EC06F01200EACF43
:102EB00034F1E9CF33F101012D39F0092F6F2F27BC
:102EC000E20F306F320F326F2D510F0B302730274A
:102ED0003227E90F316F312731272C390F0B31277A
:102EE000322731373237321F32372C510F0B32270E
:102EF0002F37070E2E6F0A0E31073227FDE33007FA
:102F00003127FDE32F073027FDE32E072F27FDE3B1
:102F1000010EEA6E2E0EE96E070E3315339DE9267B
:102F2000000EEA22E950320803E1EA2C01D0338D89
:102F3000EF50006E08E133BD06D033B916D033B779
:102F400002D0200E03D033873399300E0026EACF0B
:102F50002DF1E9CF2CF100C035F1000123EC06F092
:102F60002DC1EAFF2CC1E9FF0101EE5033ADDAD7E4
:102F70000001120001012B6B280E2A6F2D6B2C6BA8
:102F80002F6B2E6B316B306B336B326B356B346B5D
:102F9000376B366B000109EC07F01A50100B006E0E
:102FA000003A0F0E0016005034E0F29CF29EF2BE82
:102FB000FDD70C0E0101356F000123EC06F023C193
:102FC0002CF1010E01012D6F00010DDF3A0E010100
:102FD000356F000123EC06F00A0EE96E25C12DF1D4
:102FE00024C12CF164DF0101356B000123EC06F0F4
:102FF00026C135F123EC06F0450EF66E020EF76E93
:10300000060E01012A6F000159EC06F0C00EF21203
:1030100033D0F29CF29EF2BEFDD70C0E0101356F4B
:10302000000123EC06F023C12CF1010E01012D6FEC
:103030000001D9DE3A0E0101356F000123EC06F0E4
:103040000A0EE96E25C12DF124C12CF130DF0101FA
:10305000356B000123EC06F026C135F123EC06F0B8
:103060005B0EF66E020EF76E060E01012A6F00016E
:1030700059EC06F0C00EF212060E0101366F010E79
:10308000376F000110EC06F012000101225308E036
:103090003D6B0F0E3E6F000155EC05F007D00101AE
:1030A0003D6B0C0E3E6F000155EC05F01200016AFD
:1030B000026A006A036A01012F5102E12E5118E0F1
:1030C000100E306FD8902C372D37003603362F5125
:1030D000035C02E12E51005C07E32E51005ED8A094
:1030E00003062F51035ED88001360236302FEAD70F
:1030F0000001120001011AC1E9FF1BC1EAFF206BA8
:10310000EFCF1FF1060E366F010E376F000110EC86
:1031100006F01B500B08D8B4C8D01B500A08D8A41E
:103120008BD00C0E1B6E01011F5369E1205367E128
:10313000226B0001AADF0101226B0001AAEC04F05E
:103140001DC103F001011CC1E9FF1DC1EAFFEF50E1
:103150003F0B01084CE11A50E00B006E0038216F64
:103160002133070E2117215303E1050E016EECD028
:103170002151330DF350CE0F226FF2CF23F1F29E87
:1031800022C1A9FFA69CA69EA680A85023BFF28EAE
:10319000FF0A000A29E12151330DF350CF0F226FAE
:1031A000F2CF24F1F29E22C1A9FFA69CA69EA68082
:1031B000A85024BFF28EFF0A000A16E12151330DF8
:1031C000F350D00F226FF2CF25F1F29E22C1A9FF5A
:1031D000A69CA69EA680A85025BFF28EFF0A000AD4
:1031E00003E1010E016EB0D0030E016EADD01CC123
:1031F000E9FF1DC1EAFFEF061F0E016EA5D020C139
:103200002DF11FC12CF12F6B0A0E2E6F00014FDF25
:1032100002C020F101C01FF11DC103F01CC1E9FF74
:103220001DC1EAFFEFCF23F120C125F11FC124F119
:103230001EC126F100019EDE1B50090835E320C1A6
:103240002FF11FC12EF10101316B0A0E306F000109
:10325000CAEC05F002C023F101C022F11B500101AC
:103260002227000E232323C12DF122C12CF1030EAE
:103270002F6FE80E2E6F00011ADF00C01FF1010151
:1032800003C020F10C0E1B6E1DC103F01CC1E9FF31
:103290001DC1EAFFEFCF23F120C125F11FC124F1A9
:1032A0001EC126F1000166DE34D70C0E1B6E1A50CB
:1032B000040B04082AE10101205306E11F511F08F5
:1032C00003E3206B200E1F6F200E1F5D226F000E88
:1032D0002059236F2F6F22C12EF1316B050E306FF5
:1032E0000001CAEC05F002C023F101C022F102C0C6
:1032F0002DF101C02CF101012F6B090E2E6F000181
:10330000D6DE02C020F101C01FF1010120510008EA
:1033100008E21BC103F01AC1E9FF1BC1EAFFEF6815
:1033200006D01AC1E9FF1BC1EAFF1FC1EFFF1A5007
:10333000100B006E003A0F0E0016005003E0650EF1
:10334000016E02D0670E016E00013CEF22F00150C9
:103350002AC132F1640E0101336F00016DEC06F0F9
:1033600000C02AF10150300E08E101012BA310D05A
:103370002BB70ED02BB9200E04D001012B972B991F
:103380002B81012601C035F1000123EC06F001017B
:103390002AC132F10A0E336F00016DEC06F000C055
:1033A0002AF10150300E08E101012BB70BD02BA1FF
:1033B00009D02BB9200E0001012601C035F123EC04
:1033C00006F00101300E2A272AC135F1000123EC55
:1033D00006F0120001012B6B280E2A6F2D6B2C6B4F
:1033E0002F6B2E6B316B306B336B326B356B346BF9
:1033F000376B366B000109EC07F027C12DF126C1B0
:103400002CF101012F6B3C0E2E6F000150DE02C02B
:103410002BF101C02AF102C02DF101C02CF10101F4
:103420002F6B640E2E6F000142DE00C028F10101F7
:1034300027C12DF126C12CF12F6B3C0E2E6F000100
:1034400036DE00C029F10101243D84D01AA041D00C
:10345000F29CF29EF2BEFDD70C0E356F000123ECFC
:1034600006F023C12CF1010E01012D6F0001BBDC20
:10347000670EF66E020EF76E040E01012A6F000150
:1034800059EC06F00101356B000123EC06F025C173
:1034900035F123EC06F02C0E0101356F000123EC11
:1034A00006F028C12CF1010E01012D6F00019BDCFB
:1034B0003A0E0101356F000123EC06F029C12CF111
:1034C000010E01012D6F00018EDCC00EF21240D002
:1034D0000101F29CF29EF2BEFDD70C0E356F000189
:1034E00023EC06F023C12CF1010E01012D6F000128
:1034F0007ADC7F0EF66E020EF76E040E01012A6F63
:10350000000159EC06F00101356B000123EC06F0D7
:1035100025C135F123EC06F02C0E0101356F0001B9
:1035200023EC06F028C12CF1010E01012D6F0001E2
:103530005ADC3A0E0101356F000123EC06F029C177
:103540002CF1010E01012D6F00014DDCC00EF212B5
:10355000B1D001011A50040B44E1F29CF29EF2BE7C
:10356000FDD70C0E356F000123EC06F023C12CF1C2
:10357000010E01012D6F000136DC3A0E0101356F9D
:10358000000123EC06F024C12AF1030E01012B6F88
:103590000001DDDE0101356B000123EC06F025C1E1
:1035A00035F123EC06F02C0E0101356F000123EC00
:1035B00006F028C12CF1010E01012D6F000113DC72
:1035C0003A0E0101356F000123EC06F029C12CF100
:1035D000010E01012D6F000106DCC00EF2126AD04F
:1035E0000101F29CF29EF2BEFDD72B6B24C12AF1A1
:1035F0002BC12FF124C12EF1316B090E306F000168
:10360000CAEC05F002C02BF101C02AF102C02DF175
:1036100001C02CF101012F6B050E2E6F000147DD5B
:1036200002C02BF101C02AF1200E01012A27000E51
:103630002B230C0E356F000123EC06F023C12CF177
:10364000010E01012D6F0001F3EC16F03A0E01019D
:10365000356F000123EC06F00A0EE96E2BC12DF147
:103660002AC12CF124DC0101356B000123EC06F0AA
:1036700025C135F123EC06F02C0E0101356F000158
:1036800023EC06F028C12CF1010E01012D6F000181
:10369000F3EC16F03A0E0101356F000123EC06F051
:1036A00029C12CF1010E01012D6F0001F3EC16F080
:1036B000C00EF21212000B0E0101366F010E376FB1
:1036C000000110EC06F01B500B08D8B4B5D01B500D
:1036D0000A0852E10C0E1B6E1CC103F001011BC154
:1036E000E9FF1CC1EAFFECCF21F1ED52EFCF20F151
:1036F000205305E1215303E1640E016EB8D01CC1D3
:1037000003F01BC1E9FF1CC1EAFFECCF2DF1ED5224
:10371000EFCF2CF12F6B0A0E2E6F0001C8DC01C019
:10372000EFFF02C0ECFF1CC103F001011BC1E9FF68
:103730001CC1EAFFECCF2FF1ED52EFCF2EF1316B30
:103740003C0E306F0001CAEC05F002C021F101C04F
:1037500020F11DC123F11EC124F11FC125F102C0BA
:1037600027F101C026F136DE0B0E0101366F010E86
:10377000376F000110EC06F01B5009085CE30101F3
:103780001BC120F11CC121F11CC103F01BC1E9FFC9
:103790001CC1EAFFECCF2FF1ED52EFCF2EF1316BD0
:1037A0000A0E306F0001CAEC05F002C023F101C01F
:1037B00022F11B5001012227000E232323C12DF1EA
:1037C00022C12CF12F6B640E2E6F000170DC010101
:1037D00021C1EAFF20C1E9FF03C0ECFFED5200C0A8
:1037E000EFFF0C0E1B6E1CC103F01BC1E9FF1CC1D7
:1037F000EAFFECCF2FF1ED52EFCF2EF1316B3C0E03
:10380000306F0001CAEC05F002C021F101C020F1C7
:103810001DC123F11EC124F11FC125F102C027F1F2
:1038200001C026F1D7DD0B0E0101366F010E376F97
:10383000000110EC06F047D70C0E1B6E1CC103F004
:1038400001011BC1E9FF1CC1EAFFECCF2FF1ED52D2
:10385000EFCF2EF1316B3C0E306F0001CAEC05F05A
:1038600001C0EFFF02C0ECFF660E016E0101000116
:1038700053EF22F00101206B0E0E366F010E376FF1
:10388000000110EC06F01B500B08D8B477D01B5089
:103890000A0835E10C0E1B6E0101205303E1650E91
:1038A000016E7ED020C132F10A0E336F00016DEC43
:1038B00006F001C020F11CC103F001011BC1E9FFAA
:1038C0001CC1EAFFECCF22F1ED52EFCF21F12051E4
:1038D0002127000E22231DC123F11EC124F11FC187
:1038E00025F122C127F121C126F1000173DD0E0E61
:1038F0000101366F010E376F000110EC06F01B500E
:1039000009083BE320C132F10A0E0101336F0001C7
:103910006DEC06F000500A0DF3501B240101206FDE
:103920000C0E1B6E1CC103F01BC1E9FF1CC1EAFF9A
:10393000ECCF22F1ED52EFCF21F120C132F13C0E5C
:10394000336F00016DEC06F0005001012127000EDD
:1039500022231DC123F11EC124F11FC125F122C163
:1039600027F121C126F1000135DD0E0E0101366F70
:10397000010E376F000110EC06F085D70C0E1B6EA0
:1039800001011BC1E9FF1CC1EAFF2051EF24016EB8
:10399000000EEC20ED5201C0EFFFEC6E680E016EE0
:1039A00000016AEF22F001012B6B280E2A6F2D6BAC
:1039B0002C6B2F6B2E6B316B306B336B326B356B2B
:1039C000346B376B366B000109EC07F01AA0E5D0B9
:1039D0000101233D3CD0F29CF29EF2BEFDD70C0EBD
:1039E000356F000123EC06F022C12CF1010E01011C
:1039F0002D6F0001F3EC16F0970EF66E020EF76EC7
:103A0000040E01012A6F000159EC06F00101356B2B
:103A1000000123EC06F024C135F123EC06F02C0E56
:103A20000101356F000123EC06F0090EE96E26C195
:103A30002DF125C12CF157EC17F0430E0101356F24
:103A4000000123EC06F0C00EF212A6D001011A50BC
:103A5000040B3FE1F29CF29EF2BEFDD70C0E356FD7
:103A6000000123EC06F022C12CF1010E01012D6FA3
:103A70000001F3EC16F03A0E0101356F000123EC62
:103A800006F023C12AF1030E01012B6F00015FDC58
:103A90000101356B000123EC06F024C135F123EC64
:103AA00006F02C0E0101356F000123EC06F0090E23
:103AB000E96E26C12DF125C12CF157EC17F0430E0C
:103AC0000101356F000123EC06F0C00EF21264D044
:103AD0000101F29CF29EF2BEFDD7286B23C127F1B3
:103AE00028C12FF123C12EF1316B090E306F000177
:103AF000CAEC05F002C028F101C027F102C02DF187
:103B000001C02CF101012F6B050E2E6F000157EC47
:103B100018F002C028F101C027F1200E010127276B
:103B2000000E28230C0E356F000123EC06F022C195
:103B30002CF1010E01012D6F0001F3EC16F03A0E8D
:103B40000101356F000123EC06F00A0EE96E28C171
:103B50002DF127C12CF157EC17F00101356B000155
:103B600023EC06F024C135F123EC06F02C0E010104
:103B7000356F000123EC06F0090EE96E26C12DF128
:103B800025C12CF157EC17F0430E0101356F0001F0
:103B900023EC06F0C00EF212E5D00101233D3CD02B
:103BA000F29CF29EF2BEFDD70C0E356F000123ECA5
:103BB00006F022C12CF1010E01012D6F0001F3EC82
:103BC00016F0AD0EF66E020EF76E040E01012A6FAE
:103BD000000159EC06F00101356B000123EC06F001
:103BE00024C135F123EC06F02C0E0101356F0001E4
:103BF00023EC06F0090EE96E26C12DF125C12CF14A
:103C000057EC17F0530E0101356F000123EC06F05D
:103C1000C00EF212A7D001011A50040B40E1F29C31
:103C2000F29EF2BEFDD70C0E356F000123EC06F0BC
:103C300022C12CF1010E01012D6F0001F3EC16F0F1
:103C40003A0E0101356F000123EC06F023C12AF181
:103C5000030E01012B6F0001A7EC19F00101356B78
:103C6000000123EC06F024C135F123EC06F02C0E04
:103C70000101356F000123EC06F0090EE96E26C143
:103C80002DF125C12CF157EC17F0530E0101356FC2
:103C9000000123EC06F0C00EF21264D00101F29C88
:103CA000F29EF2BEFDD7286B23C127F128C12FF168
:103CB00023C12EF1316B090E306F0001CAEC05F003
:103CC00002C028F101C027F102C02DF101C02CF182
:103CD00001012F6B050E2E6F000157EC18F002C08A
:103CE00028F101C027F1200E01012727000E28230B
:103CF0000C0E356F000123EC06F022C12CF1010EF1
:103D000001012D6F0001F3EC16F03A0E0101356F41
:103D1000000123EC06F00A0EE96E28C12DF127C13F
:103D20002CF157EC17F00101356B000123EC06F084
:103D300024C135F123EC06F02C0E0101356F000192
:103D400023EC06F0090EE96E26C12DF125C12CF1F8
:103D500057EC17F0530E0101356F000123EC06F00C
:103D6000C00EF2120D0E0101366F010E376F000109
:103D700010EC06F012000D0E0101366F010E376FC8
:103D8000000110EC06F0010E0101226F000145EC6C
:103D900018F01B500B08D8B490D01B500A083EE115
:103DA0000C0E1B6E1CC103F001011BC1E9FF1CC1FD
:103DB000EAFFECCF21F1ED52EFCF20F1205305E1E6
:103DC000215303E1640E016E7DD01CC103F01BC1C1
:103DD000E9FF1CC1EAFFECCF2DF1ED52EFCF2CF142
:103DE0002F6B0A0E2E6F000157EC18F001C0EFFF89
:103DF00002C0ECFF1CC103F001011BC1E9FF1CC1A3
:103E0000EAFFECCF26F1ED52EFCF25F11DC122F1F3
:103E10001EC123F11FC124F10001C5DD1B5009089B
:103E20004BE301011BC120F11CC121F11CC103F0B6
:103E30001BC1E9FF1CC1EAFFECCF2DF1ED52EFCF22
:103E40002CF1030E2F6FE80E2E6F000157EC18F0C7
:103E500000C022F1010103C023F103C02FF100C013
:103E60002EF1316B0A0E306F0001CAEC05F001C073
:103E700022F11B5001010124016E000E022021C11C
:103E8000EAFF20C1E9FFEC6EED5201C0EFFF0C0E1E
:103E90001B6E1CC103F01BC1E9FF1CC1EAFFECCF84
:103EA00026F1ED52EFCF25F11DC122F11EC123F104
:103EB0001FC124F1000177DD6CD70C0E1B6E680E5C
:103EC000016E0101000180EF22F01A50080B080872
:103ED0005FE123C126F101012651010858E2010EDC
:103EE000265D296F2F6B2E6F316B030E306F000133
:103EF000CAEC05F001C028F1010E01010124016E98
:103F0000000E0220036E01502425016E255103226C
:103F100001C028F103C029F103C0EAFF01C0E9FF95
:103F2000ECCF2BF1ED52EFCF2AF1020E265D2D6F73
:103F30002F6B2E6F316B030E306F0001CAEC05F052
:103F400002C02DF101C02CF1010E01010124016E0E
:103F5000000E0220036E01502425E96E2551032036
:103F6000EA6EECCF03F0ED52EF502A5D006E035085
:103F70002B59036E00C02AF12B6F29C1EAFF28C11B
:103F8000E9FFEC6EED5200C0EFFF2607A5D7000158
:103F900001012253D8B491D1276B2351275DD8B0AA
:103FA000BFD02251330DF350CE0F286F2751030D90
:103FB000F35028272F6B27C12EF1316B030E306F82
:103FC0000001CAEC05F002C02AF101C029F101018B
:103FD00024512925E96E25512A21EA6EEF50FF0A66
:103FE0002B6FF250006EF29E28C1A9FF2BC1A8FFD3
:103FF000A69CA69EA6840F01550EA76EAA0EA76EBC
:10400000A682A6B2FED7A6940050F2120101225158
:10401000330DF350CF0F286F2751030DF35028278E
:104020002F6B27C12EF1316B030E306F0001CAECEC
:1040300005F002C02AF101C029F1010E0101292574
:10404000016E000E2A21036E01502425E96E2551D0
:104050000320EA6EECCF03F0ED52EF50FF0A296F18
:10406000FF0E03182A6F2AC129F12A6BF250006E45
:10407000F29E28C1A9FF29C1A8FFA69CA69EA684DE
:104080000F01550EA76EAA0EA76EA682A6B2FED786
:10409000A6940050F21201012251330DF350D00FBB
:1040A000286F2751030DF35028272F6B27C12EF1BE
:1040B000316B030E306F0001CAEC05F002C02AF12B
:1040C00001C029F1010E01012925016E000E2A21EE
:1040D000036E01502425E96E25510320EA6EECCFD2
:1040E00003F0ED52EF50FF0A296FFF0E03182A6FFD
:1040F000F250006EF29E28C1A9FF29C1A8FFA69C1C
:10410000A69EA6840F01550EA76EAA0EA76EA682C4
:10411000A6B2FED7A6940050F2120101272B3DD77C
:1041200023511008D8A0C9D02251330DF350CE0F1F
:10413000286F010E2325030DF3502827010E232598
:104140002A6F2F6B2AC12EF1316B030E306F0001E5
:10415000CAEC05F002C02AF101C029F10101245185
:104160002925E96E25512A21EA6EEF50FF0A2B6FAF
:10417000F250006EF29E28C1A9FF2BC1A8FFA69C99
:10418000A69EA6840F01550EA76EAA0EA76EA68244
:10419000A6B2FED7A6940050F21201012251330DAF
:1041A000F350CF0F286F010E2325030DF35028275E
:1041B000010E23252A6F2F6B2AC12EF1316B030EBE
:1041C000306F0001CAEC05F002C02AF101C029F1EC
:1041D000010E01012925016E000E2A21036E0150F6
:1041E0002425E96E25510320EA6EECCF03F0ED5251
:1041F000EF50FF0A296FFF0E03182A6F2AC129F119
:104200002A6BF250006EF29E28C1A9FF29C1A8FFB7
:10421000A69CA69EA6840F01550EA76EAA0EA76E99
:10422000A682A6B2FED7A6940050F2120101225136
:10423000330DF350D00F286F010E2325030DF350DB
:104240002827010E23252A6F2F6B2AC12EF1316BEF
:10425000030E306F0001CAEC05F002C02AF101C064
:1042600029F1010E01012925016E000E2A21036E9C
:1042700001502425E96E25510320EA6EECCF03F0AE
:10428000ED52EF50FF0A296FFF0E03182A6FF2500C
:10429000006EF29E28C1A9FF29C1A8FFA69CA69E78
:1042A000A6840F01550EA76EAA0EA76EA682A6B20F
:1042B000FED7A6940050F21201011D0E016E0001FE
:1042C00012000101226B0001AAEC04F00101226B33
:1042D000000145EC18F01A50E00B006E00380101A7
:1042E000216F2133070E21171B5302E11C532FE0CE
:1042F0001A50080B08082EE11E5101082BE2020E8D
:104300001E5D236F2F6B2E6F316B030E306F00011C
:10431000CAEC05F002C023F101C022F1010E010137
:104320000124016E000E0220036E01501F25E96E6C
:1043300020510320EA6EECCF03F0ED52EFCF01F0F5
:104340001C51035C07E303E101501B5D03E21E0EF9
:10435000016E45D0010E1E5D236F2F6B2E6F316BEA
:10436000030E306F0001CAEC05F001011F5101245A
:10437000E96E20510220EA6E1DC1EFFF010E1E5DA5
:10438000236F2F6B2E6F316B030E306F0001CAEC61
:1043900005F001C022F1010E01010124016E000EA1
:1043A0000220036E01501F25E96E20510320EA6EA2
:1043B0001CC1ECFFED521BC1EFFF1E5111080DE1B6
:1043C00021C122F11EC123F120C125F11FC124F119
:1043D00000017BDD0150010102D01F0E016E0001C2
:1043E00097EF22F00101156B176B166B430E186FD8
:1043F0001A50040B006E003200323F0E00160050BF
:1044000002E0460E186F640E196F12C103F011C15D
:10441000E9FF12C1EAFFEFCF23F1256B246B18C12E
:1044200026F10001BAEC17F0010E0101226F000124
:1044300045EC18F0010E0101226F0001AAEC04F016
:1044400001011951640A000109E0010A18E0030A98
:104450002DE0010A42E00F0A56E06CD0010E010186
:104460001B6F150E1A6F12C11DF111C11CF118C17D
:104470001EF100017AEF18F001C019F160D012C1ED
:1044800003F0010111C1E9FF12C1EAFFEFCF1DF1F5
:10449000010E1C6F160E1B6F15C11EF118C11FF106
:1044A00000015BEF1BF001C019F149D012C103F00C
:1044B000010111C1E9FF12C1EAFFEFCF1DF1010EA9
:1044C0001C6F160E1B6F15C11EF118C11FF10001E4
:1044D0003AEF1CF001C019F132D012C103F0010112
:1044E00011C1E9FF12C1EAFFEFCF1DF1010E1C6FF0
:1044F000160E1B6F15C11EF118C11FF100013BD430
:1045000001C019F11CD012C103F011C1E9FF12C1A1
:10451000EAFFEFCF1EF117C11CF116C11BF115C147
:104520001DF114C120F113C11FF10001CAD601C051
:1045300019F105D0010119C101F003D0000180D7A4
:104540000101000148EF2EF01A50030BFC0F65E249
:10455000040F64EF23F0F29CF29EF2BEFDD7180E1A
:10456000F66E080EF76E48EC0CF0C00EF21255D045
:10457000F29CF29EF2BEFDD7200EF66E080EF76E8C
:1045800048EC0CF0C00EF21248D0F29CF29EF2BE43
:10459000FDD7280EF66E080EF76E48EC0CF0C00E34
:1045A000F2123BD001012B6BA00E2A6F2D6B780EFF
:1045B0002C6F2F6B2E6B316B306B336B326B356B1B
:1045C000346B376B366B000109EC07F0F29CF29EFE
:1045D000F2BEFDD7340EF66E080EF76E030E010123
:1045E0002A6F000159EC06F00101356B000123EC44
:1045F00006F0410E0101356F000123EC06F0010EBB
:104600000101356F000123EC06F04F0E0101356FFB
:10461000000123EC06F0C00EF2121B500A080DE157
:104620000C0E1B6E01010FC1E9FF10C1EAFF010E64
:10463000EF6E000E016E45D000011B500B083FE1EC
:104640000C0E1B6E1A50E00B0101116FF2CF12F12C
:10465000F29EA96AA69CA69EA680A85012BFF28EC2
:10466000FF0AE00B115D27E0F2CF11F1F29EA96A7B
:10467000A69CA69EA680A85011BFF28EFF0A1F0B13
:10468000126F1A50E00B1211FF0A126FF250006EF7
:10469000F29EA96A12C1A8FFA69CA69EA6840F013D
:1046A000550EA76EAA0EA76EA682A6B2FED7A69436
:1046B0000050F2120101200E016E03D00001ADD7AF
:1046C0000101000152EF2EF0E824F76AF736E30FFC
:1046D000F66E460EF7220A00F550FA6E0800F55005
:1046E000F96E564570458A45A445010E0101226FB9
:1046F0000001AAEC04F01A50030BFC0FD8B0A7D0AD
:10470000040F36EF24F0F29CF29EF2BEFDD73E0E6F
:10471000F66E080EF76E48EC0CF0C00EF21297D051
:10472000F29CF29EF2BEFDD7500EF66E080EF76EAA
:1047300048EC0CF0C00EF2128AD0F29CF29EF2BE4F
:10474000FDD7620EF66E080EF76E48EC0CF0C00E48
:10475000F2127DD001012B6BA00E2A6F2D6B900EF3
:104760002C6F2F6BC80E2E6F316B700E306F336B4A
:10477000780E326F356B800E346F376B366B0001FD
:1047800009EC07F0F29CF29EF2BEFDD7740EF66EB5
:10479000080EF76E030E01012A6F000159EC06F0B6
:1047A0000101356B000123EC06F0790EF66E080E60
:1047B000F76E060E01012A6F000159EC06F0010E9A
:1047C0000101356F000123EC06F0450E0101356F44
:1047D000000123EC06F0020E0101356F000123EC0D
:1047E00006F0840EF66E080EF76E030E01012A6FB6
:1047F000000159EC06F0030E0101356F000123ECB6
:1048000006F0540E0101356F000123EC06F0450E51
:104810000101356F000123EC06F0040E0101356F34
:10482000000123EC06F0050E0101356F000123ECB9
:1048300006F0480E0101356F000123EC06F0410E31
:104840000101356F000123EC06F0C00EF2121B507F
:104850000C08D8B4FCD70C0E1B6E0101226B0001B2
:10486000AAEC04F01C0E016E57EF2EF0E824F76A54
:10487000F736870FF66E480EF7220A00F550FA6EEB
:104880000800F550F96E064720473A4754471A503A
:10489000E00B006E00380101156F1533070E151778
:1048A0001A50030BFC0FD8B0B2D0040F000133EF45
:1048B00025F001012B6B300E2A6F2D6B2C6B2F6BAB
:1048C0002E6B316B306B336B326B356B346B376BFC
:1048D000366B000109EC07F0F29CF29EF2BEFDD7A8
:1048E0000C0E0101356F000123EC06F00101356B60
:1048F000000123EC06F0950EF66E080EF76E0B0E17
:1049000001012A6F000159EC06F0C00EF2120101FC
:104910007ED0F29CF29EF2BEFDD7A20EF66E080E7D
:10492000F76E48EC0CF0C00EF212010170D0F29C50
:10493000F29EF2BEFDD7B20EF66E080EF76E48EC90
:104940000CF0C00EF212010162D001012B6B900E2F
:104950002A6F2D6B980E2C6F2F6BA80E2E6F316B5C
:10496000A00E306F336B326B356B346B376B366B3D
:10497000000109EC07F0F29CF29EF2BEFDD70C0E8E
:104980000101356F000123EC06F00101356B0001D8
:1049900023EC06F0500E0101356F000123EC06F008
:1049A000590E0101356F000123EC06F0010E0101E3
:1049B000356F000123EC06F0410E0101356F000157
:1049C00023EC06F0020E0101356F000123EC06F026
:1049D000CA0EF66E080EF76E030E01012A6F000173
:1049E00059EC06F0030E0101356F000123EC06F0CF
:1049F000CF0EF66E080EF76E030E01012A6F00014E
:104A000059EC06F0C00EF212010101D001011B5059
:104A10000A0816E10C0E1B6E12C103F011C1E9FF6A
:104A200012C1EAFFEFCF23F115C122F114C125F124
:104A300013C124F1000165EC1FF0015011D00101F8
:104A40001B500B080CE10C0E1B6E11C1E9FF12C1CB
:104A5000EAFFEF2A1C0E016E000102D00101D7D738
:104A6000000164EF2EF0E824F76AF736810FF66E46
:104A70004A0EF7220A00F550FA6E0800F550F96E5A
:104A8000B24812492E494A491A50030BFC0F69E2F9
:104A9000040FB3EF25F0F29CF29EF2BEFDD7000E9C
:104AA000F66E020EF76E48EC0CF0C00EF21259D002
:104AB000F29CF29EF2BEFDD70E0EF66E020EF76E5F
:104AC00048EC0CF0C00EF2124CD0F29CF29EF2BEFA
:104AD000FDD71C0EF66E020EF76E48EC0CF0C00E01
:104AE000F2123FD001012B6B600E2A6F2D6BC80EA6
:104AF0002C6F2F6B2E6B316B306B336B326B356BD6
:104B0000346B376B366B000109EC07F0F29CF29EB8
:104B1000F2BEFDD7280EF66E020EF76E030E0101EF
:104B20002A6F000159EC06F00101356B000123ECFE
:104B300006F0410E0101356F000123EC06F0010E75
:104B40000101356F000123EC06F0300EF66E020E07
:104B5000F76E050E01012A6F000159EC06F0C00E38
:104B6000F212F0981200E824F76AF736810FF66E19
:104B70004B0EF7220A00F550FA6E0800F550F96E58
:104B8000964AB04ACA4AE44AA50ECD6EC00EF21249
:104B90009D8024EF29F0C050C00B0709C06EC08E65
:104BA000C280C150C00B3E09C16E2DEF29F08E0EA0
:104BB000006E26C101F025C102F0036A015209E12D
:104BC00002C001F0026A080E005E015202E1006AB2
:104BD00008D0D89001BE04D0023601360006F9D7BD
:104BE000019E120001012A51D8B471D0006E2E51DD
:104BF000D8B46DD0002604E3810E002668E204D00C
:104C00007F0E005E64E363E02BC132F12F51321B53
:104C10002B8F2F8F2D513103F4CF34F12C513003D2
:104C2000F4CF03F0F3CF33F13103F3503427F450D2
:104C30003323000E03222D513003F3503427F45058
:104C40003323000E026A032202222B513103F35058
:104C50003327F4500322000E02222B513003F3506D
:104C60000326F4500222000E016A01222D512F0367
:104C7000F3503327F4500322000E022201222C515C
:104C80002F03F3500326F4500222000E01222B5171
:104C90002F03F3500226F4500122002A01BE05D052
:104CA00033370336023601360006000E33AF0AD022
:104CB000032A02220122015005E1025003E10350C0
:104CC00001E1002A32BF018E32AF019E04D0006A9A
:104CD000016A026A036A00011200C282C2B2FED7F0
:104CE000C4CF26F1C3CF25F1000161DF03C020F15D
:104CF00002C01FF101C01EF100C01DF1010E010133
:104D0000366F0001CEEC04F020C12DF11FC12CF153
:104D10001EC12BF11DC12AF15F0E0101316F070E7B
:104D2000306F020E2F6F7D0E2E6F00015BDF03C010
:104D300024F102C023F101C022F100C021F1D89278
:104D4000196AF2BE198EF29E03C046F102C045F107
:104D500001C044F100C043F101014A6B496B486B4B
:104D6000476B00015FEC01F019BEF28E12000101E9
:104D70002351D8B4A5D02F6F2751D8B4A1D02F5F1D
:104D800005E37F0E2F27D8B09BD006D0810E2F5F72
:104D9000D8A096D0D8B494D02FC100F0016A026A8E
:104DA000036A2E6B24C12DF12D8F25C12CF126C154
:104DB0002BF1190E2F6F2A512B5F0DE2010E2C5F84
:104DC0000AE22D5F08E22E5F06E22E2B2D2B2C2B04
:104DD0002A512B2728D029512C5F12E2010E2D5F7A
:104DE0000FE22E5F0DE22E2B2D2B29512C272A515D
:104DF0002B2719E32C2B17E12D2B15E12E2B13D08C
:104E0000285180092D5F0EE2010E2E5F0BE22E2B42
:104E1000285180092D2729512C27E9E32D2BE7E183
:104E20002E2BE5D703802F2F01D00BD0D8902B3716
:104E30002C372D372E37D8900336023601363037CF
:104E4000BAD730A106D0D8900132023203323033C3
:104E500002D0000635E030BF1ED0D8902B372C375B
:104E60002D372E372A512B5F07E2010E2C5F04E20B
:104E70002D5F02E22E5F1AE329512C5F05E2010E3D
:104E80002D5F02E22E5F12E3285180092D5F03E2BD
:104E9000010E2E5F0BE3032A09E1022A07E1012A32
:104EA00005E1002A0DE001320232033224C12FF164
:104EB00028512F1B2FAF02D0018E06D0019E04D0A7
:104EC000006A016A026A036A0001D4EF29F0B60E93
:104ED000006E036A026A016A010121512211231145
:104EE000241102E1006A0DD0D89001BE09D021370B
:104EF000223723372437033602360136002EF4D703
:104F0000019E00012EEF2AF026C12DF101012A5148
:104F10002D1B2DAF05D0D894D89026BFD8802FD088
:104F200026C12DF129C12EF125512E5F06E02DAFAE
:104F300026D0D850010AD86E22D02AC12EF126518F
:104F40002E5F06E02DAF1BD0D850010AD86E17D0C7
:104F50002BC12EF127512E5F06E02DAF10D0D85077
:104F6000010AD86E0CD02CC12EF128512E5F06E01C
:104F70002DAF05D0D850010AD86E01D0D8900001CD
:104F800012001DC136F11EC137F110EC06F02FECF6
:104F900005F001C020F1010101AE02D00001F7D7F8
:104FA0008982929200012FEC05F001C01FF18992D5
:104FB000929201011FC101F000011DEF2BF0D8B248
:104FC00004D0010EEA6E320EE96E006A016A026ACE
:104FD000036A0101326B336B346B356B3151301125
:104FE0002F112E112CE0200E366FD8902A372B3738
:104FF0002C372D3732373337343735373151355D2C
:1050000008E13051345D05E12F51335D02E12E514D
:10501000325D0FE32E51325F2F51D8A02F3D335F09
:105020003051D8A0303D345F3151D8A0313D355F8B
:10503000D8800036013602360336362FD6D732C135
:10504000EFFF33C1ECFF34C1ECFF35C1ECFF0001D1
:10505000120001012A51B6082A6F036A2BC12EF1F2
:105060002B8FD8902B332C332D3303320232013265
:1050700000322A2FF6D72EAF0BD0001E011E021EC3
:10508000031E002AD8B4012AD8B4022AD8B4032AAD
:10509000000176EF28F0E9500101226F2151246FC1
:1050A0001BE020C12DF11FC12CF11EC12BF11DC130
:1050B0002AF1316B306B200E2F6F820E2E6F0001A4
:1050C00091DD03C020F102C01FF101C01EF100C03C
:1050D0001DF10101242FE5D720C12DF11FC12CF1B5
:1050E0001EC12BF11DC12AF10001B3D703C020F16D
:1050F00002C01FF101C01EF100C01DF1010120AF6F
:105100000DD02207228B1D1F1E1F1F1F201F1D2BAE
:10511000D8B41E2BD8B41F2BD8B4202B3B0E296F2C
:105120009A0E286FCA0E276F266B0A0E246F215124
:10513000D8B4222BD882010EEA6E1D0EE96E20C172
:105140002DF11FC12CF11EC12BF11DC12AF129C166
:1051500031F128C130F127C12FF126C12EF1000114
:105160002EDF0150005213E101012129245DD8A452
:1051700002D000010CD022510DE00F0B245D01E0A4
:1051800044E222BF42D022BD05D0200E37D0200EEF
:105190000101221722AB0FD0229B2151D8A4220754
:1051A0000050226F2D0E356F000123EC06F0010137
:1051B0002251006E226B2151245D0DE10050226FBF
:1051C0002E0E356F000123EC06F001012251006E16
:1051D000200E2217000E300E22AB10D0229B215140
:1051E000D8A422070050226F2D0E356F000123EC4A
:1051F00006F001012251006E226B300E002600C025
:1052000035F1000123EC06F00101D89229C12DF1FE
:1052100028C12CF127C12BF126C12AF1316B306B4B
:105220002F6B0A0E2E6F0001CADE03C029F102C0E7
:1052300028F101C027F100C026F10101242F7AD7FF
:105240000001120021DCA0D401011B6B1A6B600E5F
:10525000196F810E186F00019ED4010E0101366F87
:105260000001CEEC04F039DD03C017F102C016F1E5
:1052700001C015F100C014F1010E0101366F0001EB
:10528000CEEC04F017C123F016C122F015C121F0B5
:1052900014C120F001011C6B10511C5DD8B0C9D2A3
:1052A0002F6B1CC12EF1316B030E306F0001CAEC65
:1052B00005F002C01EF101C01DF1010111510124D0
:1052C000E96E12510220EA6E266BEFCF25F1000144
:1052D0006EDCEACF21F1E9CF20F1D882196AF2BE63
:1052E000198EF29E03C046F102C045F101C044F19F
:1052F00000C043F117C14AF116C149F115C148F187
:1053000014C147F15FEC01F019BEF28E21C1EAFF32
:1053100020C1E9FF03C022F102C021F101C020F148
:1053200000C01FF101012F6B1CC12EF1316B030E68
:10533000306F0001CAEC05F001C023F1010E01013C
:105340000124016E000E0220036E01501125E96E4A
:1053500012510320EA6EECCF26F1ED52EFCF25F18A
:10536000000125DC03C02DF102C02CF101C02BF19E
:1053700000C02AF11BC131F11AC130F119C12FF15E
:1053800018C12EF12FDC22C126F121C125F120C147
:1053900024F11FC123F103C02AF102C029F101C089
:1053A00028F100C027F1E3D403C01FF002C01EF0B3
:1053B00001C01DF000C01CF0010113811383276A96
:1053C000266A256A246A13B102D013A330D22F6B48
:1053D0001CC12EF1316B030E306F0001CAEC05F0D9
:1053E00002C01EF101C01DF1010E01010124016E78
:1053F000000E0220036E01501125E96E12510320A8
:10540000EA6EECCF03F0ED52EFCF25F103C026F1A9
:105410000001D7EC25F01BC12DF11AC12CF119C1E7
:105420002BF118C12AF103C031F102C030F101C0E3
:105430002FF100C02EF1F2EC25F003C020F102C0E4
:105440001FF101C01EF100C01DF127C024F126C0CC
:1054500023F125C022F124C021F139D520C128F142
:105460001FC127F11EC126F11DC125F103C02CF17A
:1054700002C02BF101C02AF100C029F145DD01E293
:1054800003E101011391000128DC03C017F102C000
:1054900016F101C015F100C014F1D882196AF2BEEC
:1054A000198EF29E23C046F122C045F121C044F17D
:1054B00020C043F101014A6B496B486B800E476F76
:1054C00000015FEC01F019BEF28E17C128F116C180
:1054D00027F115C126F114C125F103C02CF102C03A
:1054E0002BF101C02AF100C029F10EDD01E202E139
:1054F000949E8B8ED892196AF2BE198EF29E23C0AA
:1055000046F122C045F121C044F120C043F1010120
:105510004A6B496B486B800E476F00015FEC01F0EE
:1055200019BEF28E03C028F102C027F101C026F196
:1055300000C025F117C12CF116C12BF115C12AF1BC
:1055400014C129F1E1DC01E202E1949E8B9E01018C
:105550002F6B1CC12EF1316B030E306F0001CAECB2
:1055600005F002C01EF101C01DF10101115101241D
:10557000E96E12510220EA6EEF50266B256F000192
:10558000D7EC25F0EACF20F1E9CF1FF1D882196AD4
:10559000F2BE198EF29E17C146F116C145F115C132
:1055A00044F114C143F103C04AF102C049F101C002
:1055B00048F100C047F15FEC01F019BEF28E20C146
:1055C000EAFF1FC1E9FF03C024F102C023F101C0BB
:1055D00022F100C021F100C000F001C001F002C0C2
:1055E00002F003C003F0019E03C024F102C023F1C6
:1055F00001C022F100C021F103C028F102C027F14F
:1056000001C026F100C025F101012C6B2B6B2A6B28
:10561000800E296F000178DC03E301011393000180
:105620001B500A08D8A4A2D00C0E1B6E0A0E010152
:105630001D6F010E1E6F0001A4D401502E08D8A4C6
:1056400093D01A50030BFC0FD8B08BD0040F1EEF71
:105650002CF001012B6B300E2A6F2D6B2C6B2F6BF6
:105660002E6B316B306B336B326B356B346B376B4E
:10567000366B000109EC07F0F29CF29EF2BEFDD7FA
:105680000C0E0101356F000123EC06F00101356BB2
:10569000000123EC06F0D70EF66E080EF76E090E29
:1056A00001012A6F000159EC06F0C00EF21259D028
:1056B000F29CF29EF2BEFDD7E20EF66E080EF76E79
:1056C00048EC0CF0C00EF2124CD0F29CF29EF2BEEE
:1056D000FDD7F00EF66E080EF76E48EC0CF0C00E1B
:1056E000F2123FD001012B6B600E2A6F2D6BC80E9A
:1056F0002C6F2F6B2E6B316B306B336B326B356BCA
:10570000346B376B366B000109EC07F0F29CF29EAC
:10571000F2BEFDD7FC0EF66E080EF76E030E010109
:105720002A6F000159EC06F00101356B000123ECF2
:1057300006F0410E0101356F000123EC06F0010E69
:105740000101356F000123EC06F0040EF66E090E20
:10575000F76E050E01012A6F000159EC06F0C00E2C
:10576000F212F088F19802D044EC25F01B500B089F
:1057700005E10C0E1B6E210E016E5DD0D882010E6C
:10578000EA6E1D0EE96E27C02DF126C02CF125C052
:105790002BF124C02AF10101316B306B2F6B0A0E03
:1057A0002E6F00010CDC20C124F11FC123F11EC1AA
:1057B00022F11DC121F10101215338E1225336E1CB
:1057C000235334E1245332E10A0EF66E090EF76ECC
:1057D0000A0E2A6F000159EC06F0890EE96E17C116
:1057E00020F116C11FF115C11EF114C11DF1020EE9
:1057F0000101216F00014FDC160EF66E090EF76EE7
:105800000A0E01012A6F000159EC06F0890EE96EBB
:1058100023C020F122C01FF121C01EF120C01DF1C4
:10582000020E0101216F000136DC0101CCD51C2BD9
:1058300033D5210E016E000170EF2EF0E824F76AD7
:10584000F736570FF66E580EF7220A00F550FA6E2B
:105850000800F550F96E5256B056CA56E456010E7D
:105860000101226F0001AAEC04F09D90949E8B9E92
:105870001A50030BFC0FD8B077D0040FD5EF2CF0E3
:10588000F29CF29EF2BEFDD7240EF66E090EF76E64
:1058900048EC0CF0C00EF21267D0F29CF29EF2BE01
:1058A000FDD7300EF66E090EF76E48EC0CF0C00E08
:1058B000F2125AD0F29CF29EF2BEFDD7380EF66E6E
:1058C000090EF76E48EC0CF0C00EF2124DD001013B
:1058D0002B6B880E2A6F2D6BA00E2C6F2F6BC00EBA
:1058E0002E6F316BC80E306F336B326B356B346B90
:1058F000376B366B000109EC07F0F29CF29EF2BEAA
:10590000FDD70C0E0101356F000123EC06F00101FB
:10591000356B000123EC06F0450EF66E090EF76EAE
:10592000040E01012A6F000159EC06F0010E01017D
:10593000356F000123EC06F04B0EF66E090EF76E84
:10594000030E01012A6F000159EC06F0020E01015D
:10595000356F000123EC06F0030E0101356F0001E5
:1059600023EC06F0C00EF2121B500C08D8B4FCD782
:105970000C0E1B6E0101226B0001AAEC04F010C199
:1059800012F10FC111F1DBEC05F01A50E00B006EC3
:10599000003A0032070E0016005003E1050E016EBA
:1059A00002D0000E016E79EF2EF0E824F76AF73688
:1059B000C50FF66E590EF7220A00F550FA6E080070
:1059C000F550F96E80589A58B458CE58F86AD09E5F
:1059D000078E700ED36ED350F2CF0FF1F29EA96AEC
:1059E000A69CA69EA680A85001010FBFF28EFF0ABA
:1059F0001A6E0001D96BD86BC150C00B0F09C16E74
:105A0000070EB46E5AD003002802050205C000310B
:105A1000800400040810110E000E11101010110E59
:105A200004130C11191513110002041F101F101F6D
:105A30000008041F101F101F0002040E1111110E88
:105A4000001F06C011128000040E1515150E04006B
:105A500011111315191111000F04C0051D8015092E
:105A6000001010101F11111F001E01010E01011E58
:105A7000000F050509111F11001F1105C01031800D
:105A8000001111110F010101000F11110F05091172
:105A9000001F11101E11111F001215151D151512D2
:105AA0000011111119151519000A041113151911F6
:105AB0000006C01502801F010000000EF86E5A0E8D
:105AC000F76E060EF66E0900F550006E000A13E040
:105AD0000900F550016EE8BE05D00F0BEA6E090013
