:10000000DDEF03F0949A8B9A1200E6C101F0E5C18E
:1000100000F00066012A0900F5CFEEFF002E0BEF7D
:1000200000F0012E0BEF00F0F86A1200C950F8C181
:10003000C9FFC730FEE3C9CF00F01200949C8B9C2F
:10004000F7C1F8F1F3DF949C8B8C1200010EEA6E7D
:10005000E50EE96EEF500DE0020E016E006A002E13
:10006000FED7012EFBD7970E006E002EFED7EF2E87
:10007000F3D71200949A8B8A1200C4DF0101DF517A
:10008000036EDE51DE2BD8B4DF2BF66E03C0F7FF14
:10009000F86A010EEA6EE40EE96EE66B010EE56F9A
:1000A0000001B3DFE4C1E0F10101E051E007000A23
:1000B000D8B481D0DF51036EDE51DE2BD8B4DF2BF4
:1000C000F66E03C0F7FFF86A010EEA6EE40EE96E01
:1000D000E66B010EE56F000198DFE4C1F7F1AEDFDA
:1000E0000101DF51036EDE51DE2BD8B4DF2BF66E3B
:1000F00003C0F7FFF86A010EEA6EE40EE96EE66BE4
:10010000010EE56F000181DFE4C1E1F10101E15180
:10011000800BE26FE36BE19FE151E107000A18E019
:10012000DF51036EDE51DE2BD8B4DF2BF66E03C039
:10013000F7FFF86A010EEA6EE40EE96EE66B010E57
:10014000E56F000162DFE4C1F8F170DF0101E4D77F
:10015000E251E3112FE0DF51036EDE51DE2BD8B404
:10016000DF2BF66E03C0F7FFF86A010EEA6EE40EAD
:10017000E96EE66B010EE56F000147DF0101E36BFD
:10018000E4C1E2F1E23D06D0E35304E1010EE36F86
:10019000F40EE26FE3C1E4F1E42BE407D8B405D038
:1001A000E569000153DF0101F8D7E2C1E5F1000183
:1001B0004DDF01017AD700015DDF8BEF01F0010116
:1001C000E451016AE35D03E2E3C100F00CD0006A90
:1001D000080EE56FE3370036E451005CD8B0006EDE
:1001E0000136E52FF7D7000112000101DF6BDE5168
:1001F000030BD16FD151FC0F30E2040F000161EF0E
:1002000001F0C00E0101DF6FCFC1CDF1D0C1CEF141
:10021000840ECB6FA20ECC6F20D0A00E0101DF6F39
:10022000D0C1CDF1CFC1CEF1A20ECB6F840ECC6F79
:1002300014D00101DF6BCD6BCE6B840ECB6FA20EA1
:10024000CC6F0BD0600E0101DF6FCD6BCE6BA20EB9
:10025000CB6F840ECC6F01D00101CBC1E3F1060E50
:10026000E46F0001ACDF020E015C0101D26FCBC173
:10027000E3F1D2C1E4F10001A2DFD8900130010125
:10028000D36FCC31006E003200321F0E00160050CA
:10029000FF0FD46FCCC1E3F1D4C1E4F100018FDFD3
:1002A000010E01240101D56F0001ACDE360E010103
:1002B000F76F0001C3DEDFC1F8F1B8DEDBDE96EFD9
:1002C00001F0E824F76AF736DD0FF66E020EF7222A
:1002D0000A00F550FA6E0800F550F96E02021A0293
:1002E000320244028FDE0101DE5302E0210E01D012
:1002F000200EDF6FF76F0001A1DEBCDE9AEF01F088
:10030000949A8B8A949A949C7F0E0101DF6FDC0E85
:10031000DE6F0001B2D60101CF6BD06BA20ECC6FA5
:10032000840ECB6F030EDE6F00015FD70101DE6B21
:100330000001D8D7F4EF04F00101CD51F327CE51DD
:10034000F4272A0EF76F000179DE0101F86B000136
:100350006DDEF3C1F8F16ADE0101F86B000166DEC3
:100360000101F551F325FF0FF76FF86F00015EDE15
:100370002B0E0101F76F000161DE0101F86B000136
:1003800055DEF4C1F8F152DE0101F86B00014EDEDA
:100390000101F651F425FF0FF76FF86F000146DEFB
:1003A0002C0E0101F76F000149DE12000101ED5131
:1003B000EF03F3CF01F0F4CF00F0F003F350002689
:1003C000EE51EF03F3500020026E00011200010114
:1003D000E35350E0E4534EE0E6C1E7F1E5C1E8F154
:1003E000CB51E15D03E2CC51E25D01E343D0E35147
:1003F000E125FF0FCB5D01E003E2E151CB5DE36F4F
:10040000E451E225FF0FCC5D01E003E2E251CC5D57
:10041000E46F0001F7DDE1C1F3F1E2C1F4F1E3C102
:10042000F5F1E4C1F6F188DF0101EC6BE3C1EBF11A
:10043000ECC1EEF1E3C1EDF1F06BE4C1EFF10001CD
:10044000B5DF02C0EAF101C0E9F10101EAC103F040
:10045000E951D8B4EA07E907031009E0E7C1F8F168
:100460000001E4DDE8C1F8F1E1DDEFD701010001B1
:1004700001DE0101000112000101E16BE26BCBC161
:10048000E3F1CCC1E4F1DFC1E6F1DEC1E5F1000149
:100490009EDF05EF05F00101CB51EF5D21E2CC516C
:1004A000F05D1EE20001AEDDEFC1F3F1F0C1F4F149
:1004B000010E0101F56FF66F00013EDFF2C1F3F1AD
:1004C0000101F46BF2C1F8F10001B0DD0101F1C1ED
:1004D000F3F1F46BF1C1F8F10001A8DDCBDD01010E
:1004E000000112000101EB6BEB5104083DE3EC6BE2
:1004F000EC51070837E3EB51E925E96E000EEA21DC
:10050000EA6EEFCF00F0EC51016E04E0D8900032BB
:10051000012EFCD70050010B12E0EB51E325ED6FEB
:10052000070EE45DEC25EE6FEDC1EFF1F06FE6C173
:10053000F2F1E5C1F1F10001AEDF11D00101EB51A3
:10054000E325ED6F070EE45DEC25EE6FEDC1EFF1F5
:10055000F06FE8C1F2F1E7C1F1F100019CDF0101A8
:10056000EC2BC6D7EB2BC0D7000169EF03F00101DC
:10057000CB51E15D37E2CC51E25D34E2E35332E04E
:10058000E5C1E6F1E4C1E7F1CB51E15D03E2CC5115
:10059000E25D01E327D0E351E125FF0FCB5D01E0F0
:1005A00003E2E151CB5DE36F00012CDDE1C1F3F12A
:1005B000E2C1F4F1E3C1F5F1010E0101F66F0001B2
:1005C000BBDE0101E351E307000A09E0E6C1F8F1EF
:1005D00000012CDDE7C1F8F129DDF3D701010001AD
:1005E00049DD010100019CEF03F00101E0510C081D
:1005F00014E1E16BE26BD8C1E3F1D7C1E4F1DCC1F6
:10060000E6F1DBC1E5F10001E2DED3C1D8F1D3C1EF
:10061000D6F1D5C1D7F190D00101E0510A0805E12A
:10062000080ED727D3C1D6F188D0E05182082AE23C
:10063000E051B00803E12F0EE06F24D0E051C40870
:1006400003E1230EE06F1ED0E051C70803E12B0E3B
:10065000E06F18D0E051DB0803E1400EE06F12D0EC
:10066000E051D7080BE3E0C1E3F10D0EE46F0001A8
:10067000A6DD210E00240101E06F04D0E051030B40
:100680003B0FE06F200EE05DE26FEE6BED6FF06B05
:10069000050EEF6F00018ADE02C003F00150040F67
:1006A000016E000E032201C0E1F103C0E2F1D6C1E8
:1006B000E3F1D7C1E4F1DAC1E6F1D9C1E5F1DCC17A
:1006C000E8F1DBC1E7F103C0EAF101C0E9F10001A3
:1006D00009D7060E0101D627D651D85DD8A0D6C1BC
:1006E000D8F1D351D65DE26FE36F060EE46F0001DF
:1006F00066DD01500101D25D04E2D3C1D6F1080EDE
:10070000D727D551D75D006E0032003200321F0E60
:1007100000160050D45DD8A0D5C1D7F1DDA10DD011
:10072000D6C1E1F1D7C1E2F1050EE36FDAC1E5F11F
:10073000D9C1E4F100011BD70101000112000150F1
:10074000DEC1E3F1640E0101E46F000138DD00C099
:10075000DEF10150300E08E10101DFA30FD0DFB759
:100760000DD0DFB9200E04D00101DF97DF99DF81C2
:10077000012601C0E0F1000138DF0101DEC1E3F133
:100780000A0EE46F00011BDD00C0DEF10150300EE7
:1007900008E10101DFB70AD0DFA108D0DFB9200EE0
:1007A0000001012601C0E0F120DF0101300EDE274B
:1007B000DEC1E0F1000119DF1200F86AD09E700E70
:1007C000D36ED350C69A400EC76E300EC66E949E3E
:1007D000938093920101DD91C150C00B0F09C16E4E
:1007E000070EB46EE0D005400400D8807F010101FF
:1007F000037D0A12217D702927217F384446453820
:100800001C227F221C7C555654547C545655540748
:100810000808087F20413F017F30484540203E4185
:10082000C141227F494949737F0101017F00303076
:10083000000000020502003E5149453E00427F4053
:100840000042615149462141454B311814127F1035
:1008500027454545393C4A49493001710905033668
:1008600049494936064949291E00363600007F4865
:100870004848387F407F40FF7F083E413E46291967
:10088000097F02015109067F4830007F7E11111156
:100890007E7F494949363E414141227F4141413EA7
:1008A0007F494949417F090909013E4149497A7F08
:1008B0000808087F00417F41002040413F017F0838
:1008C0001422417F04C04055807F0102017F7F04D4
:1008D00008107F3E4141413E7F090909063E4151D2
:1008E000215E7F09192946464949493101017F01A5
:1008F000013F4040403F1F2040201F3F4038403FC5
:10090000631408146307087008076151494543419F
:10091000494949367F1008047F7C2112097C0FC0A9
:1009200000828020545454787F48444438384444EA
:100930004420384444487F3854545418087E0901F0
:1009400002064949493F7F0804047800447D40007D
:100950002040423F007F1028440000417F40007C3F
:10096000041804787C0804047C38444444387C141B
:10097000141408081414187C7C08040408485454FF
:100980005424023F4240203C4040207C1C20402018
:100990001C3C4030403C44281028440C5050503CF3
:1009A0004464544C4400000EF86E070EF76EE60ED9
:1009B000F66E0900F550006E000A13E00900F550CC
:1009C000016EE8BE05D00F0BEA6E0900F5CFE9FF16
:1009D00001BC090001AC0900F5CFEEFF004EE9D7DC
:1009E000F9D7F86A00018CD4D3C1D6F1D5C1D7F1BB
:1009F000D6C1D8F10101DA69D969DC6BDB6BDCC1E6
:100A0000DFF1DBC1DEF1000137D5D2C1DEF11B0E13
:100A10000101DF6F000193DE0A0E0101E06F0001AA
:100A2000E4DDD3C1DEF11B0E0101DF6F000187DEC3
:100A30000A0E0101E06F0001D8DDD4C1DEF11B0E0A
:100A40000101DF6F00017BDE0A0E0101E06F000192
:100A5000CCDDD5C1DEF11B0E0101DF6F00016FDEC1
:100A60000A0E0101E06F0001C0DDCBC1DEF11B0EFB
:100A70000101DF6F000163DE0A0E0101E06F00017A
:100A8000B4DDCCC1DEF11B0E0101DF6F000157DECA
:100A90000A0E0101E06F0001A8DDCDC1DEF11B0EE1
:100AA0000101DF6F00014BDE0A0E0101E06F000162
:100AB0009CDDCEC1DEF11B0E0101DF6F00013FDEC8
:100AC0000A0E0101E06F000190DDCFC1DEF11B0EC7
:100AD0000101DF6F000133DE0A0E0101E06F00014A
:100AE00084DDD0C1DEF11B0E0101DF6F000127DEC6
:100AF0000A0E0101E06F000178DDD1C1DEF11B0EAD
:100B00000101DF6F00011BDE0A0E0101E06F000131
:080B10006CDD000E016E030014
:047FDC000901809681
:107FE0001180FF3A81550A3601082A0400000084F6
:107FF0002B04000000A221800A13800A2980FFFFC1
:020000040030CA
:0E00000027C83E1E000781000FC00FE00F4012
:00000001FF
;PIC18F2550
;CRC=B568  CREATED="22-dic.-21 11:18"
