:0400000016EF31F0D6
:08000800046ED8CF05F0E0CF33
:1000100006F00001E9CF0CF0EACF07F0E1CF08F0DD
:10002000E2CF09F0D9CF0AF0DACF0BF0F3CF12F01C
:10003000F4CF13F0FACF14F0F5CF15F0F6CF16F099
:10004000F7CF17F000C00EF001C00FF002C010F0A3
:1000500003C011F0F2AA30EF00F0F2B4BEEF00F0EE
:100060009DA036EF00F09EB0B1EF03F0F0A83CEF9A
:1000700000F0F0B263EF00F00EC000F00FC001F02E
:1000800010C002F011C003F00CC0E9FF07C0EAFF86
:10009000078E08C0E1FF09C0E2FF0AC0D9FF0BC00C
:1000A000DAFF12C0F3FF13C0F4FF14C0FAFF15C04B
:1000B000F5FF16C0F6FF17C0F7FF045006C0E0FFBB
:1000C00005C0D8FF100082B41CD081B805D081B81B
:1000D00002D00B0E1B6E4FD081BA05D081BA02D070
:1000E000090E1B6E48D081BC05D081BC02D0060E23
:1000F0001B6E41D081BE05D081BE02D0030E1B6EA7
:100100003AD082B21BD081B804D081B801D01B6A2A
:1001100032D081BA05D081BA02D0080E1B6E2BD026
:1001200081BC05D081BC02D0050E1B6E24D081BEDF
:1001300005D081BE02D0020E1B6E1DD082B01BD036
:1001400081B805D081B802D00A0E1B6E14D081BAD6
:1001500005D081BA02D0070E1B6E0DD081BC05D030
:1001600081BC02D0040E1B6E06D081BE04D081BEBD
:1001700002D0010E1B6EF0923CEF00F08250070B94
:100180000201076F0751070817E181B804D0939A5D
:100190008A9A938811D081BA04D0939C8A9C938ABE
:1001A0000BD081BC04D0939E8A9E938C05D081BED7
:1001B00003D093988A98938EF29400013CEF00F05C
:1001C00020200A202020000054545454540056414A
:1001D00043494F00454D505459005649444500008D
:1001E000CF5943544F5D0000200050455246494CC2
:1001F0004553000050524F46494C45530000505261
:100200004F46494C5300CF504FD45CCB5C00434F1A
:100210004E4649475552414349D34E0053455454E5
:10022000494E47530000504152414DC85452455326
:100230000000CF4150414D45545000005449454DB8
:10024000504F000054494D45000054454D50530057
:10025000CF4FC34FC441000054454D504552415407
:100260005552410054494D45000054454D505300EE
:10027000CF4FC34FC44100004944494F4D41000096
:100280004C414E475541474500004C414E47414780
:1002900045005CC45C4F4D410000464F524D4154F7
:1002A0004F00464F524D41540000464F524D41546D
:1002B0000000D44F524D415400004F524947454E23
:1002C00000005245464552454E4345004F5249476E
:1002D000494E45005C43544FD7485C4B0000564F95
:1002E0004C564552200052455455524E200052451E
:1002F00056454E4952200000424F5B425041D94181
:1003000054DC43DF20000C0A20003A004D454E55D6
:10031000205052494E434950414C00004D41494EF6
:10032000204D454E55004D454E55205052494E43A7
:100330004950414C0000C3CB4142484F45204D45F8
:1003400048DE00004341524741522056414C4F5233
:10035000455300004C4F41442056414C55455300F5
:10036000434841524745522056414C45555253004F
:100370005B4841D745485CDF204841C350595B4B3F
:100380005C00202031202032202033202034202007
:100390003520200043434343000053535353000090
:1003A0004D4D3A0052454C415449564F000052457C
:1003B0004C4154495645000052454C415449460071
:1003C000504FC44354424548485C4B004142534F50
:1003D0004C55544F00004142534F4C55540041423C
:1003E000534F4C55000041C1434FCBDE5448DB5DB9
:1003F000000045535041D14F4C00454E474C4953A6
:1004000048004652414EC7414953000050594343AA
:100410004B5C5D00534F4C44414E444F00005245ED
:10042000464C4F57494E4700534F4C445552450098
:10043000CF415D4B41002E2E2E00BF43414E434520
:100440004C41520043414E43454C0000414E4E55F5
:100450004C4552004F544D45485C54DC00003F0071
:100460005445524D494E41444F00454E4445440089
:1004700046494E414C49534500005B414B4F48D7DC
:10048000454848DB5D00BF494E49434941520000A1
:10049000535441525400434F4D4D454E4345520035
:1004A0004841D75C484154DC00003F00BF4F5452E4
:1004B0004F2050554E544F00414E4F544845522006
:1004C000504F494E5400415554524520504F494ECB
:1004D0005400C45059C341DF20544FD74B41000052
:1004E0003F004D4158004D494E00800ED8A202D029
:1004F00002010C1B0201116B126B08C210F20C51AD
:10050000101B0751D8B4DFD00F6F006E0B51D8B459
:10051000E3D00F5FD8B483D03EE30CC215F2158F41
:100520000DC214F20EC213F2126BD89015331433AD
:10053000133312330F2FF8D710AF03D01181E0D04F
:1005400011910F911189020EEA6E0A0EE96EEBD03D
:10055000119910BF0AD00FA113D0153314331333E0
:100560001233002AD8B4C7D00BD015BF0CD0D89006
:1005700012371337143715370006D8B4BCD0F5D767
:10058000118D6DD0119D08C210F208AF02D0158FE9
:10059000ABD0159FA9D00BC20FF20BC200F00751D0
:1005A0000F5F08C215F2158F09C214F20AC213F2C6
:1005B000126BD89015331433133312330F2FF8D72F
:1005C00010AF03D011839CD011930F91118B020EA9
:1005D000EA6E0E0EE96EA7D0119B10BF0AD00FA1D4
:1005E00013D01533143313331233002AD8B483D005
:1005F0000BD015BF0CD0D8901237133714371537DE
:100600000006D8B478D0F5D7118F29D0119F0CC22D
:1006100010F20CAF02D0158F67D0159F65D00CC2B9
:1006200015F2158F0DC214F20EC213F210AF04D0E2
:10063000159F118565D01195126B0F91020EEA6E10
:100640000A0EE96E70D010BF1CD008C210F20FA1C4
:1006500006D01533143313331233002A4CE012AF93
:100660000BD0132B09E1142B07E1152B05E11533F2
:1006700014331333002A3FE011BD84D711BFC6D70E
:100680001CD0800E151B15AF04D03AD00CC210F24E
:100690000AD008C210F2155306E1145304E11353B3
:1006A00002E1006A21D015BF08D0D8901237133765
:1006B00014371537002EF7D71ED010AF02D0158F84
:1006C00013D0159F11D00BC200F00CC215F20DC251
:1006D00014F20EC213F208D007C200F008C215F2DD
:1006E00009C214F20AC213F215C201F014C202F0D8
:1006F00013C203F034D0006A016A026A036A2FD081
:10070000126B131F141F151F121F122B05E1132B41
:1007100003E1142B01E1152B11B112D711B354D7FA
:1007200011B589D7B3D7EF50132705E3142B03E195
:10073000152BD8B40F81ED52EF50142703E3152B7E
:10074000D8B40F81ED52EF50EFBE01D0800A1527CB
:10075000D8B00F8111B9FCD611BB3ED774D70001B8
:100760001200D89223C00AF222C009F221C008F276
:1007700020C007F21FC00EF21EC00DF21DC00CF209
:100780001CC00BF2B2DE03C023F002C022F001C095
:1007900021F000C020F0010E2426D8B0252AD8B4BC
:1007A000262AD8B4272A9E903CEF00F050455246A6
:1007B000494C000050524F46494C450050524F465C
:1007C000494C0000CF504FD45CCB00004352454110
:1007D000520043524541544500004352C94552001E
:1007E000434F5BC441424154DC00434152474152B4
:1007F00000004C4F414400004348415247455200DD
:100800004841C350595B4B41000045444954415253
:100810000000454449540000C94449544552000071
:100820005045C4414B545C504F424154DC000C4392
:1008300041524741522056414C4F5245533A0000D5
:1008400050554E544F00504F494E5400504F494E52
:100850005400544FD74B410050554E544F204E4FEB
:100860002056414C49444F00504F494E54204E4F62
:10087000542056414C494400504F494E54204E4F4D
:100880004E2056414C4944450000544FD74B41201F
:1008900048450AC4455D4354425C5445CBDC48415D
:1008A00000000101C45306E0C00ED56EF28AF08844
:1008B000F19806D0F29A938E938C938A93988A98A3
:1008C00000011200F50E936EF19E0101C46B000150
:1008D000E8DF00D0F088F198FDEF31F0010EEA6E0C
:1008E000DE0EE96EEF500DE0020E016E006A002E82
:1008F000FED7012EFBD7970E006E002EFED7EF2EEF
:10090000F3D71200929A899A1200B6C101F0B5C1CC
:1009100000F00066012A0900F5CFEEFF002EFBD79C
:10092000012EF9D7F86A1200C95003C2C9FFC730B7
:10093000FEE3C9CF00F01200949C8B9C02C203F22C
:10094000F3DF949C8B8C1200929A898A1200DADF72
:100950000101AF51036EAE51AE2BD8B4AF2BF66E82
:1009600003C0F7FFF86A010EEA6EB40EE96EB66BCB
:10097000010EB56F0001C9DFB4C1B0F10101B05182
:10098000B007000AD8B481D0AF51036EAE51AE2B80
:10099000D8B4AF2BF66E03C0F7FFF86A010EEA6E0B
:1009A000B40EE96EB66B010EB56F0001AEDFB4C1D7
:1009B00002F2C2DF0101AF51036EAE51AE2BD8B4CB
:1009C000AF2BF66E03C0F7FFF86A010EEA6EB40EA5
:1009D000E96EB66B010EB56F000197DFB4C1B1F1DE
:1009E0000101B151800BB26FB36BB19FB151B1072F
:1009F000000A18E0AF51036EAE51AE2BD8B4AF2B46
:100A0000F66E03C0F7FFF86A010EEA6EB40EE96EE7
:100A1000B66B010EB56F000178DFB4C103F284DF5D
:100A20000101E4D7B251B3112FE0AF51036EAE51C3
:100A3000AE2BD8B4AF2BF66E03C0F7FFF86A010EE9
:100A4000EA6EB40EE96EB66B010EB56F00015DDFA4
:100A50000101B36BB4C1B2F1B23D06D0B35304E1AE
:100A6000010EB36FF40EB26FB3C1B4F1B42BB4077F
:100A7000D8B405D0DE69000131DF0101F8D7B2C179
:100A8000DEF100012BDF01017AD700015DDFEAEF23
:100A900006F00101DF51016ADE5D03E2DEC100F014
:100AA0000CD0006A080EE06FDE370036DF51005CC4
:100AB000D8B0006E0136E02FF7D700011200010117
:100AC000AF6BAE51030B6E6F6E51FC0F2FE2040F34
:100AD0000001CAEF05F0C00E0101AF6F6CC16AF1F1
:100AE0006DC16BF1F00E686F696F20D0A00E01012F
:100AF000AF6F6DC16AF16CC16BF1F00E686F696F19
:100B000015D00101AF6B6A6B6B6BF00E686F696F8C
:100B10000DD0600E0101AF6F6DC16AF16CC16BF158
:100B2000F00E686F870E696F01D0010168C1DEF1B8
:100B3000060EDF6F0001ADDF020E015C01016F6F79
:100B400068C1DEF16FC1DFF10001A3DFD890013091
:100B50000101706F6931006E003200321F0E001605
:100B60000050FF0F716F69C1DEF171C1DFF100014B
:100B700090DF010E01240101726F0001C3DE360E09
:100B80000201026F0001D8DEAFC103F2CDDEDCDE70
:100B9000FFEF06F0E824F76AF736AF0FF66E0B0E9C
:100BA000F7220A00F550FA6E0800F550F96ED60AE1
:100BB000EC0A020B120B01016A51F927000EFA230D
:100BC000FAC1FEF1F9C1FFF1010EFC5DF927000E3B
:100BD000FA23FAC100F2F9C101F2020101016B51DD
:100BE000FB272A0E0201026F0001A6DEFEC103F2FE
:100BF0009BDEFFC103F298DE00C203F295DE01C264
:100C000003F292DE2B0E0201026F000195DE02015B
:100C1000036B000189DEFBC103F286DE0201036B78
:100C2000000182DE0101FD51FB25FF0F0201026F71
:100C3000036F000179DE2C0E0201026F00017CDEE1
:100C400012000201016B026B010E036FDA6AD96AAE
:100C5000066FF90E056F010EEA6EFD0EE96E06C213
:100C6000E2FF05C2E1FF03C204F2D890E550EE02B4
:100C7000F3500123F4500223042FF7D701C2DEFF03
:100C800002C201F2026BD8B0022B052BD8B4062B9E
:100C9000032B03510508DFE10001A1EF06F001017C
:100CA000EB53D8B47BD0EC53D8B478D0EEC1EFF18D
:100CB000EDC1F0F1E95306E16851E85D03E26951E5
:100CC000EA5D01E36BD0EB51E825F56F000EE921F9
:100CD000F66F010EF55F000EF65B03E16851F55DFE
:100CE00003E3E851685DEB6FEC51EA25FF0F695DA6
:100CF00001E003E2EA51695DEC6F000103DEE9C146
:100D0000FAF1E8C1F9F1EAC1FBF1EBC1FCF1ECC188
:100D1000FDF151DF0101F86BF76BF66BEBC1F5F1FB
:100D2000F8C1FCF1F7C1FBF1F6C1FAF1EBC1F9F141
:100D30000201006B0101FF6BFE6BECC1FDF10001D4
:100D400080D703C0F4F102C0F3F101C0F2F100C09A
:100D5000F1F10101F4C103F0F3C102F0F2C101F0BD
:100D6000F1C100F0FF0EF127D8A0F227D8A0F32799
:100D7000D8A0F427005206E1015204E1025202E138
:100D8000035209E0EFC103F20001CEDDF0C103F22E
:100D9000CBDDDFD701010001D7DD01010001120029
:100DA0000101E96BE86BEA6B68C1EBF169C1ECF139
:100DB000B1C1EEF1B0C1EDF1000171DF1200929A04
:100DC000898A929A949C7F0E0101AF6FDC0EAE6F00
:100DD0000001BDD5350E01016C6F280E6D6F870EB9
:100DE000696FF00E686F70C173F172C174F173C1F5
:100DF00075F174C176F1030EAE6F000160D6010E7D
:100E00000101DE6F00016ADD0101B16BB06B000111
:100E1000C7DF05EF32F00101ED51EF03F3CF01F031
:100E2000F4CF00F0F003F3500026EE51EF03F3503F
:100E30000020026E000112000101B26BB2511008D5
:100E40002CE3EE6BB2C1EDF1F06B030EEF6F00011E
:100E5000E2DF0101B0510124E96EB1510220EA6ED6
:100E6000EF6AEE6BB2C1EDF1F06B030EEF6F0001B4
:100E7000D2DF01C0B3F1010E01010124016E000EA9
:100E80000220036E0150B025E96EB1510320EA6ED5
:100E9000EC6AED52EF6AB22BD1D70C0E1B6E00013B
:100EA00012000101DC51060DF3507025736FDD5106
:100EB000080DF3507225746F000112000101EB530D
:100EC00026E16851EA5D23E26951EC5D20E2000110
:100ED00019DDEBC1FAF1EAC1F9F1ECC1FBF1010E48
:100EE0000101FC6FFD6F000166DEEEC1EFF1010153
:100EF000F06BEEC103F2000117DD0101EDC1EFF16E
:100F0000F06BEDC103F200010FDD1EDD01010001F8
:100F100012000101E66BE65104083FE3E76BE7517D
:100F2000070839E3E651E425E96E000EE521EA6E93
:100F3000EFCF00F0E751016E04E0D8900032012EAF
:100F4000FCD70050010B13E0E651DE25E86F070ED9
:100F5000DF5DE725E96FEB6BE8C1EAF1EC6FE1C11A
:100F6000EEF1E0C1EDF10001A9DF12D00101E6517F
:100F7000DE25E86F070EDF5DE725E96FEB6BE8C163
:100F8000EAF1EC6FE3C1EEF1E2C1EDF1000196DFB1
:100F90000101E72BC4D7E62BBED7000158EF08F0BC
:100FA0000101DB510C0816E1E96BE86BEA6B75C1D6
:100FB000EBF176C1ECF1EE6BED6B000170DE70C110
:100FC00075F172C176F10101DC6BDD6B000169DF47
:100FD0009AD00101DB510A0805E1080E742770C19F
:100FE00073F190D0DB517A083FE2DB51CD081BE270
:100FF000DB51D3080BE3DBC1DEF1030EDF6F000131
:1010000048DD3B0E00240101DB6F0DD0DB51D7081A
:1010100005E3DB51010B5E0FDB6F05D0DB51D90817
:1010200002E1280EDB6FDB51DB080DE3DB517A08B0
:101030000AE2DBC1DEF10B0EDF6F00012ADD210EBB
:1010400000240101DB6FDB51DC0803E12D0EDB6FB7
:101050000BD0DB51DE0803E12F0EDB6F05D0DB5137
:10106000DF0802E1400EDB6F200EDB5DDD6FEE6B13
:10107000ED6FF06B050EEF6F0001CDDE02C003F0E7
:101080000150280F016E000E032201C0DCF10101A6
:1010900003C0DDF173C1DEF174C1DFF1E169E06924
:1010A000E36BE26B03C0E5F101C0E4F1000131D76D
:1010B000060E010173277351755DD8A073C175F1D8
:1010C0007451765DD8A074C176F17051735DDD6F97
:1010D000DE6F060EDF6F0001DCDC015001016F5D89
:1010E00004E270C173F1080E74277251745D006ED2
:1010F0000032003200321F0E00160050715DD8A081
:1011000072C174F1000112000900F5520CE0F6CF33
:10111000D0F1F7CFD1F1F5CFDBF142DFD0C1F6FF4F
:10112000D1C1F7FFF1D71200060EF66E030EF76E6F
:10113000EBDF12000101B55307E00A0EF66E030E55
:10114000F76E0001E1DF01010A0EDB6F000128DF0D
:101150000A0E0101DB6F000123DF12000101B66BF3
:10116000B551B65D09E2E80EF66E010EF76E0001AC
:10117000CBDF0101B62BF4D7000112001A50030B8C
:10118000FC0F1AE2040FDDEF08F0EA0EF66E010E16
:10119000F76EBADF11D0F40EF66E010EF76EB4DF03
:1011A0000BD0FE0EF66E010EF76EAEDF05D0060E0A
:1011B000F66E020EF76EA8DF1200E824F76AF73623
:1011C000D50FF66E110EF7220A00F550FA6E0800E0
:1011D000F550F96E8A119611A211AE111A50030B37
:1011E000FC0F1AE2040F0DEF09F00E0EF66E020E60
:1011F000F76E8ADF11D01C0EF66E020EF76E84DFDA
:101200000BD0260EF66E020EF76E7EDF05D0320E84
:10121000F66E020EF76E78DF1200E824F76AF736F2
:10122000350FF66E120EF7220A00F550FA6E08001E
:10123000F550F96EEA11F61102120E12F29CF29EAE
:10124000F2BEFDD771DF1A50030BFC0F1AE2040F38
:1012500085EF09F00C0EF66E030EF76E55DF11D018
:101260001C0EF66E030EF76E4FDF0BD0260EF66ED9
:10127000030EF76E49DF05D0360EF66E030EF76EDD
:1012800043DF010E0101B56F000154DF030E0101C0
:10129000B56F000163DF72DF0101B56B00014ADF4A
:1012A000030E0101B56F000159DF1A50030BFC0F4B
:1012B0001AE2040F96EF09F0440EF66E030EF76E75
:1012C00023DF11D0540EF66E030EF76E1DDF0BD028
:1012D000600EF66E030EF76E17DF05D0700EF66E19
:1012E000030EF76E11DF0101B56B000123DF030E62
:1012F0000101B56F000132DF71DF200E0101DB6FEC
:1013000000014EDEC00EF2121200E824F76AF73632
:10131000250FF66E130EF7220A00F550FA6E08003C
:10132000F550F96E541260126C127812E824F76AC4
:10133000F736470FF66E130EF7220A00F550FA6ED5
:101340000800F550F96EB812C412D012DC12060E65
:101350000101735F200EDB6F000122DEC1C1DCF1F1
:10136000C2C1DDF19EDD3E0E0101DB6F000118DE22
:101370001200020E0101C16F030EC26F0001E7DF10
:101380001B500A0805E10C0E1B6E060E016E09D0FB
:101390001B500B0805E10C0E1B6E010E016E01D0F7
:1013A000EFD732EF32F0F29CF29EF2BEFDD71A5028
:1013B000030BFC0F1AE2040FF8EF09F0DE0EF66ED5
:1013C000020EF76EA1DE11D0E60EF66E020EF76E7B
:1013D0009BDE0BD0EE0EF66E020EF76E95DE05D09C
:1013E000F80EF66E020EF76E8FDEC00EF2121200CD
:1013F000E824F76AF7360B0FF66E140EF7220A0090
:10140000F550FA6E0800F550F96EBC13C813D413EA
:10141000E013F29CF29EF2BEFDD70C0E0101DB6FD1
:101420000001BEDDABDE3A0E0101DB6F0001B8DD6D
:101430000A0E0101DB6F0001B3DD820EF66E030EB2
:10144000F76E62DEB0DFC00EF2125AEF16F0010145
:10145000B8534BE16851B75D48E26951B95D45E267
:10146000BA5343E0BCC1BDF1BBC1BEF1B85306E104
:101470006851B75D03E26951B95D01E336D0BA51F5
:10148000B725BF6F000EB821C06F010EBF5F000E01
:10149000C05B03E16851BF5D03E3B751685DBA6F9C
:1014A000000182EC04F0B8C1FAF1B7C1F9F1B9C199
:1014B000FBF1BAC1FCF1010E0101FD6F0001DBEC93
:1014C00005F00101BA51BA07000A0BE0BDC103F2F1
:1014D000000194EC04F0BEC103F294EC04F0F1D7E7
:1014E00001010001A4EC04F001010001120001015E
:1014F000E6533AE16851E55D37E26951E75D34E270
:10150000E85332E0EAC1EBF1E9C1ECF1E851E7253B
:10151000FF0F695D01E003E2E751695DE86F0001DB
:1015200082EC04F0E6C1FAF1E5C1F9F1E7C1FBF1A3
:10153000010E0101FC6FE8C1FDF10001DBEC05F0DB
:101540000101E851E807000A0BE0EBC103F20001DA
:1015500094EC04F0ECC103F294EC04F0F1D7010137
:101560000001A4EC04F00101000112000E0E0101C3
:10157000695DB56F1B0E685DB66FB86B130EB76F04
:10158000B5C1B9F1B6C1BAF1BC69BB6900015FDF91
:101590001D0E0101695DB56FE66B150EE56F140E4A
:1015A000E76FB5C1E8F1EA69E9690001A0DF01016F
:1015B000B86B130EB76F140EB96F050EBA6FBC6916
:1015C000BB69000144DF0A0E0101685DB56F100EB2
:1015D000695DB66FE66BB5C1E5F1E76F050EE86FC3
:1015E000EA69E969000183DF120073C1C1F174C1C6
:1015F000C2F1F29CF29EF2BEFDD71E0E0101685DA3
:10160000C36F230E695DC46FE96B160EE86F150E8C
:10161000EA6FC3C1EBF1C4C1ECF1EE6BED6B0001FD
:101620004FEC06F00101DC6B020EDD6F000139DCCE
:10163000C00EF66E010EF76E67DD060E01016F5DDE
:10164000C36FDC6F71C1DDF100012BDCC80EF66EDB
:10165000010EF76E59DD0B0E0101DC6F080EDD6F18
:1016600000011FDC1A50030BFC0F1AE2040F57EFA6
:101670000BF0CE0EF66E010EF76E46DD11D0D40ED5
:10168000F66E010EF76E40DD0BD0DA0EF66E010E2F
:10169000F76E3ADD05D0E00EF66E010EF76E34DD22
:1016A000C00EF212C1C173F1C2C174F11200E8247C
:1016B000F76AF736C90FF66E160EF7220A00F550D4
:1016C000FA6E0800F550F96E72167E168A16961696
:1016D0000101C251330DF350CE0FC36FF2CFC4F1ED
:1016E000F29EC3C1A9FFA69CA69EA680A850C4BF17
:1016F000F28EFF0A000A28E1C251330DF350CF0FDA
:10170000C36FF2CFC5F1F29EC3C1A9FFA69CA69EEE
:10171000A680A850C5BFF28EFF0A000A15E1C2518B
:10172000330DF350D00FC36FF2CFC6F1F29EC3C199
:10173000A9FFA69CA69EA680A850C6BFF28EFF0A4F
:10174000000A02E1010E01D0000E016E000112003C
:101750008E0E006EEDC101F0ECC102F0036A015281
:1017600009E102C001F0026A080E005E015202E1C6
:10177000006A08D0D89001BE04D0023601360006B7
:10178000F9D7019E12000101EA51D8B4A5D0F66F35
:10179000EE51D8B4A1D0F65F05E37F0EF627D8B09E
:1017A0009BD006D0810EF65FD8A096D0D8B494D046
:1017B000F6C100F0016A026A036AF56BEBC1F4F14D
:1017C000F48FECC1F3F1EDC1F2F1190EF66FF151A6
:1017D000F25F0DE2010EF35F0AE2F45F08E2F55FEB
:1017E00006E2F52BF42BF32BF151F22728D0F05120
:1017F000F35F12E2010EF45F0FE2F55F0DE2F52BED
:10180000F42BF051F327F151F22719E3F32B17E1F1
:10181000F42B15E1F52B13D0EF518009F45F0EE2A4
:10182000010EF55F0BE2F52BEF518009F427F05123
:10183000F327E9E3F42BE7E1F52BE5D70380F62F57
:1018400001D00BD0D890F237F337F437F537D89072
:10185000033602360136F737BAD7F7A106D0D8904B
:10186000013202320332F73302D0000635E0F7BF0F
:101870001ED0D890F237F337F437F537F151F25FD5
:1018800007E2010EF35F04E2F45F02E2F55F1AE3A0
:10189000F051F35F05E2010EF45F02E2F55F12E33F
:1018A000EF518009F45F03E2010EF55F0BE3032AB9
:1018B00009E1022A07E1012A05E1002A0DE00132CF
:1018C00002320332EBC1F6F1EF51F61BF6AF02D054
:1018D000018E06D0019E04D0006A016A026A036A82
:1018E000000112000101EC51D8B471D0006EF0512A
:1018F000D8B46DD0002604E3810E002668E204D03F
:101900007F0E005E64E363E0EDC1F4F1F151F41B7E
:10191000ED8FF18FEF51F303F4CFF6F1EE51F203B7
:10192000F4CF03F0F3CFF5F1F303F350F627F450BF
:10193000F523000E0322EF51F203F350F627F45083
:10194000F523000E026A03220222ED51F303F35045
:10195000F527F4500322000E0222ED51F203F3505A
:101960000326F4500222000E016A0122EF51F10316
:10197000F350F527F4500322000E02220122EE510B
:10198000F103F3500326F4500222000E0122ED5120
:10199000F103F3500226F4500122002A01BE05D0C3
:1019A000F5370336023601360006000EF5AF0AD0D1
:1019B000032A02220122015005E1025003E10350F3
:1019C00001E1002AF4BF018EF4AF019E04D0006A49
:1019D000016A026A036A00011200E9C1F0F1010123
:1019E000ED51F01BF0AF05D0D894D890E9BFD88066
:1019F0002FD0E9C1F0F1ECC1F1F1E851F15F06E05F
:101A0000F0AF26D0D850010AD86E22D0EDC1F1F146
:101A1000E951F15F06E0F0AF1BD0D850010AD86E53
:101A200017D0EEC1F1F1EA51F15F06E0F0AF10D04E
:101A3000D850010AD86E0CD0EFC1F1F1EB51F15F33
:101A400006E0F0AF05D0D850010AD86E01D0D8908A
:101A5000000112008E0E006E0101E651005EE7C12A
:101A600002F0E8C101F0028E005209E0D890025263
:101A700002E1015204E002320132002EF7D7E7AF53
:101A800005D0011E021E012AD8B4022A000112004C
:101A9000016A026A006A036A0101F35102E1F2512C
:101AA00018E0100EF46FD890F037F1370036033697
:101AB000F351035C02E1F251005C07E3F251005E76
:101AC000D8A00306F351035ED88001360236F42F06
:101AD000EAD7000112000101E751E825006ED89015
:101AE00000320050E95D6BE06AE3E951E85DEA6FBE
:101AF000E751E85D006ED89000320050D880EA557A
:101B0000EB6FEE6B1F0EED6FF06BEBC1EFF10001B1
:101B10000BEC07F002C0ECF101C0EBF10101E75161
:101B2000E85D006ED890003200C0EDF102C0F1F126
:101B300001C0F0F1F36B00C0F2F10001A9DF02C0B7
:101B4000ECF101C0EBF10101EE6B3F0EED6FF06BBC
:101B5000EAC1EFF100010BEC07F002C0EEF101C0A9
:101B6000EDF10101E751E85D006ED890003200C050
:101B7000EFF102C0F1F101C0F0F1F36B00C0F2F13E
:101B8000000186DF02C0EEF101C0EDF10101013478
:101B9000026EEE35036E0236033602360336023627
:101BA000033602360336E00E02160250EB11006EC9
:101BB0000350EC11036E00C001F0026E74D0E751C7
:101BC000E825006ED89000320050D880E955EA6FC1
:101BD000E751E85D006ED89000320050D880EA5599
:101BE000EB6FEE6B3F0EED6FF06BEBC1EFF10001B1
:101BF0000BEC07F002C0ECF101C0EBF10101E75181
:101C0000E85D006ED890003200C0EDF102C0F1F145
:101C100001C0F0F1F36B00C0F2F1000139DF02C046
:101C2000ECF101C0EBF10101EB37EC37EB37EC37AE
:101C3000EB37EC37EB37EC37EB37EC37E00EEB17E5
:101C4000EE6B1F0EED6FF06BEAC1EFF100010BECD4
:101C500007F002C0EEF101C0EDF10101E751E85DCE
:101C6000006ED890003200C0EFF102C0F1F101C067
:101C7000F0F1F36B00C0F2F100010ADF02C0EEF1F7
:101C800001C0EDF1026A01010134036E033603362F
:101C9000F80E03160250EB11006E0350EC11036EA8
:101CA00000C001F0026E000112000101C96B0D0EAF
:101CB000695DCB6F1E0E685DCC6FCF6BCE6BCD6B4D
:101CC000D06BC451D05D4AE2EE6BD0C1EDF1F06B48
:101CD000030EEF6F00010BEC07F002C0E3F101C04F
:101CE000E2F10101C5510124E96EC6510220EA6EFC
:101CF000EF50CD5D12E2EE6BD0C1EDF1F06B030E53
:101D0000EF6F00010BEC07F00101C5510124E96EF2
:101D1000C6510220EA6EEFCFCDF1EE6BD0C1EDF1EE
:101D2000F06B030EEF6F00010BEC07F001C0E2F166
:101D3000010E01010124016E000E0220036E01500C
:101D4000C525E96EC6510320EA6EECCF03F0ED52D3
:101D5000EF50CE270350CF23D02BB3D7ED6BCBC1A1
:101D6000ECF10001F5DC03C0D4F102C0D3F101C0F5
:101D7000D2F100C0D1F1010E0101CC5DED6BEC6F31
:101D80000001E6DC03C0E5F102C0E4F101C0E3F1CB
:101D900000C0E2F1CFC1EDF1CEC1ECF1D9DCE5C17B
:101DA000EDF1E4C1ECF1E3C1EBF1E2C1EAF103C012
:101DB000F1F102C0F0F101C0EFF100C0EEF1E3DC9F
:101DC00003C0D8F102C0D7F101C0D6F100C0D5F1EF
:101DD0000101DC6BDB6BDA6BD96B210E695DE26FA5
:101DE000E96B160EE86F150EEA6FCCC1EBF1E2C19C
:101DF000ECF1EE6BED6B00014FEC06F00101E16BD5
:101E0000C451E15DD8B00EEF13F0EE6BE1C1EDF11E
:101E1000F06B030EEF6F00010BEC07F002C0E3F173
:101E200001C0E2F10101C5510124E96EC651022051
:101E3000EA6EEF50ED6BEC6F00018ADC03C0E7F156
:101E400002C0E6F101C0E5F100C0E4F1EACFE9F13A
:101E5000E9CFE8F1D882196AF2BE198EF29E03C06A
:101E60000AF202C009F201C008F200C007F2DCC1A8
:101E70000EF2DBC10DF2DAC10CF2D9C10BF275EC36
:101E800002F019BEF28EE9C1EAFFE8C1E9FF03C022
:101E9000E7F102C0E6F101C0E5F100C0E4F10101A3
:101EA000EE6BE1C1EDF1F06B030EEF6F00010BEC97
:101EB00007F001C0EAF1010E01010124016E000EDC
:101EC0000220036E0150C525E96EC6510320EA6E5B
:101ED000ECCFEDF1ED52EFCFECF1000139DC03C0B6
:101EE000EFF102C0EEF101C0EDF100C0ECF1D8C19C
:101EF000F3F1D7C1F2F1D6C1F1F1D5C1F0F1F2DCC5
:101F0000E7C1EDF1E6C1ECF1E5C1EBF1E4C1EAF1C5
:101F100003C0F1F102C0F0F101C0EFF100C0EEF139
:101F200032DC03C0E0F102C0DFF101C0DEF100C02D
:101F3000DDF10101C881CA6BC8A16DD3EE6BE1C1AF
:101F4000EDF1F06B030EEF6F00010BEC07F002C038
:101F5000E3F101C0E2F1010E01010124016E000E66
:101F60000220036E0150C525E96EC6510320EA6EBA
:101F7000ECCF03F0ED52EFCFECF103C0EDF1000137
:101F8000A8EC0BF0D8C1EFF1D7C1EEF1D6C1EDF15D
:101F9000D5C1ECF103C0F3F102C0F2F101C0F1F1DF
:101FA00000C0F0F19FDC03C0E5F102C0E4F101C024
:101FB000E3F100C0E2F1EACFE7F1E9CFE6F1D88240
:101FC000196AF2BE198EF29E03C00AF202C009F22B
:101FD00001C008F200C007F202010E6B0D6B0C6B22
:101FE0007F0E0B6F000175EC02F019BEF28EE7C197
:101FF000EAFFE6C1E9FF03C0E5F102C0E4F101C078
:10200000E3F100C0E2F10101ED6BCAC1ECF10001A6
:10201000A8EC0BF0E5C1EBF1E4C1EAF1E3C1E9F1B1
:10202000E2C1E8F103C0EFF102C0EEF101C0EDF151
:1020300000C0ECF1D2DC01E203E10101C891000132
:10204000D892196AF2BE198EF29EDCC10AF2DBC187
:1020500009F2DAC108F2D9C107F2E0C10EF2DFC11C
:102060000DF2DEC10CF2DDC10BF275EC02F019BE0F
:10207000F28E03C0DCF102C0DBF101C0DAF100C076
:10208000D9F1240E0101695DED6BEC6F0001A8EC44
:102090000BF003C0E5F102C0E4F101C0E3F100C0C0
:1020A000E2F10101ED6BCDC1ECF10001A8EC0BF008
:1020B000E5C1EDF1E4C1ECF1E3C1EBF1E2C1EAF11C
:1020C00003C0F1F102C0F0F101C0EFF100C0EEF188
:1020D000C3EC0BF003C0E5F102C0E4F101C0E3F191
:1020E00000C0E2F103C0EFF102C0EEF101C0EDF17A
:1020F00000C0ECF1DCC1F3F1DBC1F2F1DAC1F1F1C6
:10210000D9C1F0F172EC0CF003C0E5F102C0E4F1CA
:1021100001C0E3F100C0E2F10101ED6BCBC1ECF1D4
:102120000001A8EC0BF0D882196AF2BE198EF29E5B
:1021300003C00AF202C009F201C008F200C007F2AF
:10214000E5C10EF2E4C10DF2E3C10CF2E2C10BF203
:1021500075EC02F019BEF28E03C0E9F102C0E8F19D
:1021600001C0E7F100C0E6F175DC01C074F10101C6
:10217000C753D8B417D1ED6B74C1ECF10001A8ECD2
:102180000BF0D882196AF2BE198EF29ED4C10AF2FF
:10219000D3C109F2D2C108F2D1C107F203C00EF2D5
:1021A00002C00DF201C00CF200C00BF275EC02F09F
:1021B00019BEF28E03C0E5F102C0E4F101C0E3F103
:1021C00000C0E2F10101EB6BEA6BE96BE86B03C065
:1021D000EFF102C0EEF101C0EDF100C0ECF1000141
:1021E000EDEC0CF06CE3160E0101C925E26F010E57
:1021F0007425E36FC951CC5DE46FED6B74C1ECF1F4
:102200000001A8EC0BF0D882196AF2BE198EF29E7A
:1022100003C00AF202C009F201C008F200C007F2CE
:10222000D4C10EF2D3C10DF2D2C10CF2D1C10BF266
:1022300075EC02F019BEF28E03C0E8F102C0E7F1BE
:1022400001C0E6F100C0E5F100C0E6F101C001F017
:1022500002C002F003C0E9F1019E02C0E8F101C032
:10226000E7F12AEC0DF001C0E5F1DCC1E9F1DBC1D9
:10227000E8F1DAC1E7F1D9C1E6F12AEC0DF001C0CD
:10228000E6F10101E61FE76BE869E6C1E9F100014B
:1022900022DC02C0E7F101C0E6F10101E96BE2C115
:1022A000E8F1E3C1EAF1E4C1EBF1E5C1ECF102C010
:1022B000EEF101C0EDF100014FEC06F071D0160E09
:1022C0000101C925E26FD892196AF2BE198EF29EF9
:1022D000D4C10AF2D3C109F2D2C108F2D1C107F2C6
:1022E00002010E6B0D6B0C6B7F0E0B6F000175EC1A
:1022F00002F019BEF28E03C0E9F102C0E8F101C09C
:10230000E7F100C0E6F12AEC0DF001C0E3F10101B4
:10231000C951CC5DE46FED6B74C1ECF10001A8EC28
:102320000BF0D882196AF2BE198EF29E03C00AF22F
:1023300002C009F201C008F200C007F2D4C10EF2D7
:10234000D3C10DF2D2C10CF2D1C10BF275EC02F087
:1023500019BEF28E03C0E8F102C0E7F101C0E6F158
:1023600000C0E5F100C0E6F101C001F002C0E8F1F3
:1023700003C0E9F1019E01C0E7F12AEC0DF001C0B4
:10238000E5F10101E96BE2C1E8F1E3C1EAF1E4C181
:10239000EBF101C0ECF1EE6BED6B00014FEC06F0E0
:1023A00027D10101ED6B74C1ECF10001A8EC0BF039
:1023B000D882196AF2BE198EF29ED4C10AF2D3C134
:1023C00009F2D2C108F2D1C107F203C00EF202C075
:1023D0000DF201C00CF200C00BF275EC02F019BE58
:1023E000F28E03C0E5F102C0E4F101C0E3F100C0E8
:1023F000E2F10101EB6BEA6BE96BE86B03C0EFF113
:1024000002C0EEF101C0EDF100C0ECF10001EDEC15
:102410000CF001E270E1160E0101C925E26FED6BCF
:1024200074C1ECF10001A8EC0BF0D882196AF2BE7D
:10243000198EF29E03C00AF202C009F201C008F22E
:1024400000C007F2D4C10EF2D3C10DF2D2C10CF21A
:10245000D1C10BF275EC02F019BEF28E03C0E6F1A9
:1024600002C0E5F101C0E4F100C0E3F100C000F0FA
:1024700001C001F002C002F003C003F0019E03C0DE
:10248000E6F102C0E5F101C0E4F100C0E3F1D89249
:10249000196AF2BE198EF29E03C00AF202C009F256
:1024A00001C008F200C007F202010E6B0D6B0C6B4D
:1024B0007F0E0B6F000175EC02F019BEF28E03C0A7
:1024C000E9F102C0E8F101C0E7F100C0E6F12AEC51
:1024D0000DF001C0E3F10101E66BE2C1E5F174C169
:1024E000E7F101C0E8F1A50EEA6F340EE96F0001D3
:1024F00077EC0AF07DD0160E0101C925E26FD4C138
:10250000E9F1D3C1E8F1D2C1E7F1D1C1E6F10001AF
:102510002AEC0DF001C0E3F10101ED6B74C1ECF1A7
:102520000001A8EC0BF0D882196AF2BE198EF29E57
:1025300003C00AF202C009F201C008F200C007F2AB
:10254000D4C10EF2D3C10DF2D2C10CF2D1C10BF243
:1025500075EC02F019BEF28E03C0E7F102C0E6F19D
:1025600001C0E5F100C0E4F100C000F001C001F0DD
:1025700002C002F003C003F0019E03C0E7F102C0F5
:10258000E6F101C0E5F100C0E4F1D892196AF2BEAB
:10259000198EF29E03C00AF202C009F201C008F2CD
:1025A00000C007F202010E6B0D6B0C6B7F0E0B6F00
:1025B000000175EC02F019BEF28E03C0E9F102C011
:1025C000E8F101C0E7F100C0E6F12AEC0DF001C02E
:1025D000E4F10101E66BE2C1E5F1E3C1E7F101C01D
:1025E000E8F1A50EEA6F340EE96F000177EC0AF00E
:1025F0000101CA2BC92BED6B74C1ECF10001A8ECF1
:102600000BF003C0D4F102C0D3F101C0D2F100C07D
:10261000D1F1010191D4E12B00EF0FF0C7535AE043
:10262000170EC925E26FD4C1E9F1D3C1E8F1D2C1D7
:10263000E7F1D1C1E6F100012AEC0DF001C0E3F1B0
:102640000101C951CC5DE46FED6BCBC1ECF1000130
:10265000A8EC0BF0D882196AF2BE198EF29E03C064
:102660000AF202C009F201C008F200C007F2D4C1A8
:102670000EF2D3C10DF2D2C10CF2D1C10BF275EC46
:1026800002F019BEF28E03C0E8F102C0E7F101C00A
:10269000E6F100C0E5F100C0E6F101C001F002C0C2
:1026A000E8F103C0E9F1019E01C0E7F12AEC0DF069
:1026B00001C0E5F10101E96BE2C1E8F1E3C1EAF132
:1026C000E4C1EBF101C0ECF1EE6BED6B00014FECFE
:1026D00006F00101CDC101F0CEC102F0CFC103F07F
:1026E00000011200EACFDAF1E9CFD9F10101D339C3
:1026F000F009D56FD527E20FD66F320FD86FD351BF
:102700000F0BD627D627D827E90FD76FD727D7277C
:10271000D2390F0BD727D827D737D837D81FD83774
:10272000D2510F0BD827D537070ED46F0A0ED70713
:10273000D827FDE3D607D727FDE3D507D627FDE346
:10274000D407D527FDE3010EEA6ED40EE96E070E1D
:10275000D915D99DE926000EEA22E950D80803E1EF
:10276000EA2C01D0D98DEF50006E08E1D9BD06D01A
:10277000D9B916D0D9B702D0200E03D0D987D999AC
:10278000300E0026EACFD3F1E9CFD2F100C0DBF161
:102790000001D0EC07F0D3C1EAFFD2C1E9FF01018B
:1027A000EE50D9ADDAD700011200C6C1C8F1C5C1DB
:1027B000C7F10101CF6B200EC425C96F000ECF21D8
:1027C000CA6F430ECD6F1A50040B040822E1CAC130
:1027D000EEF1C9C1EDF1F06B090EEF6F00010BECEA
:1027E00007F002C0CFF101C0CEF102C0F1F101C08B
:1027F000F0F10101F36B050EF26F000148EC0DF0F2
:10280000200E01010124C96F000E0220CA6F460E7E
:10281000CD6FDC6B020EDD6F000151EC07F0B00EE6
:102820000101DB6F0001D0EC07F0CDC1DBF1D0EC92
:1028300007F00A0E0101DB6F0001D0EC07F00A0E71
:10284000E96ECAC1D3F1C9C1D2F14CDF050E010155
:102850006F5DCE6FDC6F71C1DDF1000151EC07F0EF
:102860001A50100B006E003A0F0E0016005035E0A3
:10287000C8C1F1F1C7C1F0F10101F36B3C0EF26F79
:10288000000148EC0DF002C0CFF101C0CEF1C8C18B
:10289000F1F1C7C1F0F10101F36B3C0EF26F0001E1
:1028A00048EC0DF000C0D0F1010103C0D1F10B0ED6
:1028B000E96ECFC1D3F1CEC1D2F1000113DF3A0EE0
:1028C0000101DB6F0001D0EC07F00B0EE96ED1C106
:1028D000D3F1D0C1D2F106DF1FD01A50030B030889
:1028E0000EE1090EE96EC8C1D3F1C7C1D2F1FADE1B
:1028F000430E0101DB6F0001D0EC07F00DD0090E93
:10290000E96EC8C1D3F1C7C1D2F1ECDE530E0101AB
:10291000DB6F0001D0EC07F0CBC1DCF1CCC1DDF105
:1029200051EC07F0120073C1BAF174C1BBF101019F
:10293000BC81B92D01D00BD0010EB95DC16FC26F42
:10294000000168EC0BF00101BC9101B0BC81B9C180
:10295000C2F1000168EC0BF0015205E10101B9512F
:10296000060809E100010101BCB104D00001F5EC49
:102970000AF0010125D1B5C1E9FFB6C1EAFF110E88
:10298000EF6EBD6BB6C103F0B5C1E9FFB6C1EAFF9A
:10299000EF50BD5DD8B0F5D0EE6BBDC1EDF1F06B81
:1029A000030EEF6F00010BEC07F002C0C2F101C093
:1029B000C1F10101B751C125E96EB851C221EA6EDA
:1029C000B951330DF350CE0FC56FBD51030DF35008
:1029D000C527F2CFC6F1F29EC5C1A9FFA69CA69E4F
:1029E000A680A850C6BFF28EFF0AEF6EEE6BBDC187
:1029F000EDF1F06B030EEF6F00010BEC07F002C07E
:102A0000C2F101C0C1F1010E0101C125016E000E2C
:102A1000C221036E0150B725E96EB8510320EA6E5A
:102A2000B951330DF350CF0FC36FBD51030DF350A8
:102A3000C327F2CFC4F1F29EC3C1A9FFA69CA69EF4
:102A4000A680A850C4BFF28EFF0AEC6AED52EF6E6A
:102A5000EE6BBDC1EDF1F06B030EEF6F00010BECFF
:102A600007F001C0C1F1010E01010124016E000E49
:102A70000220036E0150B725E96EB8510320EA6EBB
:102A8000EFCF03F0000EEF6E03C0ECFFEE6BBDC1A5
:102A9000EDF1F06B030EEF6F00010BEC07F002C0DD
:102AA000C2F101C0C1F1010E0101C125016E000E8C
:102AB000C221036E0150B725E96EB8510320EA6EBA
:102AC000B951330DF350D00FC56FBD51030DF35005
:102AD000C527F2CFC6F1F29EC5C1A9FFA69CA69E4E
:102AE000A680A850C6BFF28EFF0AEF10006EEC5011
:102AF000036E0050ED52EF6E03C0ECFFED52EE6B33
:102B0000BDC1EDF1F06B030EEF6F00010BEC07F0B0
:102B100002C0C2F101C0C1F10101B7510124E96E47
:102B2000B8510220EA6EEF522AE1EE6BBDC1EDF121
:102B3000F06B030EEF6F00010BEC07F001C0C3F167
:102B4000010E01010124016E000E0220036E0150EE
:102B5000B725E96EB8510320EA6EECCFC4F1ED520F
:102B6000EFCFC3F1C3530BE1C45309E1B6C103F086
:102B7000B5C1E9FF03C0EAFFBDC1EFFF02D0BD2B25
:102B800001D7B6C103F0B5C1E9FFB6C1EAFFEFCF87
:102B9000C4F1B8C1C6F1B7C1C5F1010EC76F0001DC
:102BA00055EC0EF003C0C0F102C0BFF101C0BEF190
:102BB000C0C1C6F1BFC1C5F1BEC1C4F1F6DD01019E
:102BC000BAC173F1BBC174F100011200200E010102
:102BD000BBA9300EBC6FBAC100F0BAAF08D0001E5E
:102BE000002A00C0BAF12D0EBC6FBB8FBB81015013
:102BF000BAC1DEF1640EDF6F000149EC05F000C0E0
:102C0000BAF1300E01240101BD6FBAC1DEF10A0E26
:102C1000DF6F000149EC05F0300E00240101BF6FA9
:102C2000300E0124BE6FBCC100F0300EBD5D04E06B
:102C3000BB83BBBFBB8512D0BCC1BDF1200EBC6F36
:102C4000300EBE5D04E0BB81BBBFBB8307D0D8A400
:102C5000BB8104E1BDC1BEF1200EBD6FBBB505D087
:102C6000BBB308D0BBB10BD00FD0BCC1DBF10001AE
:102C7000D0EC07F0BDC1DBF10001D0EC07F0BEC124
:102C8000DBF10001D0EC07F0BFC1DBF10001D0ECBB
:102C900007F012001A50E00B006E00380101B46F0B
:102CA000B433070EB417B45302E1010EB46F000140
:102CB00009EF0AF0010E0101B45D030DF350010F9D
:102CC000B56FC16F010EC26F0001A7EC09F0B6EC41
:102CD0000AF0F5EC0AF0B1C1B6F1B0C1B5F1B3C17B
:102CE000B8F1B2C1B7F1B4C1B9F11DDE1B500A0889
:102CF00021E10C0E1B6E0101B451050803E2010E27
:102D0000B46F01D0B42B010EB45D030DF350010F6D
:102D1000B56FC16F010EC26F0001A7EC09F0B1C120
:102D2000B6F1B0C1B5F1B3C1B8F1B2C1B7F1B4C138
:102D3000B9F1F9DD1B500B08D8A419D10C0E1B6E8C
:102D40000101B451050819E2090E685DB56F0E0E58
:102D5000695DB66FE96BB5C1E8F1EA6F020EEB6F22
:102D6000050EEC6FEE6BED6B00014FEC06F01EEC08
:102D700009F0000E016EFCD001011A501F0BB56F57
:102D8000B439006E0036E00E00160050B5111A6E10
:102D9000DC6BDD6B000151EC07F01A50030BFC0FEC
:102DA0001EE2040FBAEF17F0AC0EF66E070EF76EC8
:102DB00084EC08F014D0B40EF66E070EF76E84ECB7
:102DC00008F00DD0BC0EF66E070EF76E84EC08F01E
:102DD00006D0C40EF66E070EF76E84EC08F0200ED7
:102DE0000101DB6F0001D0EC07F0B4C1BAF1180E9D
:102DF0000101BB6F0001EADE3A0E0101DB6F000149
:102E0000D0EC07F00A0E0101DB6F0001D0EC07F0F7
:102E1000B4C1C2F168EC0BF001524EE0200E01018A
:102E2000DB6F0001D0EC07F03E0E0101DB6F00010B
:102E3000D0EC07F01A50030BFC0F1EE2040FCBEF8F
:102E400017F0CC0EF66E070EF76E84EC08F014D077
:102E5000D20EF66E070EF76E84EC08F00DD0DA0E87
:102E6000F66E070EF76E84EC08F006D0E00EF66EF4
:102E7000070EF76E84EC08F0080E0101745DB56F63
:102E80007351685DB66FE96B73C1E8F1B5C1EAF1E2
:102E9000EB6F080EEC6FEE6BED6B00014FEC06F084
:102EA0000101B0C1E9FFB1C1EAFF010EEF6E020EF0
:102EB000016E00015DD05BD0020E0101B56F000113
:102EC000AEEC08F01A50030BFC0F1EE2040FDCEF0F
:102ED00017F0EA0EF66E070EF76E84EC08F014D0C9
:102EE000F20EF66E070EF76E84EC08F00DD0F80EB9
:102EF000F66E070EF76E84EC08F006D0000EF66E44
:102F0000080EF76E84EC08F0020E0101B56F0001A7
:102F1000AEEC08F01A50030BFC0F1EE2040FEDEFAD
:102F200017F00A0EF66E080EF76E84EC08F014D057
:102F3000120EF66E080EF76E84EC08F00DD0180E27
:102F4000F66E080EF76E84EC08F006D0200EF66ED2
:102F5000080EF76E84EC08F0020E0101B56F000157
:102F6000AEEC08F0D3EC09F0030E016E01D0BED632
:102F700042EF32F0E824F76AF7368F0FF66E2F0E25
:102F8000F7220A00F550FA6E0800F550F96EA82DE8
:102F9000B62DC42DD22DE824F76AF736B10FF66EA0
:102FA0002F0EF7220A00F550FA6E0800F550F96E60
:102FB000422E502E5E2E6C2EE824F76AF736D30F81
:102FC000F66E2F0EF7220A00F550FA6E0800F55043
:102FD000F96ED22EE02EEE2EFC2EE824F76AF7369C
:102FE000F50FF66E2F0EF7220A00F550FA6E080064
:102FF000F550F96E222F302F3E2F4C2F1B500A0810
:1030000005E10C0E1B6E010E016E09D01B500B0862
:1030100005E10C0E1B6E1D0E016E01D0EFD748EFBF
:1030200032F0010E0101C16FC26F0001A7EC09F07F
:103030001B500A0805E10C0E1B6E040E016E09D030
:103040001B500B0805E10C0E1B6E1E0E016E01D00D
:10305000EFD74EEF32F0090E0101C16F010EC26FC2
:103060000001A7EC09F01B500A0805E10C0E1B6ECD
:10307000050E016E09D01B500B0805E10C0E1B6EEE
:103080001D0E016E01D0EFD754EF32F0110E010189
:10309000C16F010EC26F0001A7EC09F01B500A08B6
:1030A00005E10C0E1B6E030E016E09D01B500B08C0
:1030B00005E10C0E1B6E010E016E01D0EFD75AEF29
:1030C00032F0020E0101C16F050EC26F0001A7ECC4
:1030D00009F00101AEC1E9FFAFC1EAFF010EEF6ED9
:1030E0001B500A0805E10C0E1B6E070E016E15D071
:1030F0001B500B0811E10C0E1B6E1F0E1A162E0E24
:10310000F66E080EF76E000184EC08F0B6EC0AF0DB
:103110001D0E016E010101D0E3D7000166EF32F010
:10312000030E0101B56F0001AEEC08F01A50030B5D
:10313000FC0F1EE2040FB9EF18F03C0EF66E020E03
:10314000F76E84EC08F014D0440EF66E020EF76EA3
:1031500084EC08F00DD04A0EF66E020EF76E84EC89
:1031600008F006D0500EF66E020EF76E84EC08F0F2
:103170001200E824F76AF7368D0FF66E310EF7224B
:103180000A00F550FA6E0800F550F96E3A314831F0
:1031900056316431030E0101B56F0001AEEC08F049
:1031A0001A50030BFC0F1EE2040FF3EF18F0580E39
:1031B000F66E020EF76E84EC08F014D0640EF66E14
:1031C000020EF76E84EC08F00DD06A0EF66E020E59
:1031D000F76E84EC08F006D0700EF66E020EF76EF5
:1031E00084EC08F01200E824F76AF736010FF66E57
:1031F000320EF7220A00F550FA6E0800F550F96E0B
:10320000AE31BC31CA31D831030E0101B56F0001B6
:10321000AEEC08F01A50030BFC0F1EE2040F2DEF6A
:1032200019F0780EF66E020EF76E84EC08F014D0EA
:10323000800EF66E020EF76E84EC08F00DD08A0E4A
:10324000F66E020EF76E84EC08F006D0920EF66E63
:10325000020EF76E84EC08F01200E824F76AF736E5
:10326000750FF66E320EF7220A00F550FA6E08005E
:10327000F550F96E223230323E324C3294EC08F086
:10328000EEEC08F0010E0101B56F00019AEC08F0B8
:1032900047DF0101B56B00019AEC08F07BDF01010B
:1032A000B56B00019AEC08F0AFDF0101B56B0001CE
:1032B0009AEC08F0030E0101B56F0001AEEC08F0C6
:1032C000D3EC09F01200020E0101C16F070EC26FAC
:1032D0000001A7EC09F01B500A0809E10C0E1B6E57
:1032E0001A501F0B20091A6E000E016E0AD01B50D7
:1032F0000B0806E10C0E1B6EC1DF080E016E01D03B
:10330000EAD76CEF32F0060E0101B56F0001AEECAA
:1033100008F01A50030BFC0F1EE2040FACEF19F07B
:103320009A0EF66E020EF76E84EC08F014D0A20E20
:10333000F66E020EF76E84EC08F00DD0AA0EF66E53
:10334000020EF76E84EC08F006D0B20EF66E020E96
:10335000F76E84EC08F01200E824F76AF736730F72
:10336000F66E330EF7220A00F550FA6E0800F5509B
:10337000F96E20332E333C334A33060E0101B56F0C
:103380000001AEEC08F01A50030BFC0F1EE2040F14
:10339000E6EF19F0BA0EF66E020EF76E84EC08F046
:1033A00014D0C20EF66E020EF76E84EC08F00DD04B
:1033B000CC0EF66E020EF76E84EC08F006D0D40E3A
:1033C000F66E020EF76E84EC08F01200E824F76A3D
:1033D000F736E70FF66E330EF7220A00F550FA6E55
:1033E0000800F550F96E9433A233B033BE3394EC39
:1033F00008F0EEEC08F0010E0101B56F00019AEC47
:1034000008F08EDE010E0101B56F00019AEC08F0A4
:103410007ADF0101B56B00019AEC08F0AEDF010123
:10342000B56B00019AEC08F0060E0101B56F0001C2
:10343000AEEC08F0D3EC09F01200020E0101C16FEE
:10344000030EC26F0001A7EC09F01B500A0805E14A
:103450000C0E1B6E120E016E0AD01B500B0806E1FB
:103460000C0E1B6EC4DF090E016E01D0EED772EF99
:1034700032F094EC08F0EEEC08F0010E0101B56FAB
:1034800000019AEC08F04CDE010E0101B56F00015D
:103490009AEC08F038DF010E0101B56F00019AECDB
:1034A00008F0090E0101B56F0001AEEC08F01AA09A
:1034B00007D0940EF66E030EF76E84EC08F006D07B
:1034C0009A0EF66E030EF76E84EC08F00101B56BF0
:1034D00000019AEC08F0090E0101B56F0001AEEC95
:1034E00008F0A00EF66E030EF76E84EC08F01AA03A
:1034F0000DD0430E0101DB6F0001D0EC07F0430E4D
:103500000101DB6F0001D0EC07F00CD0530E01017C
:10351000DB6F0001D0EC07F0530E0101DB6F0001FF
:10352000D0EC07F00101B56B00019AEC08F0090E30
:103530000101B56F0001AEEC08F0D3EC09F0B6EF75
:103540001AF0050E0101C16FC26F0001A7EC09F06E
:103550001B500A0805E10C0E1B6E0D0E016E0AD001
:103560001B500B0806E10C0E1B6E83D70B0E016E71
:1035700001D0EED778EF32F0080E0101C16F090ECD
:10358000C26F0001A7EC09F01B500A0804E10C0E01
:103590001B6E016E3BD01B500B0837E10C0E1B6EEF
:1035A000F2CFAEF1F29EA96AA69CA69EA680A85074
:1035B0000101AEBFF28EFF0AEF0B1009FF0AAF6FD9
:1035C000F250006EF29EA96AAFC1A8FFA69CA69E0B
:1035D000A6840F01550EA76EAA0EA76EA682A6B2EC
:1035E000FED7A6940050F212F2CFAEF1F29EA96A75
:1035F000A69CA69EA680A8500101AEBFF28EFF0A2F
:103600001A6E0C0E016E000101D0BED77EEF32F0B3
:10361000080E0101C16F070EC26F0001A7EC09F08F
:103620001B500A0805E10C0E1B6E0A0E016E3AD003
:103630001B500B0836E10C0E1B6EF2CFAEF1F29E62
:10364000A96AA69CA69EA680A8500101AEBFF28ED4
:10365000FF0AEF0BFF0AAF6FF250006EF29EA96AED
:10366000AFC1A8FFA69CA69EA6840F01550EA76E0B
:10367000AA0EA76EA682A6B2FED7A6940050F2129A
:10368000F2CFAEF1F29EA96AA69CA69EA680A85093
:103690000101AEBFF28EFF0A1A6E0C0E016E000120
:1036A00001D0BED784EF32F0080E0101C16F0B0EBE
:1036B000C26F0001A7EC09F01B500A0805E10C0ECF
:1036C0001B6E0B0E016E0AD01B500B0806E10C0E90
:1036D0001B6E8DDE090E016E01D0EED78AEF32F03F
:1036E00094EC08F0EEEC08F0010E0101B56F00015A
:1036F0009AEC08F015DD010E0101B56F00019AEC9E
:1037000008F03BDE010E0101B56F00019AEC08F0F4
:10371000090E0101B56F0001AEEC08F01A50030B61
:10372000FC0F1EE2040FECEF1BF0A40EF66E030E6E
:10373000F76E84EC08F014D0AE0EF66E030EF76E42
:1037400084EC08F00DD0B80EF66E030EF76E84EC24
:1037500008F006D0C00EF66E030EF76E84EC08F08B
:103760000101B56B00019AEC08F0090E0101B56F7B
:103770000001AEEC08F01A50030BFC0F1EE2040F20
:10378000FDEF1BF0CC0EF66E030EF76E84EC08F026
:1037900014D0D60EF66E030EF76E84EC08F00DD042
:1037A000DE0EF66E030EF76E84EC08F006D0E60E21
:1037B000F66E030EF76E84EC08F00101B56B0001A4
:1037C0009AEC08F0090E0101B56F0001AEEC08F0AB
:1037D000D3EC09F024EF1CF0E824F76AF736F30F76
:1037E000F66E370EF7220A00F550FA6E0800F55013
:1037F000F96E2A37383746375437E824F76AF736F0
:10380000150FF66E380EF7220A00F550FA6E080012
:10381000F550F96E84379237A037AE37050E0101A7
:10382000C16F070EC26F0001A7EC09F01B500A0818
:1038300005E10C0E1B6E110E016E0AD01B500B0819
:1038400006E10C0E1B6E4CD70F0E016E01D0EED7A9
:1038500090EF32F0080E0101C16F090EC26F000136
:10386000A7EC09F01B500A0805E10C0E1B6E100EA8
:10387000016E3BD01B500B0837E10C0E1B6EF2CFD4
:10388000AEF1F29EA96AA69CA69EA680A850010150
:10389000AEBFF28EFF0AF70B0809FF0AAF6FF250B6
:1038A000006EF29EA96AAFC1A8FFA69CA69EA68440
:1038B0000F01550EA76EAA0EA76EA682A6B2FED75E
:1038C000A6940050F212F2CFAEF1F29EA96AA69C25
:1038D000A69EA680A8500101AEBFF28EFF0A1A6E06
:1038E000100E016E000101D0BDD796EF32F0080E28
:1038F0000101C16F070EC26F0001A7EC09F01B5058
:103900000A0805E10C0E1B6E0E0E016E3AD01B501C
:103910000B0836E10C0E1B6EF2CFAEF1F29EA96AD7
:10392000A69CA69EA680A8500101AEBFF28EFF0AFB
:10393000F70BFF0AAF6FF250006EF29EA96AAFC19B
:10394000A8FFA69CA69EA6840F01550EA76EAA0EE0
:10395000A76EA682A6B2FED7A6940050F212F2CFAE
:10396000AEF1F29EA96AA69CA69EA680A85001016F
:10397000AEBFF28EFF0A1A6E100E016E000101D06A
:10398000BED79CEF32F0080E0101C16F0B0EC26F63
:103990000001A7EC09F01B500A0805E10C0E1B6E94
:1039A0000F0E016E0AD01B500B0806E10C0E1B6EA9
:1039B0001EDD0D0E016E01D0EED7A2EF32F0050E26
:1039C0000101C16F090EC26F0001A7EC09F01B5085
:1039D0000A0805E10C0E1B6E090E016E0AD01B5081
:1039E0000B0806E10C0E1B6E49DC080E016E01D0BF
:1039F000EED7A8EF32F094EC08F0EEEC08F0010EF0
:103A00000101B56F00019AEC08F0CAEC18F0010E44
:103A10000101B56F00019AEC08F0060E0101B56FC7
:103A20000001AEEC08F0B00E0101DB6F0001D0EC3C
:103A300007F0430E0101DB6F0001D0EC07F001013C
:103A4000B56B00019AEC08F0060E0101B56F00019C
:103A5000AEEC08F0B00E0101DB6F0001D0EC07F016
:103A6000460E0101DB6F0001D0EC07F00101B56BE0
:103A700000019AEC08F0060E0101B56F0001AEECF2
:103A800008F0D3EC09F05BEF1DF0020E0101C16FED
:103A9000050EC26F0001A7EC09F01B500A0805E1F2
:103AA0000C0E1B6E160E016E0AD01B500B0806E1A1
:103AB0000C0E1B6EA0D7130E016E01D0EED7AEEF29
:103AC00032F0050E0101C16FC26F0001A7EC09F0D1
:103AD0001B500A0805E10C0E1B6E140E016E3AD045
:103AE0001B500B0836E10C0E1B6EF2CFAEF1F29EAE
:103AF000A96AA69CA69EA680A8500101AEBFF28E20
:103B0000FF0AFB0BFF0AAF6FF250006EF29EA96A2C
:103B1000AFC1A8FFA69CA69EA6840F01550EA76E56
:103B2000AA0EA76EA682A6B2FED7A6940050F212E5
:103B3000F2CFAEF1F29EA96AA69CA69EA680A850DE
:103B40000101AEBFF28EFF0A1A6E150E016E000162
:103B500001D0BED7B4EF32F0050E0101C16F070EE0
:103B6000C26F0001A7EC09F01B500A0805E10C0E1A
:103B70001B6E150E016E3BD01B500B0837E10C0E6F
:103B80001B6EF2CFAEF1F29EA96AA69CA69EA680FD
:103B9000A8500101AEBFF28EFF0AFB0B0409FF0A19
:103BA000AF6FF250006EF29EA96AAFC1A8FFA69C4B
:103BB000A69EA6840F01550EA76EAA0EA76EA6821A
:103BC000A6B2FED7A6940050F212F2CFAEF1F29E4A
:103BD000A96AA69CA69EA680A8500101AEBFF28E3F
:103BE000FF0A1A6E150E016E000101D0BDD7BAEFA3
:103BF00032F0050E0101C16F090EC26F0001A7EC82
:103C000009F01B500A0805E10C0E1B6E130E016E25
:103C10000BD01B500B0807E10C0E1B6E3EEC19F08D
:103C2000120E016E01D0EDD7C0EF32F094EC08F027
:103C3000EEEC08F0010E0101B56F00019AEC08F0FE
:103C400004EC19F0010E0101B56F00019AEC08F0C7
:103C5000060E0101B56F0001AEEC08F0F20EF66E33
:103C6000030EF76E84EC08F00101B56B00019AECCD
:103C700008F0060E0101B56F0001AEEC08F0FA0E77
:103C8000F66E030EF76E84EC08F00101B56B0001CF
:103C90009AEC08F0060E0101B56F0001AEEC08F0D9
:103CA000020EF66E040EF76E84EC08F00101B56B9F
:103CB00000019AEC08F0060E0101B56F0001AEECB0
:103CC00008F00C0EF66E040EF76E84EC08F001019D
:103CD000B56B00019AEC08F0060E0101B56F00010A
:103CE000AEEC08F0D3EC09F01200020E0101C16F36
:103CF000070EC26F0001A7EC09F01B500A0805E18E
:103D00000C0E1B6E1C0E016E0AD01B500B0806E138
:103D10000C0E1B6E8BDF170E016E01D0EED7C6EFB7
:103D200032F0050E0101C16FC26F0001A7EC09F06E
:103D30001B500A0805E10C0E1B6E180E016E3BD0DD
:103D40001B500B0837E10C0E1B6EF2CFAEF1F29E4A
:103D5000A96AA69CA69EA680A8500101AEBFF28EBD
:103D6000FF0AFC0BFF0AAF6FF250006EF29EA96AC9
:103D7000AFC1A8FFA69CA69EA6840F01550EA76EF4
:103D8000AA0EA76EA682A6B2FED7A6940050F21283
:103D9000F2CFAEF1F29EA96AA69CA69EA680A8507C
:103DA0000101AEBFF28EFF0A1A6E00013FDF1B0E4B
:103DB000016E01D0BDD7CCEF32F0050E0101C16F0D
:103DC000070EC26F0001A7EC09F01B500A0805E1BD
:103DD0000C0E1B6E190E016E3CD01B500B0838E107
:103DE0000C0E1B6EF2CFAEF1F29EA96AA69CA69EA7
:103DF000A680A8500101AEBFF28EFF0AFC0B01099C
:103E0000FF0AAF6FF250006EF29EA96AAFC1A8FF21
:103E1000A69CA69EA6840F01550EA76EAA0EA76E9D
:103E2000A682A6B2FED7A6940050F212F2CFAEF14F
:103E3000F29EA96AA69CA69EA680A8500101AEBFCC
:103E4000F28EFF0A1A6E0001F1DE1B0E016E01D028
:103E5000BCD7D2EF32F0050E0101C16F090EC26F5F
:103E60000001A7EC09F01B500A0805E10C0E1B6EBF
:103E70001A0E016E3CD01B500B0838E10C0E1B6E65
:103E8000F2CFAEF1F29EA96AA69CA69EA680A8508B
:103E90000101AEBFF28EFF0AFC0B0209FF0AAF6FF1
:103EA000F250006EF29EA96AAFC1A8FFA69CA69E22
:103EB000A6840F01550EA76EAA0EA76EA682A6B203
:103EC000FED7A6940050F212F2CFAEF1F29EA96A8C
:103ED000A69CA69EA680A8500101AEBFF28EFF0A46
:103EE0001A6E0001A3DE1B0E016E01D0BCD7D8EF05
:103EF00032F0050E0101C16F0B0EC26F0001A7EC7D
:103F000009F01B500A0805E10C0E1B6E1B0E016E1A
:103F10003CD01B500B0838E10C0E1B6EF2CFAEF1FB
:103F2000F29EA96AA69CA69EA680A8500101AEBFDB
:103F3000F28EFF0AFC0B0309FF0AAF6FF250006E0E
:103F4000F29EA96AAFC1A8FFA69CA69EA6840F01F7
:103F5000550EA76EAA0EA76EA682A6B2FED7A6948D
:103F60000050F212F2CFAEF1F29EA96AA69CA69E74
:103F7000A680A8500101AEBFF28EFF0A1A6E0001A2
:103F800055DE1B0E016E01D0BCD7DEEF32F0050E00
:103F90000101C16F0D0EC26F0001A7EC09F01B50AB
:103FA0000A0805E10C0E1B6E170E016E0BD01B509C
:103FB0000B0807E10C0E1B6E3EEC19F0160E016E9D
:103FC00001D0EDD7E4EF32F0020E0101C16F090E0E
:103FD000C26F0001A7EC09F01B500A0805E10C0EA6
:103FE0001B6E080E016E0BD01B500B0807E10C0E68
:103FF0001B6E1EEC09F0070E016E01D0EDD7EAEF43
:1040000032F073C1C2F174C1C3F1040E01016F5DDE
:10401000C46FDC6FDD6B000151EC07F00101C05192
:10402000E80810E1C15103080DE1E20EF66E040E3E
:10403000F76E000184EC08F0C2C173F1C3C174F1E2
:104040001FD00101C03D0FD0C13D0DD0E60EF66E70
:10405000040EF76E000184EC08F0C2C173F1C3C115
:1040600074F10ED001010A0EE96EC1C1D3F1C0C1D5
:10407000D2F1000172EC13F0C2C173F1C3C174F14B
:104080001200200E0101C5A9300EC66FC4C100F098
:10409000C4AF08D0001E002A00C0C4F12D0EC66FA8
:1040A000C58FC5810150C4C1DEF1640EDF6F000110
:1040B00049EC05F000C0C4F1300E01240101C76FC6
:1040C000C4C1DEF10A0EDF6F000149EC05F0300ECD
:1040D00000240101C96F300E0124C86FC6C100F071
:1040E000300EC75D04E0C583C5BFC58512D0C5B518
:1040F00010D0C6C1C7F1C5B304D0300EC85D04E00E
:10410000C581C5BFC58305D0D8A4C581D8B4C7C1F2
:10411000C8F1C5B505D0C5B308D0C5B10BD00FD017
:10412000C6C1DBF10001D0EC07F0C7C1DBF1000133
:10413000D0EC07F0C8C1DBF10001D0EC07F0C9C139
:10414000DBF10001D0EC07F0120073C1C0F174C1C3
:10415000C1F1040E01016F5DC46FDC6F010EDD6FF4
:10416000000151EC07F01A50100B100842E1BFC1DA
:10417000F1F1BEC1F0F10101F36B3C0EF26F0001F1
:1041800048EC0DF002C0C5F101C0C4F102C0F1F16C
:1041900001C0F0F10101F36B640EF26F000148EC15
:1041A0000DF000C0C2F10101BFC1F1F1BEC1F0F1DB
:1041B000F36B3C0EF26F000148EC0DF000C0C3F150
:1041C0000101C2C1C4F1010EC56F00015ADF3A0EF0
:1041D0000101DB6F0001D0EC07F0C3C1C4F1010E97
:1041E0000101C56F00014DDFC0C173F1C1C174F1A0
:1041F00027D01AA013D0090EE96EBFC1D3F1BEC1FA
:10420000D2F172EC13F0430E0101DB6F0001D0EC30
:1042100007F0C0C173F1C1C174F112D0090EE96E8B
:10422000BFC1D3F1BEC1D2F172EC13F0530E010144
:10423000DB6F0001D0EC07F0C0C173F1C1C174F1B4
:1042400012000101B9C1E9FFBAC1EAFFBE6BEFCFAD
:10425000BDF1050E6F5DC06FC16FC26B0001A7ECB1
:1042600009F01B500B08D8B4B1D01B500A08D8A4D1
:104270007DD00C0E1B6E0101BD5365E1BE5363E1A1
:10428000C46B000151EC04F0BCC103F00101BBC1DF
:10429000E9FFBCC1EAFFEF503F0B01084CE11A50A7
:1042A000E00B006E0038BF6FBF33070EBF17BF5360
:1042B00003E1060E016EFED0BF51330DF350CE0F59
:1042C000C06FF2CFC1F1F29EC0C1A9FFA69CA69E0D
:1042D000A680A850C1BFF28EFF0A000A29E1BF5193
:1042E000330DF350CF0FC06FF2CFC2F1F29EC0C1B9
:1042F000A9FFA69CA69EA680A850C2BFF28EFF0A68
:10430000000A16E1BF51330DF350D00FC06FF2CF4A
:10431000C3F1F29EC0C1A9FFA69CA69EA680A8508C
:10432000C3BFF28EFF0A000A03E1020E016EC2D083
:10433000040E016EBFD0BBC1E9FFBCC1EAFFEF06AE
:10434000200E016EB7D0BEC1F1F1BDC1F0F1F36B2B
:104350000A0EF26F000148EC0DF002C0BEF101C080
:10436000BDF1BEC1C1F1BDC1C0F14BDE1B5009089A
:104370002CE3BEC1EEF1BDC1EDF10101F06B0A0EFF
:10438000EF6F00010BEC07F002C0C1F101C0C0F1FA
:104390001B500101C027000EC123C1C1F1F1C0C1F2
:1043A000F0F1030EF36FE80EF26F000148EC0DF030
:1043B00000C0BDF1010103C0BEF10C0E1B6EBEC1F9
:1043C000C1F1BDC1C0F100011CDE4BD70C0E1B6E4C
:1043D0001A50040B04082BE10101BE5306E1BD5144
:1043E0001F0803E3BE6B200EBD6F200EBD5DC06FC6
:1043F000000EBE59C16FEE6FC0C1EDF1F06B050E3E
:10440000EF6F00010BEC07F002C0C1F101C0C0F179
:1044100002C0F1F101C0F0F10101F36B090EF26F7E
:10442000000148EC0DF002C0BEF101C0BDF1010178
:10443000BE530EE1BD5120080BE3B9C1E9FFBAC17B
:10444000EAFFEF6AC169C0690001DBDD23D0010129
:10445000BE51000812E2FF0A03E1BD511E080DE241
:10446000B9C1E9FFBAC1EAFFEF68030EC16FE80EF8
:10447000C06F0001C6DD0ED00101B9C1E9FFBAC1AC
:10448000EAFF200EBD5D006E000EBE59036E00C037
:10449000EFFF00011A50100B006E003A0F0E0016CD
:1044A000005005E0650E016E010104D00001670EA9
:1044B000016E010100017EEF27F0050E01016F5D25
:1044C000BB6FC16F010EC26F0001A7EC09F01B505A
:1044D0000B08D8B49BD01B500A0845E10C0E1B6E8C
:1044E000BAC103F00101B9C1E9FFBAC1EAFFECCFDB
:1044F000BCF1ED52EFCFBBF1BB5305E1BC5303E17F
:10450000640E016E9ED0BAC103F0B9C1E9FFBAC111
:10451000EAFFECCFF1F1ED52EFCFF0F1F36B0A0EC1
:10452000F26F000148EC0DF001C0EFFF02C0ECFF9C
:10453000BAC103F00101B9C1E9FFBAC1EAFFECCF8A
:10454000EEF1ED52EFCFEDF1F06B3C0EEF6F0001AD
:104550000BEC07F002C0BCF101C0BBF102C0BFF11F
:1045600001C0BEF1F2DD1B5009084FE30101B9C1E2
:10457000BBF1BAC1BCF1BAC103F0B9C1E9FFBAC11C
:10458000EAFFECCFEEF1ED52EFCFEDF1F06B0A0E5A
:10459000EF6F00010BEC07F002C0BEF101C0BDF1EE
:1045A0001B500101BD27000EBE23BEC1F1F1BDC1EC
:1045B000F0F1F36B640EF26F000148EC0DF00101B5
:1045C000BCC1EAFFBBC1E9FF03C0ECFFED5200C074
:1045D000EFFF0C0E1B6EBAC103F0B9C1E9FFBAC1FF
:1045E000EAFFECCFEEF1ED52EFCFEDF1F06B3C0EC8
:1045F000EF6F00010BEC07F002C0BCF101C0BBF192
:1046000002C0BFF101C0BEF1A0DD61D70C0E1B6E70
:10461000BAC103F00101B9C1E9FFBAC1EAFFECCFA9
:10462000EEF1ED52EFCFEDF1F06B3C0EEF6F0001CC
:104630000BEC07F001C0EFFF02C0ECFF660E016E4D
:104640000101000189EF27F00101BB6B1B500B0832
:104650005BE01B500A0827E10C0E1B6EBB5303E105
:10466000650E016E62D0BBC1DEF10A0EDF6F000184
:1046700049EC05F001C0BBF1BAC103F00101B9C1B9
:10468000E9FFBAC1EAFFECCFBDF1ED52EFCFBCF1CB
:10469000BB51BC27000EBD23BDC1BFF1BCC1BEF1E3
:1046A000000153DD01011B5009082DE3BBC1DEF100
:1046B0000A0EDF6F000149EC05F000500A0DF350BF
:1046C0001B240101BB6F0C0E1B6EBAC103F0B9C1F4
:1046D000E9FFBAC1EAFFECCFBDF1ED52EFCFBCF17B
:1046E000BBC1DEF13C0EDF6F000149EC05F000506C
:1046F0000101BC27000EBD23BDC1BFF1BCC1BEF18D
:10470000000123DD0101A2D70C0E1B6EB9C1E9FF28
:10471000BAC1EAFFBB51EF24016E000EEC20ED524E
:1047200001C0EFFFEC6E680E016E000194EF27F000
:10473000050E01016F5DBB6FC16F010EC26F0001FD
:10474000A7EC09F01B500B08D8B484D01B500A0802
:1047500038E10C0E1B6EBAC103F00101B9C1E9FFCB
:10476000BAC1EAFFECCFBCF1ED52EFCFBBF1BB53C6
:1047700005E1BC5303E1640E016E71D0BAC103F0D0
:10478000B9C1E9FFBAC1EAFFECCFF1F1ED52EFCFC9
:10479000F0F1F36B0A0EF26F000148EC0DF001C06E
:1047A000EFFF02C0ECFFBAC103F00101B9C1E9FF9C
:1047B000BAC1EAFFECCFBFF1ED52EFCFBEF100017D
:1047C000C4DC1B50090845E30101B9C1BBF1BAC102
:1047D000BCF1BAC103F0B9C1E9FFBAC1EAFFECCF3D
:1047E000F1F1ED52EFCFF0F1030EF36FE80EF26F3F
:1047F000000148EC0DF000C0BDF1010103C0BEF1A5
:1048000003C0EEF100C0EDF1F06B0A0EEF6F000196
:104810000BEC07F001C0BDF11B5001010124016E3A
:10482000000E0220BCC1EAFFBBC1E9FFEC6EED52F5
:1048300001C0EFFF0C0E1B6EBAC103F0B9C1E9FF56
:10484000BAC1EAFFECCFBFF1ED52EFCFBEF10001EC
:104850007CDC78D70C0E1B6E680E016E0101000126
:104860009FEF27F01A50080B08085FE1C5C1C8F197
:104870000101C851010858E2010EC85DCB6FEE6B13
:10488000ED6FF06B030EEF6F00010BEC07F001C052
:10489000CAF1010E01010124016E000E0220036E17
:1048A0000150C625016EC751032201C0CAF103C0E1
:1048B000CBF103C0EAFF01C0E9FFECCFCDF1ED522F
:1048C000EFCFCCF1020EC85DCF6FEE6BED6FF06BEA
:1048D000030EEF6F00010BEC07F002C0CFF101C037
:1048E000CEF1010E01010124016E000E0220036EC3
:1048F0000150C625E96EC7510320EA6EECCF03F0E4
:10490000ED52EF50CC5D006E0350CD59036E00C0E8
:10491000CCF1CD6FCBC1EAFFCAC1E9FFEC6EED521D
:1049200000C0EFFFC807A5D700010101C453D8B4E8
:1049300091D1C96BC551C95DD8B0BFD0C451330D39
:10494000F350CE0FCA6FC951030DF350CA27EE6B57
:10495000C9C1EDF1F06B030EEF6F00010BEC07F036
:1049600002C0CCF101C0CBF10101C651CB25E96EEB
:10497000C751CC21EA6EEF50FF0ACD6FF250006EA6
:10498000F29ECAC1A9FFCDC1A8FFA69CA69EA6847F
:104990000F01550EA76EAA0EA76EA682A6B2FED76D
:1049A000A6940050F2120101C451330DF350CF0F01
:1049B000CA6FC951030DF350CA27EE6BC9C1EDF19F
:1049C000F06B030EEF6F00010BEC07F002C0CCF1AF
:1049D00001C0CBF1010E0101CB25016E000ECC21EF
:1049E000036E0150C625E96EC7510320EA6EECCF75
:1049F00003F0ED52EF50FF0ACB6FFF0E0318CC6FA0
:104A0000CCC1CBF1CC6BF250006EF29ECAC1A9FFB3
:104A1000CBC1A8FFA69CA69EA6840F01550EA76E2B
:104A2000AA0EA76EA682A6B2FED7A6940050F212D6
:104A30000101C451330DF350D00FCA6FC951030D9A
:104A4000F350CA27EE6BC9C1EDF1F06B030EEF6FA7
:104A500000010BEC07F002C0CCF101C0CBF1010E5C
:104A60000101CB25016E000ECC21036E0150C6253D
:104A7000E96EC7510320EA6EECCF03F0ED52EF5020
:104A8000FF0ACB6FFF0E0318CC6FF250006EF29E40
:104A9000CAC1A9FFCBC1A8FFA69CA69EA6840F01F0
:104AA000550EA76EAA0EA76EA682A6B2FED7A69432
:104AB0000050F2120101C92B3DD7C5511008D8A0F2
:104AC000C9D0C451330DF350CE0FCA6F010EC525A6
:104AD000030DF350CA27010EC525CC6FEE6BCCC178
:104AE000EDF1F06B030EEF6F00010BEC07F002C06D
:104AF000CCF101C0CBF10101C651CB25E96EC75104
:104B0000CC21EA6EEF50FF0ACD6FF250006EF29E9C
:104B1000CAC1A9FFCDC1A8FFA69CA69EA6840F016D
:104B2000550EA76EAA0EA76EA682A6B2FED7A694B1
:104B30000050F2120101C451330DF350CF0FCA6F70
:104B4000010EC525030DF350CA27010EC525CC6FF4
:104B5000EE6BCCC1EDF1F06B030EEF6F00010BECCF
:104B600007F002C0CCF101C0CBF1010E0101CB2551
:104B7000016E000ECC21036E0150C625E96EC751AF
:104B80000320EA6EECCF03F0ED52EF50FF0ACB6F3B
:104B9000FF0E0318CC6FCCC1CBF1CC6BF250006E82
:104BA000F29ECAC1A9FFCBC1A8FFA69CA69EA6845F
:104BB0000F01550EA76EAA0EA76EA682A6B2FED74B
:104BC000A6940050F2120101C451330DF350D00FDE
:104BD000CA6F010EC525030DF350CA27010EC52566
:104BE000CC6FEE6BCCC1EDF1F06B030EEF6F0001FB
:104BF0000BEC07F002C0CCF101C0CBF1010E0101BA
:104C0000CB25016E000ECC21036E0150C625E96E46
:104C1000C7510320EA6EECCF03F0ED52EF50FF0ACC
:104C2000CB6FFF0E0318CC6FF250006EF29ECAC11C
:104C3000A9FFCBC1A8FFA69CA69EA6840F01550E76
:104C4000A76EAA0EA76EA682A6B2FED7A6940050A3
:104C5000F21201011E0E016E000112000101C46B6F
:104C6000000151EC04F01A50E00B006E0038010115
:104C7000C06FC033070EC017BA5302E1BB532FE019
:104C80001A50080B08082EE1BD5101082BE2020E54
:104C9000BD5DC56FEE6BED6FF06B030EEF6F000146
:104CA0000BEC07F002C0C5F101C0C4F1010E010117
:104CB0000124016E000E0220036E0150BE25E96E34
:104CC000BF510320EA6EECCF03F0ED52EFCF01F0BD
:104CD000BB51035C07E303E10150BA5D03E21F0E21
:104CE000016E5FD0010EBD5DC56FEE6BED6FF06BB9
:104CF000030EEF6F00010BEC07F00101BE51012420
:104D0000E96EBF510220EA6EBCC1EFFF010EBD5D2E
:104D1000C56FEE6BED6FF06B030EEF6F00010BECE8
:104D200007F001C0C4F1010E01010124016E000E63
:104D30000220036E0150BE25E96EBF510320EA6ECA
:104D4000BBC1ECFFED52BAC1EFFFBD5111080DE13F
:104D5000C0C1C4F1BDC1C5F1BFC1C7F1BEC1C6F17B
:104D6000000180DD015001011CD0BDC1C4F1BFC1F3
:104D7000C6F1BEC1C5F1010EC76F000155EC0EF0C2
:104D800003C0C3F102C0C2F101C0C1F1C3C1C6F189
:104D9000C2C1C5F1C1C1C4F1D5EC13F0200E016E42
:104DA00001010001B6EF27F00101B46BB66BB56BE2
:104DB000430EB76F1A50040B006E003200323F0EE4
:104DC0000016005002E0460EB76F640EB86FDC6B41
:104DD000010EDD6F000151EC07F01A50030BFC0FC0
:104DE0001EE2040FC3EF27F0400EF66E080EF76EBA
:104DF00084EC08F014D0460EF66E080EF76E84ECC4
:104E000008F00DD04C0EF66E080EF76E84EC08F02C
:104E100006D0520EF66E080EF76E84EC08F0B1C1A3
:104E200003F00101B0C1E9FFB1C1EAFFEFCFB9F171
:104E3000200EDB6F0001D0EC07F0B9C1BAF1180EFB
:104E40000101BB6F0001E6EC15F03A0E0101DB6FCA
:104E50000001D0EC07F01E0E0101685DD88073558B
:104E6000B96FE96B73C1E8F10A0EEA6FB9C1EBF1F2
:104E7000080EEC6FEE6BED6B00014FEC06F0010ECF
:104E800001016F5DB96FDC6FDD6B000151EC07F064
:104E9000B00E0101DB6F0001D0EC07F0B7C1DBF110
:104EA000D0EC07F00101C16BC06B000101EC20F0F8
:104EB0000101BF6BBE6B0001A5EC20F0010E0101EA
:104EC000C46F000151EC04F00101B851640A000103
:104ED00009E0010A16E0030A1FE0010A28E00F0AB0
:104EE00031E047D0010E0101BA6FB40EB96FB1C104
:104EF000BCF1B0C1BBF1000121EF21F001C0B8F15C
:104F00003DD0010E0101BA6FB50EB96F00015DEF22
:104F100022F001C0B8F132D0010E0101BA6FB50E16
:104F2000B96F000124EF23F001C0B8F127D0010EC2
:104F30000101BA6FB50EB96F000198EF23F001C0FF
:104F4000B8F11CD0B1C103F0B0C1E9FFB1C1EAFFB3
:104F5000EFCFBDF1B6C1BBF1B5C1BAF1B4C1BCF17F
:104F6000B3C1BFF1B2C1BEF1000178D601C0B8F142
:104F700005D00101B8C101F003D00001A5D701019E
:104F80000001FAEF32F0E824F76AF736A10FF66E67
:104F90004F0EF7220A00F550FA6E0800F550F96E30
:104FA000E84DF64D044E124E1A50030BFC0F1EE254
:104FB000040FFEEF27F0860EF66E040EF76E84ECFB
:104FC00008F014D0900EF66E040EF76E84EC08F024
:104FD0000DD0960EF66E040EF76E84EC08F006D037
:104FE000A00EF66E040EF76E84EC08F0AA0EF66EB4
:104FF000040EF76E84EC08F027EF28F0E824F76A37
:10500000F736170FF66E500EF7220A00F550FA6EBB
:105010000800F550F96EB64FC44FD24FE04F080E5E
:105020000101725DB46FE96B70C1E8F1EA6F68C1AC
:10503000EBF1100EEC6FEE6BED6B00014FEC06F038
:105040000101DC6BDD6B000151EC07F0ADD71B50AB
:105050000A080DE10C0E1B6E0101B0C1E9FFB1C1E0
:10506000EAFF010EEF6E000E016E56D000011B50DC
:105070000B0850E10C0E1B6EB1C103F00101B0C171
:10508000E9FFB1C1EAFFEFCFC4F1B3C1C6F1B2C1CC
:10509000C5F1C76B000155EC0EF01A50E00B010191
:1050A000B46FF2CFB5F1F29EA96AA69CA69EA68027
:1050B000A850B5BFF28EFF0AE00BB45D27E0F2CF37
:1050C000B4F1F29EA96AA69CA69EA680A850B4BF81
:1050D000F28EFF0A1F0BB56F1A50E00BB511FF0AD5
:1050E000B56FF250006EF29EA96AB5C1A8FFA69CEA
:1050F000A69EA6840F01550EA76EAA0EA76EA682C5
:10510000A6B2FED7A6940050F2120101210E016E44
:1051100003D000019CD7010100010AEF33F0010E1A
:105120000101C46F000151EC04F0F29CF29EF2BE4A
:10513000FDD70101DC6B010EDD6F000151EC07F0C2
:105140001A50030BFC0F1EE2040FE3EF28F0580E79
:10515000F66E080EF76E84EC08F014D0680EF66E4A
:10516000080EF76E84EC08F00DD0780EF66E080E7F
:10517000F76E84EC08F006D08A0EF66E080EF76E15
:1051800084EC08F0050E01016F5DAE6FDC6F010E5F
:10519000DD6F000151EC07F0200E0101DB6F000113
:1051A000D0EC07F0C00EF2121B500C08D8B4FCD79C
:1051B0000C0E1B6E0101C46B000151EC04F01D0EBE
:1051C000016E10EF33F0E824F76AF736E10FF66E60
:1051D000510EF7220A00F550FA6E0800F550F96EEC
:1051E0004E515C516A517851200E0101DB6F000174
:1051F000D0EC07F03E0E0101DB6F0001D0EC07F0B0
:105200001A50030BFC0F1EE2040F2AEF29F0AC0E1C
:10521000F66E040EF76E84EC08F014D0B80EF66E3D
:10522000040EF76E84EC08F00DD0C60EF66E040E78
:10523000F76E84EC08F006D0D20EF66E040EF76E10
:1052400084EC08F0E00EF66E040EF76E84EC08F0C5
:105250004BEF29F0E824F76AF7366F0FF66E520E1F
:10526000F7220A00F550FA6E0800F550F96E0E525A
:105270001C522A5238521A50E00B006E00380101BD
:10528000B46FB433070EB417DC6B010EDD6F000191
:1052900051EC07F0A9D7050E01016F5DB56FDC6F0A
:1052A000010EDD6F000151EC07F0200E0101DB6FF4
:1052B0000001D0EC07F01B500A0815E10C0E1B6E24
:1052C000B1C103F0B0C1E9FFB1C1EAFFEFCFC5F151
:1052D000B4C1C4F1B3C1C7F1B2C1C6F1000132EC2F
:1052E00024F0015010D01B500B080CE10C0E1B6E6B
:1052F0000101B0C1E9FFB1C1EAFFEF2A1D0E016E45
:10530000000101D0D8D720EF33F0F29CF29EF2BE1C
:10531000FDD7080E0101725DD06FE96B70C1E8F135
:10532000EA6F68C1EBF1100EEC6FEE6BED6B0001F4
:105330004FEC06F00101DC6BDD6B000151EC07F076
:105340001A50030BFC0F1EE2040FCBEF29F0140ED2
:10535000F66E040EF76E84EC08F014D01E0EF66E96
:10536000040EF76E84EC08F00DD0280EF66E040ED5
:10537000F76E84EC08F006D0300EF66E040EF76E71
:1053800084EC08F0360EF66E040EF76E84EC08F02E
:10539000C00EF2121200E824F76AF736B10FF66E6B
:1053A000530EF7220A00F550FA6E0800F550F96E18
:1053B0004E535C536A537853A50ECD6EC00EF21255
:1053C0009D8095EF2BF0C050C00B0709C06EC08EBA
:1053D000C280C150C00B0E09C16E9EEF2BF0C2827D
:1053E000C2B2FED7C4CFEDF1C3CFECF10001A8ECFF
:1053F0000BF003C0D3F102C0D2F101C0D1F100C063
:10540000D0F1D3C1EFF1D2C1EEF1D1C1EDF1D0C1F4
:10541000ECF1F30E0101F36F950EF26F1C0EF16FBC
:105420007D0EF06F000172EC0CF003C0E1F102C0E0
:10543000E0F101C0DFF100C0DEF1D892196AF2BEDE
:10544000198EF29E03C00AF202C009F201C008F2EE
:1054500000C007F202010E6B0D6B0C6B0B6B0001B1
:1054600075EC02F019BEF28E03C0D7F102C0D6F17E
:1054700001C0D5F100C0D4F1010E0101DE6F0001C1
:105480006EEC04F0929889980201036B000194EC91
:1054900004F0015000C0D8F10201036B000194EC4C
:1054A00004F0015000C0D9F1929889880101DF6BA6
:1054B000D8C1DEF1DE37DF37DE37DF37DE37DF3703
:1054C000DE37DF37DE37DF37E00EDE17D931006E2B
:1054D000003200321F0E00160050DE11006EDFC1D8
:1054E00003F0EC6FDFC1EDF10001A8EC0BF003C09D
:1054F000E1F102C0E0F101C0DFF100C0DEF103C064
:10550000EDF102C0ECF101C0EBF100C0EAF10101E4
:10551000F16BF06BEF6B830EEE6F0001C3EC0BF0E1
:1055200003C0DDF102C0DCF101C0DBF100C0DAF143
:10553000DDC1EBF1DCC1EAF1DBC1E9F1DAC1E8F18F
:10554000D7C1EFF1D6C1EEF1D5C1EDF1D4C1ECF187
:10555000EDEC0CF021E3D882196AF2BE198EF29EAE
:10556000D7C10AF2D6C109F2D5C108F2D4C107F2F7
:10557000DDC10EF2DCC10DF2DBC10CF2DAC10BF2BF
:1055800075EC02F019BEF28E03C0D7F102C0D6F15D
:1055900001C0D5F100C0D4F1D7C1EBF1D6C1EAF119
:1055A000D5C1E9F1D4C1E8F10101EF6BEE6BED6B10
:1055B000840EEC6F0001EDEC0CF007E30101D76BFA
:1055C000D66BD56B840ED46F00010101EB6B800E9E
:1055D000EA6F0F0EE96F870EE86FD7C1EFF1D6C102
:1055E000EEF1D5C1EDF1D4C1ECF10001EDEC0CF020
:1055F00007E3860E006E7F0E016E026A036A18D002
:10560000D882196AF2BE198EF29ED7C10AF2D6C1AB
:1056100009F2D5C108F2D4C107F202010E6B0D6B7D
:105620000C6B840E0B6F000175EC02F019BEF28E4C
:105630001200B60E006E036A026A016A0101D451BB
:10564000D511D611D71102E1006A0DD0D89001BE54
:1056500009D0D437D537D637D73703360236013697
:10566000002EF4D7019E000148EF2DF0F29CF29E2F
:10567000F2BEFDD7080E0101725DD06FE96B70C1FB
:10568000E8F1EA6F68C1EBF1100EEC6FEE6BED6BB9
:1056900000014FEC06F00101DC6BDD6B000151EC09
:1056A00007F01A50030BFC0F1EE2040F7FEF2BF0E4
:1056B0003A0EF66E040EF76E84EC08F014D0440E29
:1056C000F66E040EF76E84EC08F00DD04C0EF66EFC
:1056D000040EF76E84EC08F006D0540EF66E040E3D
:1056E000F76E84EC08F05E0EF66E040EF76E84EC36
:1056F00008F0F088F198C00EF21239EF2EF0E8248D
:10570000F76AF736190FF66E570EF7220A00F550B2
:10571000FA6E0800F550F96EB056BE56CC56DA5601
:10572000F4DD0101B285000147D60101BA6BB96B06
:10573000600EB86F810EB76F000145D6010E0101F2
:10574000DE6F00016EEC04F04ADE03C0B6F102C069
:10575000B5F101C0B4F100C0B3F1010E0101DE6F7B
:1057600000016EEC04F0B6C123F0B5C122F0B4C163
:1057700021F0B3C120F00101BC6BBB6BBE6BBD6BF4
:10578000C06BBF6B0D0E695DC16F1E0E685DC26F91
:10579000C56BC46BC36BC66BAF51C65D4AE2EE6BA3
:1057A000C6C1EDF1F06B030EEF6F00010BEC07F0DB
:1057B00002C0D1F101C0D0F10101B0510124E96E64
:1057C000B1510220EA6EEF50C35D12E2EE6BC6C12A
:1057D000EDF1F06B030EEF6F00010BEC07F0010130
:1057E000B0510124E96EB1510220EA6EEFCFC3F14E
:1057F000EE6BC6C1EDF1F06B030EEF6F00010BEC29
:1058000007F001C0D0F1010E01010124016E000E6C
:105810000220036E0150B025E96EB1510320EA6EFB
:10582000ECCF03F0ED52EF50C4270350C523C62B35
:10583000B3D7ED6BC1C1ECF10001A8EC0BF003C0D4
:10584000CAF102C0C9F101C0C8F100C0C7F1010E20
:105850000101C25DED6BEC6F0001A8EC0BF003C021
:10586000D3F102C0D2F101C0D1F100C0D0F1C5C165
:10587000EDF1C4C1ECF1A8EC0BF0D3C1EDF1D2C154
:10588000ECF1D1C1EBF1D0C1EAF103C0F1F102C0FA
:10589000F0F101C0EFF100C0EEF1C3EC0BF003C07A
:1058A000CEF102C0CDF101C0CCF100C0CBF10101BD
:1058B000CF6BAF51CF5DD8B08CEF30F0EE6BCFC176
:1058C000EDF1F06B030EEF6F00010BEC07F002C07F
:1058D000D1F101C0D0F10101B0510124E96EB15103
:1058E0000220EA6EEF50ED6BEC6F0001A8EC0BF0BC
:1058F00003C0D5F102C0D4F101C0D3F100C0D2F190
:10590000EACFD7F1E9CFD6F1D882196AF2BE198E63
:10591000F29E03C00AF202C009F201C008F200C000
:1059200007F2B6C10EF2B5C10DF2B4C10CF2B3C1AB
:105930000BF275EC02F019BEF28ED7C1EAFFD6C1A8
:10594000E9FF03C0D5F102C0D4F101C0D3F100C01A
:10595000D2F10101EE6BCFC1EDF1F06B030EEF6FF1
:1059600000010BEC07F001C0D8F1010E0101012488
:10597000016E000E0220036E0150B025E96EB15198
:105980000320EA6EECCFEDF1ED52EFCFECF1000128
:10599000A8EC0BF003C0EFF102C0EEF101C0EDF195
:1059A00000C0ECF1BAC1F3F1B9C1F2F1B8C1F1F143
:1059B000B7C1F0F172EC0CF0D5C1EDF1D4C1ECF14E
:1059C000D3C1EBF1D2C1EAF103C0F1F102C0F0F1B1
:1059D00001C0EFF100C0EEF1C3EC0BF003C01FF00B
:1059E00002C01EF001C01DF000C01CF00101B28118
:1059F000B283276A266A256A246AB2B102D0B2A3AA
:105A000088D3EE6BCFC1EDF1F06B030EEF6F0001A9
:105A10000BEC07F002C0D1F101C0D0F1010E010181
:105A20000124016E000E0220036E0150B025E96EC4
:105A3000B1510320EA6EECCF03F0ED52EFCFECF161
:105A400003C0EDF10001A8EC0BF0BAC1EFF1B9C150
:105A5000EEF1B8C1EDF1B7C1ECF103C0F3F102C052
:105A6000F2F101C0F1F100C0F0F172EC0CF003C0F2
:105A7000D3F102C0D2F101C0D1F100C0D0F127C0F2
:105A8000D7F126C0D6F125C0D5F124C0D4F1D1D5A7
:105A9000D3C1EBF1D2C1EAF1D1C1E9F1D0C1E8F152
:105AA00003C0EFF102C0EEF101C0EDF100C0ECF176
:105AB000EDEC0CF001E203E10101B29100018FDC99
:105AC00003C0B6F102C0B5F101C0B4F100C0B3F13A
:105AD000D882196AF2BE198EF29E23C00AF222C041
